{"abi":[{"type":"constructor","inputs":[],"stateMutability":"nonpayable"},{"type":"function","name":"DEFAULT_ADMIN_ROLE","inputs":[],"outputs":[{"name":"","type":"bytes32","internalType":"bytes32"}],"stateMutability":"view"},{"type":"function","name":"MAX_SUPPLY","inputs":[],"outputs":[{"name":"","type":"uint256","internalType":"uint256"}],"stateMutability":"view"},{"type":"function","name":"MINTER_ROLE","inputs":[],"outputs":[{"name":"","type":"bytes32","internalType":"bytes32"}],"stateMutability":"view"},{"type":"function","name":"PAUSER_ROLE","inputs":[],"outputs":[{"name":"","type":"bytes32","internalType":"bytes32"}],"stateMutability":"view"},{"type":"function","name":"allowance","inputs":[{"name":"owner","type":"address","internalType":"address"},{"name":"spender","type":"address","internalType":"address"}],"outputs":[{"name":"","type":"uint256","internalType":"uint256"}],"stateMutability":"view"},{"type":"function","name":"approve","inputs":[{"name":"spender","type":"address","internalType":"address"},{"name":"value","type":"uint256","internalType":"uint256"}],"outputs":[{"name":"","type":"bool","internalType":"bool"}],"stateMutability":"nonpayable"},{"type":"function","name":"authorizeMinter","inputs":[{"name":"minter","type":"address","internalType":"address"},{"name":"dailyLimit","type":"uint256","internalType":"uint256"}],"outputs":[],"stateMutability":"nonpayable"},{"type":"function","name":"balanceOf","inputs":[{"name":"account","type":"address","internalType":"address"}],"outputs":[{"name":"","type":"uint256","internalType":"uint256"}],"stateMutability":"view"},{"type":"function","name":"burn","inputs":[{"name":"value","type":"uint256","internalType":"uint256"}],"outputs":[],"stateMutability":"nonpayable"},{"type":"function","name":"burnFrom","inputs":[{"name":"account","type":"address","internalType":"address"},{"name":"value","type":"uint256","internalType":"uint256"}],"outputs":[],"stateMutability":"nonpayable"},{"type":"function","name":"dailyEmissionCap","inputs":[],"outputs":[{"name":"","type":"uint256","internalType":"uint256"}],"stateMutability":"view"},{"type":"function","name":"dailyEmissions","inputs":[{"name":"","type":"uint256","internalType":"uint256"}],"outputs":[{"name":"","type":"uint256","internalType":"uint256"}],"stateMutability":"view"},{"type":"function","name":"dailyVolume","inputs":[{"name":"","type":"uint256","internalType":"uint256"}],"outputs":[{"name":"","type":"uint256","internalType":"uint256"}],"stateMutability":"view"},{"type":"function","name":"dailyVolumeLimit","inputs":[],"outputs":[{"name":"","type":"uint256","internalType":"uint256"}],"stateMutability":"view"},{"type":"function","name":"decimals","inputs":[],"outputs":[{"name":"","type":"uint8","internalType":"uint8"}],"stateMutability":"view"},{"type":"function","name":"getMinterRemainingCapacity","inputs":[{"name":"minter","type":"address","internalType":"address"}],"outputs":[{"name":"","type":"uint256","internalType":"uint256"}],"stateMutability":"view"},{"type":"function","name":"getRemainingDailyCapacity","inputs":[],"outputs":[{"name":"","type":"uint256","internalType":"uint256"}],"stateMutability":"view"},{"type":"function","name":"getRoleAdmin","inputs":[{"name":"role","type":"bytes32","internalType":"bytes32"}],"outputs":[{"name":"","type":"bytes32","internalType":"bytes32"}],"stateMutability":"view"},{"type":"function","name":"grantRole","inputs":[{"name":"role","type":"bytes32","internalType":"bytes32"},{"name":"account","type":"address","internalType":"address"}],"outputs":[],"stateMutability":"nonpayable"},{"type":"function","name":"hasRole","inputs":[{"name":"role","type":"bytes32","internalType":"bytes32"},{"name":"account","type":"address","internalType":"address"}],"outputs":[{"name":"","type":"bool","internalType":"bool"}],"stateMutability":"view"},{"type":"function","name":"mint","inputs":[{"name":"to","type":"address","internalType":"address"},{"name":"amount","type":"uint256","internalType":"uint256"}],"outputs":[],"stateMutability":"nonpayable"},{"type":"function","name":"minterDailyLimit","inputs":[{"name":"","type":"address","internalType":"address"}],"outputs":[{"name":"","type":"uint256","internalType":"uint256"}],"stateMutability":"view"},{"type":"function","name":"minterDailyMinted","inputs":[{"name":"","type":"address","internalType":"address"},{"name":"","type":"uint256","internalType":"uint256"}],"outputs":[{"name":"","type":"uint256","internalType":"uint256"}],"stateMutability":"view"},{"type":"function","name":"name","inputs":[],"outputs":[{"name":"","type":"string","internalType":"string"}],"stateMutability":"view"},{"type":"function","name":"pause","inputs":[{"name":"reason","type":"string","internalType":"string"}],"outputs":[],"stateMutability":"nonpayable"},{"type":"function","name":"paused","inputs":[],"outputs":[{"name":"","type":"bool","internalType":"bool"}],"stateMutability":"view"},{"type":"function","name":"renounceRole","inputs":[{"name":"role","type":"bytes32","internalType":"bytes32"},{"name":"callerConfirmation","type":"address","internalType":"address"}],"outputs":[],"stateMutability":"nonpayable"},{"type":"function","name":"revokeMinter","inputs":[{"name":"minter","type":"address","internalType":"address"}],"outputs":[],"stateMutability":"nonpayable"},{"type":"function","name":"revokeRole","inputs":[{"name":"role","type":"bytes32","internalType":"bytes32"},{"name":"account","type":"address","internalType":"address"}],"outputs":[],"stateMutability":"nonpayable"},{"type":"function","name":"supportsInterface","inputs":[{"name":"interfaceId","type":"bytes4","internalType":"bytes4"}],"outputs":[{"name":"","type":"bool","internalType":"bool"}],"stateMutability":"view"},{"type":"function","name":"symbol","inputs":[],"outputs":[{"name":"","type":"string","internalType":"string"}],"stateMutability":"view"},{"type":"function","name":"totalSupply","inputs":[],"outputs":[{"name":"","type":"uint256","internalType":"uint256"}],"stateMutability":"view"},{"type":"function","name":"transfer","inputs":[{"name":"to","type":"address","internalType":"address"},{"name":"value","type":"uint256","internalType":"uint256"}],"outputs":[{"name":"","type":"bool","internalType":"bool"}],"stateMutability":"nonpayable"},{"type":"function","name":"transferFrom","inputs":[{"name":"from","type":"address","internalType":"address"},{"name":"to","type":"address","internalType":"address"},{"name":"value","type":"uint256","internalType":"uint256"}],"outputs":[{"name":"","type":"bool","internalType":"bool"}],"stateMutability":"nonpayable"},{"type":"function","name":"unpause","inputs":[],"outputs":[],"stateMutability":"nonpayable"},{"type":"function","name":"updateDailyCap","inputs":[{"name":"newCap","type":"uint256","internalType":"uint256"}],"outputs":[],"stateMutability":"nonpayable"},{"type":"event","name":"Approval","inputs":[{"name":"owner","type":"address","indexed":true,"internalType":"address"},{"name":"spender","type":"address","indexed":true,"internalType":"address"},{"name":"value","type":"uint256","indexed":false,"internalType":"uint256"}],"anonymous":false},{"type":"event","name":"CircuitBreakerTriggered","inputs":[{"name":"volume","type":"uint256","indexed":false,"internalType":"uint256"},{"name":"limit","type":"uint256","indexed":false,"internalType":"uint256"}],"anonymous":false},{"type":"event","name":"DailyCapUpdated","inputs":[{"name":"newCap","type":"uint256","indexed":false,"internalType":"uint256"}],"anonymous":false},{"type":"event","name":"EmergencyPause","inputs":[{"name":"by","type":"address","indexed":true,"internalType":"address"},{"name":"reason","type":"string","indexed":false,"internalType":"string"}],"anonymous":false},{"type":"event","name":"EmergencyUnpause","inputs":[{"name":"by","type":"address","indexed":true,"internalType":"address"}],"anonymous":false},{"type":"event","name":"MinterAuthorized","inputs":[{"name":"minter","type":"address","indexed":true,"internalType":"address"},{"name":"dailyLimit","type":"uint256","indexed":false,"internalType":"uint256"}],"anonymous":false},{"type":"event","name":"MinterRevoked","inputs":[{"name":"minter","type":"address","indexed":true,"internalType":"address"}],"anonymous":false},{"type":"event","name":"Paused","inputs":[{"name":"account","type":"address","indexed":false,"internalType":"address"}],"anonymous":false},{"type":"event","name":"RoleAdminChanged","inputs":[{"name":"role","type":"bytes32","indexed":true,"internalType":"bytes32"},{"name":"previousAdminRole","type":"bytes32","indexed":true,"internalType":"bytes32"},{"name":"newAdminRole","type":"bytes32","indexed":true,"internalType":"bytes32"}],"anonymous":false},{"type":"event","name":"RoleGranted","inputs":[{"name":"role","type":"bytes32","indexed":true,"internalType":"bytes32"},{"name":"account","type":"address","indexed":true,"internalType":"address"},{"name":"sender","type":"address","indexed":true,"internalType":"address"}],"anonymous":false},{"type":"event","name":"RoleRevoked","inputs":[{"name":"role","type":"bytes32","indexed":true,"internalType":"bytes32"},{"name":"account","type":"address","indexed":true,"internalType":"address"},{"name":"sender","type":"address","indexed":true,"internalType":"address"}],"anonymous":false},{"type":"event","name":"Transfer","inputs":[{"name":"from","type":"address","indexed":true,"internalType":"address"},{"name":"to","type":"address","indexed":true,"internalType":"address"},{"name":"value","type":"uint256","indexed":false,"internalType":"uint256"}],"anonymous":false},{"type":"event","name":"Unpaused","inputs":[{"name":"account","type":"address","indexed":false,"internalType":"address"}],"anonymous":false},{"type":"error","name":"AccessControlBadConfirmation","inputs":[]},{"type":"error","name":"AccessControlUnauthorizedAccount","inputs":[{"name":"account","type":"address","internalType":"address"},{"name":"neededRole","type":"bytes32","internalType":"bytes32"}]},{"type":"error","name":"ERC20InsufficientAllowance","inputs":[{"name":"spender","type":"address","internalType":"address"},{"name":"allowance","type":"uint256","internalType":"uint256"},{"name":"needed","type":"uint256","internalType":"uint256"}]},{"type":"error","name":"ERC20InsufficientBalance","inputs":[{"name":"sender","type":"address","internalType":"address"},{"name":"balance","type":"uint256","internalType":"uint256"},{"name":"needed","type":"uint256","internalType":"uint256"}]},{"type":"error","name":"ERC20InvalidApprover","inputs":[{"name":"approver","type":"address","internalType":"address"}]},{"type":"error","name":"ERC20InvalidReceiver","inputs":[{"name":"receiver","type":"address","internalType":"address"}]},{"type":"error","name":"ERC20InvalidSender","inputs":[{"name":"sender","type":"address","internalType":"address"}]},{"type":"error","name":"ERC20InvalidSpender","inputs":[{"name":"spender","type":"address","internalType":"address"}]},{"type":"error","name":"EnforcedPause","inputs":[]},{"type":"error","name":"ExpectedPause","inputs":[]},{"type":"error","name":"ReentrancyGuardReentrantCall","inputs":[]}],"bytecode":{"object":"0x608060405269d3c21bcecceda10000006008556a0422ca8b0a00a425000000600c5534801561002c575f5ffd5b506040518060400160405280600a81526020017f47616d6520546f6b656e000000000000000000000000000000000000000000008152506040518060400160405280600381526020017f47544b000000000000000000000000000000000000000000000000000000000081525081600390816100a891906107e3565b5080600490816100b891906107e3565b50505060016007819055506100d55f5f1b3361012760201b60201c565b506101067f65d7a28e3265b37a6474929f336521b332c1681b933f6cb9f3376673440d862a3361012760201b60201c565b50610122336a084595161401484a00000061021d60201b60201c565b6109c7565b5f61013883836102a260201b60201c565b61021357600160055f8581526020019081526020015f205f015f8473ffffffffffffffffffffffffffffffffffffffff1673ffffffffffffffffffffffffffffffffffffffff1681526020019081526020015f205f6101000a81548160ff0219169083151502179055506101b061030660201b60201c565b73ffffffffffffffffffffffffffffffffffffffff168273ffffffffffffffffffffffffffffffffffffffff16847f2f8788117e7eff1d82e926ec794901d17c78024a50270940304540a733656f0d60405160405180910390a460019050610217565b5f90505b92915050565b5f73ffffffffffffffffffffffffffffffffffffffff168273ffffffffffffffffffffffffffffffffffffffff160361028d575f6040517fec442f0500000000000000000000000000000000000000000000000000000000815260040161028491906108f1565b60405180910390fd5b61029e5f838361030d60201b60201c565b5050565b5f60055f8481526020019081526020015f205f015f8373ffffffffffffffffffffffffffffffffffffffff1673ffffffffffffffffffffffffffffffffffffffff1681526020019081526020015f205f9054906101000a900460ff16905092915050565b5f33905090565b61031b61033160201b60201c565b61032c83838361037860201b60201c565b505050565b61033f61059160201b60201c565b15610376576040517fd93c066500000000000000000000000000000000000000000000000000000000815260040160405180910390fd5b565b5f73ffffffffffffffffffffffffffffffffffffffff168373ffffffffffffffffffffffffffffffffffffffff16036103c8578060025f8282546103bc9190610937565b92505081905550610496565b5f5f5f8573ffffffffffffffffffffffffffffffffffffffff1673ffffffffffffffffffffffffffffffffffffffff1681526020019081526020015f2054905081811015610451578381836040517fe450d38c00000000000000000000000000000000000000000000000000000000815260040161044893929190610979565b60405180910390fd5b8181035f5f8673ffffffffffffffffffffffffffffffffffffffff1673ffffffffffffffffffffffffffffffffffffffff1681526020019081526020015f2081905550505b5f73ffffffffffffffffffffffffffffffffffffffff168273ffffffffffffffffffffffffffffffffffffffff16036104dd578060025f8282540392505081905550610527565b805f5f8473ffffffffffffffffffffffffffffffffffffffff1673ffffffffffffffffffffffffffffffffffffffff1681526020019081526020015f205f82825401925050819055505b8173ffffffffffffffffffffffffffffffffffffffff168373ffffffffffffffffffffffffffffffffffffffff167fddf252ad1be2c89b69c2b068fc378daa952ba7f163c4a11628f55a4df523b3ef8360405161058491906109ae565b60405180910390a3505050565b5f60065f9054906101000a900460ff16905090565b5f81519050919050565b7f4e487b71000000000000000000000000000000000000000000000000000000005f52604160045260245ffd5b7f4e487b71000000000000000000000000000000000000000000000000000000005f52602260045260245ffd5b5f600282049050600182168061062157607f821691505b602082108103610634576106336105dd565b5b50919050565b5f819050815f5260205f209050919050565b5f6020601f8301049050919050565b5f82821b905092915050565b5f600883026106967fffffffffffffffffffffffffffffffffffffffffffffffffffffffffffffffff8261065b565b6106a0868361065b565b95508019841693508086168417925050509392505050565b5f819050919050565b5f819050919050565b5f6106e46106df6106da846106b8565b6106c1565b6106b8565b9050919050565b5f819050919050565b6106fd836106ca565b610711610709826106eb565b848454610667565b825550505050565b5f5f905090565b610728610719565b6107338184846106f4565b505050565b5b818110156107565761074b5f82610720565b600181019050610739565b5050565b601f82111561079b5761076c8161063a565b6107758461064c565b81016020851015610784578190505b6107986107908561064c565b830182610738565b50505b505050565b5f82821c905092915050565b5f6107bb5f19846008026107a0565b1980831691505092915050565b5f6107d383836107ac565b9150826002028217905092915050565b6107ec826105a6565b67ffffffffffffffff811115610805576108046105b0565b5b61080f825461060a565b61081a82828561075a565b5f60209050601f83116001811461084b575f8415610839578287015190505b61084385826107c8565b8655506108aa565b601f1984166108598661063a565b5f5b828110156108805784890151825560018201915060208501945060208101905061085b565b8683101561089d5784890151610899601f8916826107ac565b8355505b6001600288020188555050505b505050505050565b5f73ffffffffffffffffffffffffffffffffffffffff82169050919050565b5f6108db826108b2565b9050919050565b6108eb816108d1565b82525050565b5f6020820190506109045f8301846108e2565b92915050565b7f4e487b71000000000000000000000000000000000000000000000000000000005f52601160045260245ffd5b5f610941826106b8565b915061094c836106b8565b92508282019050808211156109645761096361090a565b5b92915050565b610973816106b8565b82525050565b5f60608201905061098c5f8301866108e2565b610999602083018561096a565b6109a6604083018461096a565b949350505050565b5f6020820190506109c15f83018461096a565b92915050565b612a87806109d45f395ff3fe608060405234801561000f575f5ffd5b506004361061021a575f3560e01c806370a0823111610123578063a217fddf116100ab578063d547741f1161007a578063d547741f14610660578063d6d070c31461067c578063dd62ed3e1461069a578063e63ab1e9146106ca578063f37602e3146106e85761021a565b8063a217fddf146105d8578063a9059cbb146105f6578063cfbd488514610626578063d5391393146106425761021a565b806391d14854116100f257806391d148541461050e578063943ca3b91461053e57806395d89b411461056e5780639e5b35d51461058c5780639e832c84146105a85761021a565b806370a082311461048857806372e47557146104b85780637819e2e5146104d457806379cc6790146104f25761021a565b80632f2ff15d116101a65780633f4ba83a116101755780633f4ba83a1461040c57806340c10f191461041657806342966c68146104325780635c975abb1461044e5780636da663551461046c5761021a565b80632f2ff15d14610398578063313ce567146103b457806332cb6b0c146103d257806336568abe146103f05761021a565b806318160ddd116101ed57806318160ddd146102ba57806318b67498146102d857806323b872dd14610308578063248a9ca31461033857806327e5c54b146103685761021a565b806301ffc9a71461021e5780630217626c1461024e57806306fdde031461026c578063095ea7b31461028a575b5f5ffd5b61023860048036038101906102339190612055565b610718565b604051610245919061209a565b60405180910390f35b610256610791565b60405161026391906120cb565b60405180910390f35b610274610797565b6040516102819190612154565b60405180910390f35b6102a4600480360381019061029f91906121f8565b610827565b6040516102b1919061209a565b60405180910390f35b6102c2610849565b6040516102cf91906120cb565b60405180910390f35b6102f260048036038101906102ed9190612236565b610852565b6040516102ff91906120cb565b60405180910390f35b610322600480360381019061031d9190612261565b610867565b60405161032f919061209a565b60405180910390f35b610352600480360381019061034d91906122e4565b610895565b60405161035f919061231e565b60405180910390f35b610382600480360381019061037d91906121f8565b6108b2565b60405161038f91906120cb565b60405180910390f35b6103b260048036038101906103ad9190612337565b6108d2565b005b6103bc6108f4565b6040516103c99190612390565b60405180910390f35b6103da6108fc565b6040516103e791906120cb565b60405180910390f35b61040a60048036038101906104059190612337565b61090b565b005b610414610986565b005b610430600480360381019061042b91906121f8565b6109e0565b005b61044c600480360381019061044791906123a9565b610e10565b005b610456610e24565b604051610463919061209a565b60405180910390f35b61048660048036038101906104819190612435565b610e39565b005b6104a2600480360381019061049d9190612236565b610ec0565b6040516104af91906120cb565b60405180910390f35b6104d260048036038101906104cd91906121f8565b610f05565b005b6104dc61103f565b6040516104e991906120cb565b60405180910390f35b61050c600480360381019061050791906121f8565b61108d565b005b61052860048036038101906105239190612337565b6110ad565b604051610535919061209a565b60405180910390f35b610558600480360381019061055391906123a9565b611111565b60405161056591906120cb565b60405180910390f35b610576611126565b6040516105839190612154565b60405180910390f35b6105a660048036038101906105a191906123a9565b6111b6565b005b6105c260048036038101906105bd9190612236565b61125e565b6040516105cf91906120cb565b60405180910390f35b6105e0611339565b6040516105ed919061231e565b60405180910390f35b610610600480360381019061060b91906121f8565b61133f565b60405161061d919061209a565b60405180910390f35b610640600480360381019061063b9190612236565b611361565b005b61064a611421565b604051610657919061231e565b60405180910390f35b61067a60048036038101906106759190612337565b611445565b005b610684611467565b60405161069191906120cb565b60405180910390f35b6106b460048036038101906106af9190612480565b61146d565b6040516106c191906120cb565b60405180910390f35b6106d26114ef565b6040516106df919061231e565b60405180910390f35b61070260048036038101906106fd91906123a9565b611513565b60405161070f91906120cb565b60405180910390f35b5f7f7965db0b000000000000000000000000000000000000000000000000000000007bffffffffffffffffffffffffffffffffffffffffffffffffffffffff1916827bffffffffffffffffffffffffffffffffffffffffffffffffffffffff1916148061078a575061078982611528565b5b9050919050565b600c5481565b6060600380546107a6906124eb565b80601f01602080910402602001604051908101604052809291908181526020018280546107d2906124eb565b801561081d5780601f106107f45761010080835404028352916020019161081d565b820191905f5260205f20905b81548152906001019060200180831161080057829003601f168201915b5050505050905090565b5f5f610831611591565b905061083e818585611598565b600191505092915050565b5f600254905090565b600a602052805f5260405f205f915090505481565b5f5f610871611591565b905061087e8582856115aa565b61088985858561163d565b60019150509392505050565b5f60055f8381526020019081526020015f20600101549050919050565b600b602052815f5260405f20602052805f5260405f205f91509150505481565b6108db82610895565b6108e48161172d565b6108ee8383611741565b50505050565b5f6012905090565b6a52b7d2dcc80cd2e400000081565b610913611591565b73ffffffffffffffffffffffffffffffffffffffff168173ffffffffffffffffffffffffffffffffffffffff1614610977576040517f6697b23200000000000000000000000000000000000000000000000000000000815260040160405180910390fd5b610981828261182b565b505050565b5f5f1b6109928161172d565b61099a611915565b3373ffffffffffffffffffffffffffffffffffffffff167f306ca22c455fe433ebbf0542bbf947ea6a725495f9e1043db2a47e3c5794038560405160405180910390a250565b7f9f2df0fed2c77648de5860a4cc508cd0818c85b8b8a1ab4ceeef8d981c8956a6610a0a8161172d565b610a12611976565b610a1a6119bc565b5f73ffffffffffffffffffffffffffffffffffffffff168373ffffffffffffffffffffffffffffffffffffffff1603610a88576040517f08c379a0000000000000000000000000000000000000000000000000000000008152600401610a7f90612565565b60405180910390fd5b5f8211610aca576040517f08c379a0000000000000000000000000000000000000000000000000000000008152600401610ac1906125cd565b60405180910390fd5b6a52b7d2dcc80cd2e400000082610adf610849565b610ae99190612618565b1115610b2a576040517f08c379a0000000000000000000000000000000000000000000000000000000008152600401610b2190612695565b60405180910390fd5b5f6201518042610b3a91906126e0565b90506008548360095f8481526020019081526020015f2054610b5c9190612618565b1115610b9d576040517f08c379a0000000000000000000000000000000000000000000000000000000008152600401610b949061275a565b60405180910390fd5b5f600a5f3373ffffffffffffffffffffffffffffffffffffffff1673ffffffffffffffffffffffffffffffffffffffff1681526020019081526020015f205490505f811115610ce3578084600b5f3373ffffffffffffffffffffffffffffffffffffffff1673ffffffffffffffffffffffffffffffffffffffff1681526020019081526020015f205f8581526020019081526020015f2054610c3f9190612618565b1115610c80576040517f08c379a0000000000000000000000000000000000000000000000000000000008152600401610c77906127c2565b60405180910390fd5b83600b5f3373ffffffffffffffffffffffffffffffffffffffff1673ffffffffffffffffffffffffffffffffffffffff1681526020019081526020015f205f8481526020019081526020015f205f828254610cdb9190612618565b925050819055505b600c5484600d5f8581526020019081526020015f2054610d039190612618565b1115610d44576040517f08c379a0000000000000000000000000000000000000000000000000000000008152600401610d3b90612850565b60405180910390fd5b8360095f8481526020019081526020015f205f828254610d649190612618565b9250508190555083600d5f8481526020019081526020015f205f828254610d8b9190612618565b92505081905550610d9c85856119fd565b8473ffffffffffffffffffffffffffffffffffffffff165f73ffffffffffffffffffffffffffffffffffffffff167fddf252ad1be2c89b69c2b068fc378daa952ba7f163c4a11628f55a4df523b3ef86604051610df991906120cb565b60405180910390a35050610e0b611a7c565b505050565b610e21610e1b611591565b82611a86565b50565b5f60065f9054906101000a900460ff16905090565b7f65d7a28e3265b37a6474929f336521b332c1681b933f6cb9f3376673440d862a610e638161172d565b610e6b611b05565b3373ffffffffffffffffffffffffffffffffffffffff167fc50068396f19981cb0435611d2c97dde7b6882fdc3185a9fb8080fa756b3974d8484604051610eb39291906128a8565b60405180910390a2505050565b5f5f5f8373ffffffffffffffffffffffffffffffffffffffff1673ffffffffffffffffffffffffffffffffffffffff1681526020019081526020015f20549050919050565b5f5f1b610f118161172d565b5f73ffffffffffffffffffffffffffffffffffffffff168373ffffffffffffffffffffffffffffffffffffffff1603610f7f576040517f08c379a0000000000000000000000000000000000000000000000000000000008152600401610f7690612914565b60405180910390fd5b610fa97f9f2df0fed2c77648de5860a4cc508cd0818c85b8b8a1ab4ceeef8d981c8956a684611741565b5081600a5f8573ffffffffffffffffffffffffffffffffffffffff1673ffffffffffffffffffffffffffffffffffffffff1681526020019081526020015f20819055508273ffffffffffffffffffffffffffffffffffffffff167fdf4c1b61e182ddb110028dd73c55a897f76aebf25c86eb252f960f1ce67ce8398360405161103291906120cb565b60405180910390a2505050565b5f5f620151804261105091906126e0565b90505f60095f8381526020019081526020015f20549050600854811015611084578060085461107f9190612932565b611086565b5f5b9250505090565b61109f82611099611591565b836115aa565b6110a98282611a86565b5050565b5f60055f8481526020019081526020015f205f015f8373ffffffffffffffffffffffffffffffffffffffff1673ffffffffffffffffffffffffffffffffffffffff1681526020019081526020015f205f9054906101000a900460ff16905092915050565b600d602052805f5260405f205f915090505481565b606060048054611135906124eb565b80601f0160208091040260200160405190810160405280929190818152602001828054611161906124eb565b80156111ac5780601f10611183576101008083540402835291602001916111ac565b820191905f5260205f20905b81548152906001019060200180831161118f57829003601f168201915b5050505050905090565b5f5f1b6111c28161172d565b600a6a52b7d2dcc80cd2e40000006111da91906126e0565b82111561121c576040517f08c379a0000000000000000000000000000000000000000000000000000000008152600401611213906129af565b60405180910390fd5b816008819055507f8925eb7e33342c248e8380fb70e3f497217013b0fd9bfca496b50b77bc90a01f8260405161125291906120cb565b60405180910390a15050565b5f5f620151804261126f91906126e0565b90505f600a5f8573ffffffffffffffffffffffffffffffffffffffff1673ffffffffffffffffffffffffffffffffffffffff1681526020019081526020015f205490505f81036112c3575f92505050611334565b5f600b5f8673ffffffffffffffffffffffffffffffffffffffff1673ffffffffffffffffffffffffffffffffffffffff1681526020019081526020015f205f8481526020019081526020015f205490508181101561132c5780826113279190612932565b61132e565b5f5b93505050505b919050565b5f5f1b81565b5f5f611349611591565b905061135681858561163d565b600191505092915050565b5f5f1b61136d8161172d565b6113977f9f2df0fed2c77648de5860a4cc508cd0818c85b8b8a1ab4ceeef8d981c8956a68361182b565b505f600a5f8473ffffffffffffffffffffffffffffffffffffffff1673ffffffffffffffffffffffffffffffffffffffff1681526020019081526020015f20819055508173ffffffffffffffffffffffffffffffffffffffff167f44f4322f8daa225d5f4877ad0f7d3dfba248a774396f3ca99405ed40a044fe8160405160405180910390a25050565b7f9f2df0fed2c77648de5860a4cc508cd0818c85b8b8a1ab4ceeef8d981c8956a681565b61144e82610895565b6114578161172d565b611461838361182b565b50505050565b60085481565b5f60015f8473ffffffffffffffffffffffffffffffffffffffff1673ffffffffffffffffffffffffffffffffffffffff1681526020019081526020015f205f8373ffffffffffffffffffffffffffffffffffffffff1673ffffffffffffffffffffffffffffffffffffffff1681526020019081526020015f2054905092915050565b7f65d7a28e3265b37a6474929f336521b332c1681b933f6cb9f3376673440d862a81565b6009602052805f5260405f205f915090505481565b5f7f01ffc9a7000000000000000000000000000000000000000000000000000000007bffffffffffffffffffffffffffffffffffffffffffffffffffffffff1916827bffffffffffffffffffffffffffffffffffffffffffffffffffffffff1916149050919050565b5f33905090565b6115a58383836001611b67565b505050565b5f6115b5848461146d565b90507fffffffffffffffffffffffffffffffffffffffffffffffffffffffffffffffff8110156116375781811015611628578281836040517ffb8f41b200000000000000000000000000000000000000000000000000000000815260040161161f939291906129dc565b60405180910390fd5b61163684848484035f611b67565b5b50505050565b5f73ffffffffffffffffffffffffffffffffffffffff168373ffffffffffffffffffffffffffffffffffffffff16036116ad575f6040517f96c6fd1e0000000000000000000000000000000000000000000000000000000081526004016116a49190612a11565b60405180910390fd5b5f73ffffffffffffffffffffffffffffffffffffffff168273ffffffffffffffffffffffffffffffffffffffff160361171d575f6040517fec442f050000000000000000000000000000000000000000000000000000000081526004016117149190612a11565b60405180910390fd5b611728838383611d36565b505050565b61173e81611739611591565b611d4e565b50565b5f61174c83836110ad565b61182157600160055f8581526020019081526020015f205f015f8473ffffffffffffffffffffffffffffffffffffffff1673ffffffffffffffffffffffffffffffffffffffff1681526020019081526020015f205f6101000a81548160ff0219169083151502179055506117be611591565b73ffffffffffffffffffffffffffffffffffffffff168273ffffffffffffffffffffffffffffffffffffffff16847f2f8788117e7eff1d82e926ec794901d17c78024a50270940304540a733656f0d60405160405180910390a460019050611825565b5f90505b92915050565b5f61183683836110ad565b1561190b575f60055f8581526020019081526020015f205f015f8473ffffffffffffffffffffffffffffffffffffffff1673ffffffffffffffffffffffffffffffffffffffff1681526020019081526020015f205f6101000a81548160ff0219169083151502179055506118a8611591565b73ffffffffffffffffffffffffffffffffffffffff168273ffffffffffffffffffffffffffffffffffffffff16847ff6391f5c32d9c69d2a47ea670b442974b53935d1edc7fd64eb21e047a839171b60405160405180910390a46001905061190f565b5f90505b92915050565b61191d611d9f565b5f60065f6101000a81548160ff0219169083151502179055507f5db9ee0a495bf2e6ff9c91a7834c1ba4fdd244a5e8aa4e537bd38aeae4b073aa61195f611591565b60405161196c9190612a11565b60405180910390a1565b6002600754036119b2576040517f3ee5aeb500000000000000000000000000000000000000000000000000000000815260040160405180910390fd5b6002600781905550565b6119c4610e24565b156119fb576040517fd93c066500000000000000000000000000000000000000000000000000000000815260040160405180910390fd5b565b5f73ffffffffffffffffffffffffffffffffffffffff168273ffffffffffffffffffffffffffffffffffffffff1603611a6d575f6040517fec442f05000000000000000000000000000000000000000000000000000000008152600401611a649190612a11565b60405180910390fd5b611a785f8383611d36565b5050565b6001600781905550565b5f73ffffffffffffffffffffffffffffffffffffffff168273ffffffffffffffffffffffffffffffffffffffff1603611af6575f6040517f96c6fd1e000000000000000000000000000000000000000000000000000000008152600401611aed9190612a11565b60405180910390fd5b611b01825f83611d36565b5050565b611b0d6119bc565b600160065f6101000a81548160ff0219169083151502179055507f62e78cea01bee320cd4e420270b5ea74000d11b0c9f74754ebdbfc544b05a258611b50611591565b604051611b5d9190612a11565b60405180910390a1565b5f73ffffffffffffffffffffffffffffffffffffffff168473ffffffffffffffffffffffffffffffffffffffff1603611bd7575f6040517fe602df05000000000000000000000000000000000000000000000000000000008152600401611bce9190612a11565b60405180910390fd5b5f73ffffffffffffffffffffffffffffffffffffffff168373ffffffffffffffffffffffffffffffffffffffff1603611c47575f6040517f94280d62000000000000000000000000000000000000000000000000000000008152600401611c3e9190612a11565b60405180910390fd5b8160015f8673ffffffffffffffffffffffffffffffffffffffff1673ffffffffffffffffffffffffffffffffffffffff1681526020019081526020015f205f8573ffffffffffffffffffffffffffffffffffffffff1673ffffffffffffffffffffffffffffffffffffffff1681526020019081526020015f20819055508015611d30578273ffffffffffffffffffffffffffffffffffffffff168473ffffffffffffffffffffffffffffffffffffffff167f8c5be1e5ebec7d5bd14f71427d1e84f3dd0314c0f7b2291e5b200ac8c7c3b92584604051611d2791906120cb565b60405180910390a35b50505050565b611d3e6119bc565b611d49838383611ddf565b505050565b611d5882826110ad565b611d9b5780826040517fe2517d3f000000000000000000000000000000000000000000000000000000008152600401611d92929190612a2a565b60405180910390fd5b5050565b611da7610e24565b611ddd576040517f8dfc202b00000000000000000000000000000000000000000000000000000000815260040160405180910390fd5b565b5f73ffffffffffffffffffffffffffffffffffffffff168373ffffffffffffffffffffffffffffffffffffffff1603611e2f578060025f828254611e239190612618565b92505081905550611efd565b5f5f5f8573ffffffffffffffffffffffffffffffffffffffff1673ffffffffffffffffffffffffffffffffffffffff1681526020019081526020015f2054905081811015611eb8578381836040517fe450d38c000000000000000000000000000000000000000000000000000000008152600401611eaf939291906129dc565b60405180910390fd5b8181035f5f8673ffffffffffffffffffffffffffffffffffffffff1673ffffffffffffffffffffffffffffffffffffffff1681526020019081526020015f2081905550505b5f73ffffffffffffffffffffffffffffffffffffffff168273ffffffffffffffffffffffffffffffffffffffff1603611f44578060025f8282540392505081905550611f8e565b805f5f8473ffffffffffffffffffffffffffffffffffffffff1673ffffffffffffffffffffffffffffffffffffffff1681526020019081526020015f205f82825401925050819055505b8173ffffffffffffffffffffffffffffffffffffffff168373ffffffffffffffffffffffffffffffffffffffff167fddf252ad1be2c89b69c2b068fc378daa952ba7f163c4a11628f55a4df523b3ef83604051611feb91906120cb565b60405180910390a3505050565b5f5ffd5b5f5ffd5b5f7fffffffff0000000000000000000000000000000000000000000000000000000082169050919050565b61203481612000565b811461203e575f5ffd5b50565b5f8135905061204f8161202b565b92915050565b5f6020828403121561206a57612069611ff8565b5b5f61207784828501612041565b91505092915050565b5f8115159050919050565b61209481612080565b82525050565b5f6020820190506120ad5f83018461208b565b92915050565b5f819050919050565b6120c5816120b3565b82525050565b5f6020820190506120de5f8301846120bc565b92915050565b5f81519050919050565b5f82825260208201905092915050565b8281835e5f83830152505050565b5f601f19601f8301169050919050565b5f612126826120e4565b61213081856120ee565b93506121408185602086016120fe565b6121498161210c565b840191505092915050565b5f6020820190508181035f83015261216c818461211c565b905092915050565b5f73ffffffffffffffffffffffffffffffffffffffff82169050919050565b5f61219d82612174565b9050919050565b6121ad81612193565b81146121b7575f5ffd5b50565b5f813590506121c8816121a4565b92915050565b6121d7816120b3565b81146121e1575f5ffd5b50565b5f813590506121f2816121ce565b92915050565b5f5f6040838503121561220e5761220d611ff8565b5b5f61221b858286016121ba565b925050602061222c858286016121e4565b9150509250929050565b5f6020828403121561224b5761224a611ff8565b5b5f612258848285016121ba565b91505092915050565b5f5f5f6060848603121561227857612277611ff8565b5b5f612285868287016121ba565b9350506020612296868287016121ba565b92505060406122a7868287016121e4565b9150509250925092565b5f819050919050565b6122c3816122b1565b81146122cd575f5ffd5b50565b5f813590506122de816122ba565b92915050565b5f602082840312156122f9576122f8611ff8565b5b5f612306848285016122d0565b91505092915050565b612318816122b1565b82525050565b5f6020820190506123315f83018461230f565b92915050565b5f5f6040838503121561234d5761234c611ff8565b5b5f61235a858286016122d0565b925050602061236b858286016121ba565b9150509250929050565b5f60ff82169050919050565b61238a81612375565b82525050565b5f6020820190506123a35f830184612381565b92915050565b5f602082840312156123be576123bd611ff8565b5b5f6123cb848285016121e4565b91505092915050565b5f5ffd5b5f5ffd5b5f5ffd5b5f5f83601f8401126123f5576123f46123d4565b5b8235905067ffffffffffffffff811115612412576124116123d8565b5b60208301915083600182028301111561242e5761242d6123dc565b5b9250929050565b5f5f6020838503121561244b5761244a611ff8565b5b5f83013567ffffffffffffffff81111561246857612467611ffc565b5b612474858286016123e0565b92509250509250929050565b5f5f6040838503121561249657612495611ff8565b5b5f6124a3858286016121ba565b92505060206124b4858286016121ba565b9150509250929050565b7f4e487b71000000000000000000000000000000000000000000000000000000005f52602260045260245ffd5b5f600282049050600182168061250257607f821691505b602082108103612515576125146124be565b5b50919050565b7f496e76616c696420726563697069656e740000000000000000000000000000005f82015250565b5f61254f6011836120ee565b915061255a8261251b565b602082019050919050565b5f6020820190508181035f83015261257c81612543565b9050919050565b7f416d6f756e74206d757374206265203e203000000000000000000000000000005f82015250565b5f6125b76012836120ee565b91506125c282612583565b602082019050919050565b5f6020820190508181035f8301526125e4816125ab565b9050919050565b7f4e487b71000000000000000000000000000000000000000000000000000000005f52601160045260245ffd5b5f612622826120b3565b915061262d836120b3565b9250828201905080821115612645576126446125eb565b5b92915050565b7f45786365656473206d617820737570706c7900000000000000000000000000005f82015250565b5f61267f6012836120ee565b915061268a8261264b565b602082019050919050565b5f6020820190508181035f8301526126ac81612673565b9050919050565b7f4e487b71000000000000000000000000000000000000000000000000000000005f52601260045260245ffd5b5f6126ea826120b3565b91506126f5836120b3565b925082612705576127046126b3565b5b828204905092915050565b7f4461696c7920656d697373696f6e2063617020657863656564656400000000005f82015250565b5f612744601b836120ee565b915061274f82612710565b602082019050919050565b5f6020820190508181035f83015261277181612738565b9050919050565b7f4d696e746572206461696c79206c696d697420657863656564656400000000005f82015250565b5f6127ac601b836120ee565b91506127b782612778565b602082019050919050565b5f6020820190508181035f8301526127d9816127a0565b9050919050565b7f4369726375697420627265616b65723a206461696c7920766f6c756d65206c695f8201527f6d69742065786365656465640000000000000000000000000000000000000000602082015250565b5f61283a602c836120ee565b9150612845826127e0565b604082019050919050565b5f6020820190508181035f8301526128678161282e565b9050919050565b828183375f83830152505050565b5f61288783856120ee565b935061289483858461286e565b61289d8361210c565b840190509392505050565b5f6020820190508181035f8301526128c181848661287c565b90509392505050565b7f496e76616c6964206d696e7465720000000000000000000000000000000000005f82015250565b5f6128fe600e836120ee565b9150612909826128ca565b602082019050919050565b5f6020820190508181035f83015261292b816128f2565b9050919050565b5f61293c826120b3565b9150612947836120b3565b925082820390508181111561295f5761295e6125eb565b5b92915050565b7f43617020746f6f206869676800000000000000000000000000000000000000005f82015250565b5f612999600c836120ee565b91506129a482612965565b602082019050919050565b5f6020820190508181035f8301526129c68161298d565b9050919050565b6129d681612193565b82525050565b5f6060820190506129ef5f8301866129cd565b6129fc60208301856120bc565b612a0960408301846120bc565b949350505050565b5f602082019050612a245f8301846129cd565b92915050565b5f604082019050612a3d5f8301856129cd565b612a4a602083018461230f565b939250505056fea2646970667358221220cba3f4de42e259c80838d48ccd956876947d37c0a787b3deb0bed6be7dc0daf364736f6c634300081c0033","linkReferences":{}},"methodIdentifiers":{"DEFAULT_ADMIN_ROLE()":"a217fddf","MAX_SUPPLY()":"32cb6b0c","MINTER_ROLE()":"d5391393","PAUSER_ROLE()":"e63ab1e9","allowance(address,address)":"dd62ed3e","approve(address,uint256)":"095ea7b3","authorizeMinter(address,uint256)":"72e47557","balanceOf(address)":"70a08231","burn(uint256)":"42966c68","burnFrom(address,uint256)":"79cc6790","dailyEmissionCap()":"d6d070c3","dailyEmissions(uint256)":"f37602e3","dailyVolume(uint256)":"943ca3b9","dailyVolumeLimit()":"0217626c","decimals()":"313ce567","getMinterRemainingCapacity(address)":"9e832c84","getRemainingDailyCapacity()":"7819e2e5","getRoleAdmin(bytes32)":"248a9ca3","grantRole(bytes32,address)":"2f2ff15d","hasRole(bytes32,address)":"91d14854","mint(address,uint256)":"40c10f19","minterDailyLimit(address)":"18b67498","minterDailyMinted(address,uint256)":"27e5c54b","name()":"06fdde03","pause(string)":"6da66355","paused()":"5c975abb","renounceRole(bytes32,address)":"36568abe","revokeMinter(address)":"cfbd4885","revokeRole(bytes32,address)":"d547741f","supportsInterface(bytes4)":"01ffc9a7","symbol()":"95d89b41","totalSupply()":"18160ddd","transfer(address,uint256)":"a9059cbb","transferFrom(address,address,uint256)":"23b872dd","unpause()":"3f4ba83a","updateDailyCap(uint256)":"9e5b35d5"},"id":58}