{"abi":[{"type":"constructor","inputs":[{"name":"baseURI","type":"string","internalType":"string"}],"stateMutability":"nonpayable"},{"type":"function","name":"DEFAULT_ADMIN_ROLE","inputs":[],"outputs":[{"name":"","type":"bytes32","internalType":"bytes32"}],"stateMutability":"view"},{"type":"function","name":"MAX_SUPPLY","inputs":[],"outputs":[{"name":"","type":"uint256","internalType":"uint256"}],"stateMutability":"view"},{"type":"function","name":"MINTER_ROLE","inputs":[],"outputs":[{"name":"","type":"bytes32","internalType":"bytes32"}],"stateMutability":"view"},{"type":"function","name":"PAUSER_ROLE","inputs":[],"outputs":[{"name":"","type":"bytes32","internalType":"bytes32"}],"stateMutability":"view"},{"type":"function","name":"approve","inputs":[{"name":"to","type":"address","internalType":"address"},{"name":"tokenId","type":"uint256","internalType":"uint256"}],"outputs":[],"stateMutability":"nonpayable"},{"type":"function","name":"authorizeMinter","inputs":[{"name":"minter","type":"address","internalType":"address"},{"name":"dailyLimit","type":"uint256","internalType":"uint256"}],"outputs":[],"stateMutability":"nonpayable"},{"type":"function","name":"balanceOf","inputs":[{"name":"owner","type":"address","internalType":"address"}],"outputs":[{"name":"","type":"uint256","internalType":"uint256"}],"stateMutability":"view"},{"type":"function","name":"characters","inputs":[{"name":"","type":"uint256","internalType":"uint256"}],"outputs":[{"name":"gameCharacterId","type":"uint256","internalType":"uint256"},{"name":"characterType","type":"string","internalType":"string"},{"name":"element","type":"string","internalType":"string"},{"name":"rarity","type":"string","internalType":"string"},{"name":"level","type":"uint256","internalType":"uint256"},{"name":"mintedAt","type":"uint256","internalType":"uint256"}],"stateMutability":"view"},{"type":"function","name":"getApproved","inputs":[{"name":"tokenId","type":"uint256","internalType":"uint256"}],"outputs":[{"name":"","type":"address","internalType":"address"}],"stateMutability":"view"},{"type":"function","name":"getCharacterData","inputs":[{"name":"tokenId","type":"uint256","internalType":"uint256"}],"outputs":[{"name":"","type":"tuple","internalType":"struct CharacterNFT.CharacterData","components":[{"name":"gameCharacterId","type":"uint256","internalType":"uint256"},{"name":"characterType","type":"string","internalType":"string"},{"name":"element","type":"string","internalType":"string"},{"name":"rarity","type":"string","internalType":"string"},{"name":"level","type":"uint256","internalType":"uint256"},{"name":"mintedAt","type":"uint256","internalType":"uint256"}]}],"stateMutability":"view"},{"type":"function","name":"getRoleAdmin","inputs":[{"name":"role","type":"bytes32","internalType":"bytes32"}],"outputs":[{"name":"","type":"bytes32","internalType":"bytes32"}],"stateMutability":"view"},{"type":"function","name":"grantRole","inputs":[{"name":"role","type":"bytes32","internalType":"bytes32"},{"name":"account","type":"address","internalType":"address"}],"outputs":[],"stateMutability":"nonpayable"},{"type":"function","name":"hasRole","inputs":[{"name":"role","type":"bytes32","internalType":"bytes32"},{"name":"account","type":"address","internalType":"address"}],"outputs":[{"name":"","type":"bool","internalType":"bool"}],"stateMutability":"view"},{"type":"function","name":"isApprovedForAll","inputs":[{"name":"owner","type":"address","internalType":"address"},{"name":"operator","type":"address","internalType":"address"}],"outputs":[{"name":"","type":"bool","internalType":"bool"}],"stateMutability":"view"},{"type":"function","name":"mintCharacter","inputs":[{"name":"to","type":"address","internalType":"address"},{"name":"gameCharacterId","type":"uint256","internalType":"uint256"},{"name":"characterType","type":"string","internalType":"string"},{"name":"element","type":"string","internalType":"string"},{"name":"rarity","type":"string","internalType":"string"},{"name":"level","type":"uint256","internalType":"uint256"},{"name":"tokenURI","type":"string","internalType":"string"}],"outputs":[{"name":"","type":"uint256","internalType":"uint256"}],"stateMutability":"nonpayable"},{"type":"function","name":"minterDailyLimit","inputs":[{"name":"","type":"address","internalType":"address"}],"outputs":[{"name":"","type":"uint256","internalType":"uint256"}],"stateMutability":"view"},{"type":"function","name":"minterDailyMinted","inputs":[{"name":"","type":"address","internalType":"address"},{"name":"","type":"uint256","internalType":"uint256"}],"outputs":[{"name":"","type":"uint256","internalType":"uint256"}],"stateMutability":"view"},{"type":"function","name":"name","inputs":[],"outputs":[{"name":"","type":"string","internalType":"string"}],"stateMutability":"view"},{"type":"function","name":"ownerOf","inputs":[{"name":"tokenId","type":"uint256","internalType":"uint256"}],"outputs":[{"name":"","type":"address","internalType":"address"}],"stateMutability":"view"},{"type":"function","name":"pause","inputs":[{"name":"reason","type":"string","internalType":"string"}],"outputs":[],"stateMutability":"nonpayable"},{"type":"function","name":"paused","inputs":[],"outputs":[{"name":"","type":"bool","internalType":"bool"}],"stateMutability":"view"},{"type":"function","name":"renounceRole","inputs":[{"name":"role","type":"bytes32","internalType":"bytes32"},{"name":"callerConfirmation","type":"address","internalType":"address"}],"outputs":[],"stateMutability":"nonpayable"},{"type":"function","name":"revokeMinter","inputs":[{"name":"minter","type":"address","internalType":"address"}],"outputs":[],"stateMutability":"nonpayable"},{"type":"function","name":"revokeRole","inputs":[{"name":"role","type":"bytes32","internalType":"bytes32"},{"name":"account","type":"address","internalType":"address"}],"outputs":[],"stateMutability":"nonpayable"},{"type":"function","name":"royaltyInfo","inputs":[{"name":"tokenId","type":"uint256","internalType":"uint256"},{"name":"salePrice","type":"uint256","internalType":"uint256"}],"outputs":[{"name":"receiver","type":"address","internalType":"address"},{"name":"amount","type":"uint256","internalType":"uint256"}],"stateMutability":"view"},{"type":"function","name":"safeTransferFrom","inputs":[{"name":"from","type":"address","internalType":"address"},{"name":"to","type":"address","internalType":"address"},{"name":"tokenId","type":"uint256","internalType":"uint256"}],"outputs":[],"stateMutability":"nonpayable"},{"type":"function","name":"safeTransferFrom","inputs":[{"name":"from","type":"address","internalType":"address"},{"name":"to","type":"address","internalType":"address"},{"name":"tokenId","type":"uint256","internalType":"uint256"},{"name":"data","type":"bytes","internalType":"bytes"}],"outputs":[],"stateMutability":"nonpayable"},{"type":"function","name":"setApprovalForAll","inputs":[{"name":"operator","type":"address","internalType":"address"},{"name":"approved","type":"bool","internalType":"bool"}],"outputs":[],"stateMutability":"nonpayable"},{"type":"function","name":"setBaseURI","inputs":[{"name":"baseURI","type":"string","internalType":"string"}],"outputs":[],"stateMutability":"nonpayable"},{"type":"function","name":"setDefaultRoyalty","inputs":[{"name":"receiver","type":"address","internalType":"address"},{"name":"feeNumerator","type":"uint96","internalType":"uint96"}],"outputs":[],"stateMutability":"nonpayable"},{"type":"function","name":"supportsInterface","inputs":[{"name":"interfaceId","type":"bytes4","internalType":"bytes4"}],"outputs":[{"name":"","type":"bool","internalType":"bool"}],"stateMutability":"view"},{"type":"function","name":"symbol","inputs":[],"outputs":[{"name":"","type":"string","internalType":"string"}],"stateMutability":"view"},{"type":"function","name":"tokenByIndex","inputs":[{"name":"index","type":"uint256","internalType":"uint256"}],"outputs":[{"name":"","type":"uint256","internalType":"uint256"}],"stateMutability":"view"},{"type":"function","name":"tokenOfOwnerByIndex","inputs":[{"name":"owner","type":"address","internalType":"address"},{"name":"index","type":"uint256","internalType":"uint256"}],"outputs":[{"name":"","type":"uint256","internalType":"uint256"}],"stateMutability":"view"},{"type":"function","name":"tokenURI","inputs":[{"name":"tokenId","type":"uint256","internalType":"uint256"}],"outputs":[{"name":"","type":"string","internalType":"string"}],"stateMutability":"view"},{"type":"function","name":"tokensOfOwner","inputs":[{"name":"owner","type":"address","internalType":"address"}],"outputs":[{"name":"","type":"uint256[]","internalType":"uint256[]"}],"stateMutability":"view"},{"type":"function","name":"totalSupply","inputs":[],"outputs":[{"name":"","type":"uint256","internalType":"uint256"}],"stateMutability":"view"},{"type":"function","name":"transferFrom","inputs":[{"name":"from","type":"address","internalType":"address"},{"name":"to","type":"address","internalType":"address"},{"name":"tokenId","type":"uint256","internalType":"uint256"}],"outputs":[],"stateMutability":"nonpayable"},{"type":"function","name":"unpause","inputs":[],"outputs":[],"stateMutability":"nonpayable"},{"type":"event","name":"Approval","inputs":[{"name":"owner","type":"address","indexed":true,"internalType":"address"},{"name":"approved","type":"address","indexed":true,"internalType":"address"},{"name":"tokenId","type":"uint256","indexed":true,"internalType":"uint256"}],"anonymous":false},{"type":"event","name":"ApprovalForAll","inputs":[{"name":"owner","type":"address","indexed":true,"internalType":"address"},{"name":"operator","type":"address","indexed":true,"internalType":"address"},{"name":"approved","type":"bool","indexed":false,"internalType":"bool"}],"anonymous":false},{"type":"event","name":"BaseURIUpdated","inputs":[{"name":"newBaseURI","type":"string","indexed":false,"internalType":"string"}],"anonymous":false},{"type":"event","name":"BatchMetadataUpdate","inputs":[{"name":"_fromTokenId","type":"uint256","indexed":false,"internalType":"uint256"},{"name":"_toTokenId","type":"uint256","indexed":false,"internalType":"uint256"}],"anonymous":false},{"type":"event","name":"CharacterMinted","inputs":[{"name":"tokenId","type":"uint256","indexed":true,"internalType":"uint256"},{"name":"owner","type":"address","indexed":true,"internalType":"address"},{"name":"gameCharacterId","type":"uint256","indexed":false,"internalType":"uint256"},{"name":"characterType","type":"string","indexed":false,"internalType":"string"},{"name":"rarity","type":"string","indexed":false,"internalType":"string"}],"anonymous":false},{"type":"event","name":"EmergencyPause","inputs":[{"name":"by","type":"address","indexed":true,"internalType":"address"},{"name":"reason","type":"string","indexed":false,"internalType":"string"}],"anonymous":false},{"type":"event","name":"MetadataUpdate","inputs":[{"name":"_tokenId","type":"uint256","indexed":false,"internalType":"uint256"}],"anonymous":false},{"type":"event","name":"MinterAuthorized","inputs":[{"name":"minter","type":"address","indexed":true,"internalType":"address"},{"name":"dailyLimit","type":"uint256","indexed":false,"internalType":"uint256"}],"anonymous":false},{"type":"event","name":"MinterRevoked","inputs":[{"name":"minter","type":"address","indexed":true,"internalType":"address"}],"anonymous":false},{"type":"event","name":"Paused","inputs":[{"name":"account","type":"address","indexed":false,"internalType":"address"}],"anonymous":false},{"type":"event","name":"RoleAdminChanged","inputs":[{"name":"role","type":"bytes32","indexed":true,"internalType":"bytes32"},{"name":"previousAdminRole","type":"bytes32","indexed":true,"internalType":"bytes32"},{"name":"newAdminRole","type":"bytes32","indexed":true,"internalType":"bytes32"}],"anonymous":false},{"type":"event","name":"RoleGranted","inputs":[{"name":"role","type":"bytes32","indexed":true,"internalType":"bytes32"},{"name":"account","type":"address","indexed":true,"internalType":"address"},{"name":"sender","type":"address","indexed":true,"internalType":"address"}],"anonymous":false},{"type":"event","name":"RoleRevoked","inputs":[{"name":"role","type":"bytes32","indexed":true,"internalType":"bytes32"},{"name":"account","type":"address","indexed":true,"internalType":"address"},{"name":"sender","type":"address","indexed":true,"internalType":"address"}],"anonymous":false},{"type":"event","name":"RoyaltyUpdated","inputs":[{"name":"receiver","type":"address","indexed":true,"internalType":"address"},{"name":"feeNumerator","type":"uint96","indexed":false,"internalType":"uint96"}],"anonymous":false},{"type":"event","name":"Transfer","inputs":[{"name":"from","type":"address","indexed":true,"internalType":"address"},{"name":"to","type":"address","indexed":true,"internalType":"address"},{"name":"tokenId","type":"uint256","indexed":true,"internalType":"uint256"}],"anonymous":false},{"type":"event","name":"Unpaused","inputs":[{"name":"account","type":"address","indexed":false,"internalType":"address"}],"anonymous":false},{"type":"error","name":"AccessControlBadConfirmation","inputs":[]},{"type":"error","name":"AccessControlUnauthorizedAccount","inputs":[{"name":"account","type":"address","internalType":"address"},{"name":"neededRole","type":"bytes32","internalType":"bytes32"}]},{"type":"error","name":"ERC2981InvalidDefaultRoyalty","inputs":[{"name":"numerator","type":"uint256","internalType":"uint256"},{"name":"denominator","type":"uint256","internalType":"uint256"}]},{"type":"error","name":"ERC2981InvalidDefaultRoyaltyReceiver","inputs":[{"name":"receiver","type":"address","internalType":"address"}]},{"type":"error","name":"ERC2981InvalidTokenRoyalty","inputs":[{"name":"tokenId","type":"uint256","internalType":"uint256"},{"name":"numerator","type":"uint256","internalType":"uint256"},{"name":"denominator","type":"uint256","internalType":"uint256"}]},{"type":"error","name":"ERC2981InvalidTokenRoyaltyReceiver","inputs":[{"name":"tokenId","type":"uint256","internalType":"uint256"},{"name":"receiver","type":"address","internalType":"address"}]},{"type":"error","name":"ERC721EnumerableForbiddenBatchMint","inputs":[]},{"type":"error","name":"ERC721IncorrectOwner","inputs":[{"name":"sender","type":"address","internalType":"address"},{"name":"tokenId","type":"uint256","internalType":"uint256"},{"name":"owner","type":"address","internalType":"address"}]},{"type":"error","name":"ERC721InsufficientApproval","inputs":[{"name":"operator","type":"address","internalType":"address"},{"name":"tokenId","type":"uint256","internalType":"uint256"}]},{"type":"error","name":"ERC721InvalidApprover","inputs":[{"name":"approver","type":"address","internalType":"address"}]},{"type":"error","name":"ERC721InvalidOperator","inputs":[{"name":"operator","type":"address","internalType":"address"}]},{"type":"error","name":"ERC721InvalidOwner","inputs":[{"name":"owner","type":"address","internalType":"address"}]},{"type":"error","name":"ERC721InvalidReceiver","inputs":[{"name":"receiver","type":"address","internalType":"address"}]},{"type":"error","name":"ERC721InvalidSender","inputs":[{"name":"sender","type":"address","internalType":"address"}]},{"type":"error","name":"ERC721NonexistentToken","inputs":[{"name":"tokenId","type":"uint256","internalType":"uint256"}]},{"type":"error","name":"ERC721OutOfBoundsIndex","inputs":[{"name":"owner","type":"address","internalType":"address"},{"name":"index","type":"uint256","internalType":"uint256"}]},{"type":"error","name":"EnforcedPause","inputs":[]},{"type":"error","name":"ExpectedPause","inputs":[]},{"type":"error","name":"ReentrancyGuardReentrantCall","inputs":[]}],"bytecode":{"object":"0x608060405234801561000f575f5ffd5b5060405161575a38038061575a83398181016040528101906100319190610589565b6040518060400160405280601381526020017f43727970746f20544420436861726163746572000000000000000000000000008152506040518060400160405280600481526020017f4354444300000000000000000000000000000000000000000000000000000000815250815f90816100ab91906107e0565b5080600190816100bb91906107e0565b5050506001600f8190555080601490816100d591906107e0565b506100e85f5f1b3361013160201b60201c565b506101197f65d7a28e3265b37a6474929f336521b332c1681b933f6cb9f3376673440d862a3361013160201b60201c565b5061012b3360fa61022760201b60201c565b50610984565b5f61014283836103c860201b60201c565b61021d576001600d5f8581526020019081526020015f205f015f8473ffffffffffffffffffffffffffffffffffffffff1673ffffffffffffffffffffffffffffffffffffffff1681526020019081526020015f205f6101000a81548160ff0219169083151502179055506101ba61042c60201b60201c565b73ffffffffffffffffffffffffffffffffffffffff168273ffffffffffffffffffffffffffffffffffffffff16847f2f8788117e7eff1d82e926ec794901d17c78024a50270940304540a733656f0d60405160405180910390a460019050610221565b5f90505b92915050565b5f61023661043360201b60201c565b6bffffffffffffffffffffffff16905080826bffffffffffffffffffffffff16111561029b5781816040517f6f483d09000000000000000000000000000000000000000000000000000000008152600401610292929190610905565b60405180910390fd5b5f73ffffffffffffffffffffffffffffffffffffffff168373ffffffffffffffffffffffffffffffffffffffff160361030b575f6040517fb6d9900a000000000000000000000000000000000000000000000000000000008152600401610302919061096b565b60405180910390fd5b60405180604001604052808473ffffffffffffffffffffffffffffffffffffffff168152602001836bffffffffffffffffffffffff16815250600b5f820151815f015f6101000a81548173ffffffffffffffffffffffffffffffffffffffff021916908373ffffffffffffffffffffffffffffffffffffffff1602179055506020820151815f0160146101000a8154816bffffffffffffffffffffffff02191690836bffffffffffffffffffffffff160217905550905050505050565b5f600d5f8481526020019081526020015f205f015f8373ffffffffffffffffffffffffffffffffffffffff1673ffffffffffffffffffffffffffffffffffffffff1681526020019081526020015f205f9054906101000a900460ff16905092915050565b5f33905090565b5f612710905090565b5f604051905090565b5f5ffd5b5f5ffd5b5f5ffd5b5f5ffd5b5f601f19601f8301169050919050565b7f4e487b71000000000000000000000000000000000000000000000000000000005f52604160045260245ffd5b61049b82610455565b810181811067ffffffffffffffff821117156104ba576104b9610465565b5b80604052505050565b5f6104cc61043c565b90506104d88282610492565b919050565b5f67ffffffffffffffff8211156104f7576104f6610465565b5b61050082610455565b9050602081019050919050565b8281835e5f83830152505050565b5f61052d610528846104dd565b6104c3565b90508281526020810184848401111561054957610548610451565b5b61055484828561050d565b509392505050565b5f82601f8301126105705761056f61044d565b5b815161058084826020860161051b565b91505092915050565b5f6020828403121561059e5761059d610445565b5b5f82015167ffffffffffffffff8111156105bb576105ba610449565b5b6105c78482850161055c565b91505092915050565b5f81519050919050565b7f4e487b71000000000000000000000000000000000000000000000000000000005f52602260045260245ffd5b5f600282049050600182168061061e57607f821691505b602082108103610631576106306105da565b5b50919050565b5f819050815f5260205f209050919050565b5f6020601f8301049050919050565b5f82821b905092915050565b5f600883026106937fffffffffffffffffffffffffffffffffffffffffffffffffffffffffffffffff82610658565b61069d8683610658565b95508019841693508086168417925050509392505050565b5f819050919050565b5f819050919050565b5f6106e16106dc6106d7846106b5565b6106be565b6106b5565b9050919050565b5f819050919050565b6106fa836106c7565b61070e610706826106e8565b848454610664565b825550505050565b5f5f905090565b610725610716565b6107308184846106f1565b505050565b5b81811015610753576107485f8261071d565b600181019050610736565b5050565b601f8211156107985761076981610637565b61077284610649565b81016020851015610781578190505b61079561078d85610649565b830182610735565b50505b505050565b5f82821c905092915050565b5f6107b85f198460080261079d565b1980831691505092915050565b5f6107d083836107a9565b9150826002028217905092915050565b6107e9826105d0565b67ffffffffffffffff81111561080257610801610465565b5b61080c8254610607565b610817828285610757565b5f60209050601f831160018114610848575f8415610836578287015190505b61084085826107c5565b8655506108a7565b601f19841661085686610637565b5f5b8281101561087d57848901518255600182019150602085019450602081019050610858565b8683101561089a5784890151610896601f8916826107a9565b8355505b6001600288020188555050505b505050505050565b5f6bffffffffffffffffffffffff82169050919050565b5f6108e06108db6108d6846108af565b6106be565b6106b5565b9050919050565b6108f0816108c6565b82525050565b6108ff816106b5565b82525050565b5f6040820190506109185f8301856108e7565b61092560208301846108f6565b9392505050565b5f73ffffffffffffffffffffffffffffffffffffffff82169050919050565b5f6109558261092c565b9050919050565b6109658161094b565b82525050565b5f60208201905061097e5f83018461095c565b92915050565b614dc9806109915f395ff3fe608060405234801561000f575f5ffd5b506004361061023b575f3560e01c80634f6ccce711610139578063a217fddf116100b6578063cfbd48851161007a578063cfbd488514610737578063d539139314610753578063d547741f14610771578063e63ab1e91461078d578063e985e9c5146107ab5761023b565b8063a217fddf14610681578063a22cb4651461069f578063af58cf99146106bb578063b88d4fde146106eb578063c87b56dd146107075761023b565b806370a08231116100fd57806370a08231146105b757806372e47557146105e75780638462151c1461060357806391d148541461063357806395d89b41146106635761023b565b80634f6ccce71461050157806355f804b3146105315780635c975abb1461054d5780636352211e1461056b5780636da663551461059b5761023b565b8063248a9ca3116101c757806332cb6b0c1161018b57806332cb6b0c1461046c57806336568abe1461048a5780633f4ba83a146104a657806342842e0e146104b05780634810bc59146104cc5761023b565b8063248a9ca31461038f57806327e5c54b146103bf5780632a55205a146103ef5780632f2ff15d146104205780632f745c591461043c5761023b565b8063095ea7b31161020e578063095ea7b3146102d957806314dede35146102f557806318160ddd1461032557806318b674981461034357806323b872dd146103735761023b565b806301ffc9a71461023f57806304634d8d1461026f57806306fdde031461028b578063081812fc146102a9575b5f5ffd5b61025960048036038101906102549190613822565b6107db565b6040516102669190613867565b60405180910390f35b6102896004803603810190610284919061391b565b6107ec565b005b610293610855565b6040516102a091906139c9565b60405180910390f35b6102c360048036038101906102be9190613a1c565b6108e4565b6040516102d09190613a56565b60405180910390f35b6102f360048036038101906102ee9190613a6f565b6108ff565b005b61030f600480360381019061030a9190613a1c565b610915565b60405161031c9190613b98565b60405180910390f35b61032d610b83565b60405161033a9190613bc7565b60405180910390f35b61035d60048036038101906103589190613be0565b610b8f565b60405161036a9190613bc7565b60405180910390f35b61038d60048036038101906103889190613c0b565b610ba4565b005b6103a960048036038101906103a49190613c8e565b610ca3565b6040516103b69190613cc8565b60405180910390f35b6103d960048036038101906103d49190613a6f565b610cc0565b6040516103e69190613bc7565b60405180910390f35b61040960048036038101906104049190613ce1565b610ce0565b604051610417929190613d1f565b60405180910390f35b61043a60048036038101906104359190613d46565b610e02565b005b61045660048036038101906104519190613a6f565b610e24565b6040516104639190613bc7565b60405180910390f35b610474610ec8565b6040516104819190613bc7565b60405180910390f35b6104a4600480360381019061049f9190613d46565b610ecf565b005b6104ae610f4a565b005b6104ca60048036038101906104c59190613c0b565b610f61565b005b6104e660048036038101906104e19190613a1c565b610f80565b6040516104f896959493929190613d84565b60405180910390f35b61051b60048036038101906105169190613a1c565b61114a565b6040516105289190613bc7565b60405180910390f35b61054b60048036038101906105469190613f24565b6111bc565b005b610555611213565b6040516105629190613867565b60405180910390f35b61058560048036038101906105809190613a1c565b611228565b6040516105929190613a56565b60405180910390f35b6105b560048036038101906105b09190613fc8565b611239565b005b6105d160048036038101906105cc9190613be0565b6112c0565b6040516105de9190613bc7565b60405180910390f35b61060160048036038101906105fc9190613a6f565b611376565b005b61061d60048036038101906106189190613be0565b6114b0565b60405161062a91906140bb565b60405180910390f35b61064d60048036038101906106489190613d46565b611558565b60405161065a9190613867565b60405180910390f35b61066b6115bc565b60405161067891906139c9565b60405180910390f35b61068961164c565b6040516106969190613cc8565b60405180910390f35b6106b960048036038101906106b49190614105565b611652565b005b6106d560048036038101906106d09190614143565b611668565b6040516106e29190613bc7565b60405180910390f35b610705600480360381019061070091906142ee565b611a62565b005b610721600480360381019061071c9190613a1c565b611a87565b60405161072e91906139c9565b60405180910390f35b610751600480360381019061074c9190613be0565b611a99565b005b61075b611b59565b6040516107689190613cc8565b60405180910390f35b61078b60048036038101906107869190613d46565b611b7d565b005b610795611b9f565b6040516107a29190613cc8565b60405180910390f35b6107c560048036038101906107c0919061436e565b611bc3565b6040516107d29190613867565b60405180910390f35b5f6107e582611c51565b9050919050565b5f5f1b6107f881611cca565b6108028383611cde565b8273ffffffffffffffffffffffffffffffffffffffff167f8039bd6e4e7dba001c8840eb2e118d9d131246faa7d0d04335f7305127ec0b108360405161084891906143bb565b60405180910390a2505050565b60605f805461086390614401565b80601f016020809104026020016040519081016040528092919081815260200182805461088f90614401565b80156108da5780601f106108b1576101008083540402835291602001916108da565b820191905f5260205f20905b8154815290600101906020018083116108bd57829003601f168201915b5050505050905090565b5f6108ee82611e79565b506108f882611eff565b9050919050565b610911828261090c611f38565b611f3f565b5050565b61091d613789565b5f73ffffffffffffffffffffffffffffffffffffffff1661093d83611f51565b73ffffffffffffffffffffffffffffffffffffffff1603610993576040517f08c379a000000000000000000000000000000000000000000000000000000000815260040161098a9061447b565b60405180910390fd5b60115f8381526020019081526020015f206040518060c00160405290815f82015481526020016001820180546109c890614401565b80601f01602080910402602001604051908101604052809291908181526020018280546109f490614401565b8015610a3f5780601f10610a1657610100808354040283529160200191610a3f565b820191905f5260205f20905b815481529060010190602001808311610a2257829003601f168201915b50505050508152602001600282018054610a5890614401565b80601f0160208091040260200160405190810160405280929190818152602001828054610a8490614401565b8015610acf5780601f10610aa657610100808354040283529160200191610acf565b820191905f5260205f20905b815481529060010190602001808311610ab257829003601f168201915b50505050508152602001600382018054610ae890614401565b80601f0160208091040260200160405190810160405280929190818152602001828054610b1490614401565b8015610b5f5780601f10610b3657610100808354040283529160200191610b5f565b820191905f5260205f20905b815481529060010190602001808311610b4257829003601f168201915b50505050508152602001600482015481526020016005820154815250509050919050565b5f600880549050905090565b6012602052805f5260405f205f915090505481565b5f73ffffffffffffffffffffffffffffffffffffffff168273ffffffffffffffffffffffffffffffffffffffff1603610c14575f6040517f64a0ae92000000000000000000000000000000000000000000000000000000008152600401610c0b9190613a56565b60405180910390fd5b5f610c278383610c22611f38565b611f8a565b90508373ffffffffffffffffffffffffffffffffffffffff168173ffffffffffffffffffffffffffffffffffffffff1614610c9d578382826040517f64283d7b000000000000000000000000000000000000000000000000000000008152600401610c9493929190614499565b60405180910390fd5b50505050565b5f600d5f8381526020019081526020015f20600101549050919050565b6013602052815f5260405f20602052805f5260405f205f91509150505481565b5f5f5f600c5f8681526020019081526020015f2090505f815f015f9054906101000a900473ffffffffffffffffffffffffffffffffffffffff1690505f825f0160149054906101000a90046bffffffffffffffffffffffff1690505f73ffffffffffffffffffffffffffffffffffffffff168273ffffffffffffffffffffffffffffffffffffffff1603610db457600b5f015f9054906101000a900473ffffffffffffffffffffffffffffffffffffffff169150600b5f0160149054906101000a90046bffffffffffffffffffffffff1690505b5f610dbd611fa7565b6bffffffffffffffffffffffff16826bffffffffffffffffffffffff1688610de591906144fb565b610def9190614569565b9050828195509550505050509250929050565b610e0b82610ca3565b610e1481611cca565b610e1e8383611fb0565b50505050565b5f610e2e836112c0565b8210610e735782826040517fa57d13dc000000000000000000000000000000000000000000000000000000008152600401610e6a929190613d1f565b60405180910390fd5b60065f8473ffffffffffffffffffffffffffffffffffffffff1673ffffffffffffffffffffffffffffffffffffffff1681526020019081526020015f205f8381526020019081526020015f2054905092915050565b620f424081565b610ed7611f38565b73ffffffffffffffffffffffffffffffffffffffff168173ffffffffffffffffffffffffffffffffffffffff1614610f3b576040517f6697b23200000000000000000000000000000000000000000000000000000000815260040160405180910390fd5b610f45828261209a565b505050565b5f5f1b610f5681611cca565b610f5e612184565b50565b610f7b83838360405180602001604052805f815250611a62565b505050565b6011602052805f5260405f205f91509050805f015490806001018054610fa590614401565b80601f0160208091040260200160405190810160405280929190818152602001828054610fd190614401565b801561101c5780601f10610ff35761010080835404028352916020019161101c565b820191905f5260205f20905b815481529060010190602001808311610fff57829003601f168201915b50505050509080600201805461103190614401565b80601f016020809104026020016040519081016040528092919081815260200182805461105d90614401565b80156110a85780601f1061107f576101008083540402835291602001916110a8565b820191905f5260205f20905b81548152906001019060200180831161108b57829003601f168201915b5050505050908060030180546110bd90614401565b80601f01602080910402602001604051908101604052809291908181526020018280546110e990614401565b80156111345780601f1061110b57610100808354040283529160200191611134565b820191905f5260205f20905b81548152906001019060200180831161111757829003601f168201915b5050505050908060040154908060050154905086565b5f611153610b83565b8210611198575f826040517fa57d13dc00000000000000000000000000000000000000000000000000000000815260040161118f929190613d1f565b60405180910390fd5b600882815481106111ac576111ab614599565b5b905f5260205f2001549050919050565b5f5f1b6111c881611cca565b81601490816111d79190614766565b507f6741b2fc379fad678116fe3d4d4b9a1a184ab53ba36b86ad0fa66340b1ab41ad8260405161120791906139c9565b60405180910390a15050565b5f600e5f9054906101000a900460ff16905090565b5f61123282611e79565b9050919050565b7f65d7a28e3265b37a6474929f336521b332c1681b933f6cb9f3376673440d862a61126381611cca565b61126b6121e5565b3373ffffffffffffffffffffffffffffffffffffffff167fc50068396f19981cb0435611d2c97dde7b6882fdc3185a9fb8080fa756b3974d84846040516112b3929190614861565b60405180910390a2505050565b5f5f73ffffffffffffffffffffffffffffffffffffffff168273ffffffffffffffffffffffffffffffffffffffff1603611331575f6040517f89c62b640000000000000000000000000000000000000000000000000000000081526004016113289190613a56565b60405180910390fd5b60035f8373ffffffffffffffffffffffffffffffffffffffff1673ffffffffffffffffffffffffffffffffffffffff1681526020019081526020015f20549050919050565b5f5f1b61138281611cca565b5f73ffffffffffffffffffffffffffffffffffffffff168373ffffffffffffffffffffffffffffffffffffffff16036113f0576040517f08c379a00000000000000000000000000000000000000000000000000000000081526004016113e7906148cd565b60405180910390fd5b61141a7f9f2df0fed2c77648de5860a4cc508cd0818c85b8b8a1ab4ceeef8d981c8956a684611fb0565b508160125f8573ffffffffffffffffffffffffffffffffffffffff1673ffffffffffffffffffffffffffffffffffffffff1681526020019081526020015f20819055508273ffffffffffffffffffffffffffffffffffffffff167fdf4c1b61e182ddb110028dd73c55a897f76aebf25c86eb252f960f1ce67ce839836040516114a39190613bc7565b60405180910390a2505050565b60605f6114bc836112c0565b90505f8167ffffffffffffffff8111156114d9576114d8613e00565b5b6040519080825280602002602001820160405280156115075781602001602082028036833780820191505090505b5090505f5f90505b8281101561154d576115218582610e24565b82828151811061153457611533614599565b5b602002602001018181525050808060010191505061150f565b508092505050919050565b5f600d5f8481526020019081526020015f205f015f8373ffffffffffffffffffffffffffffffffffffffff1673ffffffffffffffffffffffffffffffffffffffff1681526020019081526020015f205f9054906101000a900460ff16905092915050565b6060600180546115cb90614401565b80601f01602080910402602001604051908101604052809291908181526020018280546115f790614401565b80156116425780601f1061161957610100808354040283529160200191611642565b820191905f5260205f20905b81548152906001019060200180831161162557829003601f168201915b5050505050905090565b5f5f1b81565b61166461165d611f38565b8383612247565b5050565b5f7f9f2df0fed2c77648de5860a4cc508cd0818c85b8b8a1ab4ceeef8d981c8956a661169381611cca565b61169b6123b0565b6116a36123f6565b5f73ffffffffffffffffffffffffffffffffffffffff168973ffffffffffffffffffffffffffffffffffffffff1603611711576040517f08c379a000000000000000000000000000000000000000000000000000000000815260040161170890614935565b60405180910390fd5b620f424060105410611758576040517f08c379a000000000000000000000000000000000000000000000000000000000815260040161174f9061499d565b60405180910390fd5b5f87511161179b576040517f08c379a000000000000000000000000000000000000000000000000000000000815260040161179290614a05565b60405180910390fd5b5f8551116117de576040517f08c379a00000000000000000000000000000000000000000000000000000000081526004016117d590614a6d565b60405180910390fd5b5f62015180426117ee9190614569565b90505f60125f3373ffffffffffffffffffffffffffffffffffffffff1673ffffffffffffffffffffffffffffffffffffffff1681526020019081526020015f205490505f811115611929578060135f3373ffffffffffffffffffffffffffffffffffffffff1673ffffffffffffffffffffffffffffffffffffffff1681526020019081526020015f205f8481526020019081526020015f2054106118c7576040517f08c379a00000000000000000000000000000000000000000000000000000000081526004016118be90614ad5565b60405180910390fd5b60135f3373ffffffffffffffffffffffffffffffffffffffff1673ffffffffffffffffffffffffffffffffffffffff1681526020019081526020015f205f8381526020019081526020015f205f81548092919061192390614af3565b91905055505b5f60105f81548092919061193c90614af3565b91905055905061194c8c82612437565b6119568187612454565b6040518060c001604052808c81526020018b81526020018a81526020018981526020018881526020014281525060115f8381526020019081526020015f205f820151815f015560208201518160010190816119b19190614766565b5060408201518160020190816119c79190614766565b5060608201518160030190816119dd9190614766565b506080820151816004015560a082015181600501559050508b73ffffffffffffffffffffffffffffffffffffffff16817fdf275d816af024e62f941936bea92bfb70589d4df53af1f62cf06f85b47caca98d8d8c604051611a4093929190614b3a565b60405180910390a3809450505050611a566124ae565b50979650505050505050565b611a6d848484610ba4565b611a81611a78611f38565b858585856124b8565b50505050565b6060611a9282612664565b9050919050565b5f5f1b611aa581611cca565b611acf7f9f2df0fed2c77648de5860a4cc508cd0818c85b8b8a1ab4ceeef8d981c8956a68361209a565b505f60125f8473ffffffffffffffffffffffffffffffffffffffff1673ffffffffffffffffffffffffffffffffffffffff1681526020019081526020015f20819055508173ffffffffffffffffffffffffffffffffffffffff167f44f4322f8daa225d5f4877ad0f7d3dfba248a774396f3ca99405ed40a044fe8160405160405180910390a25050565b7f9f2df0fed2c77648de5860a4cc508cd0818c85b8b8a1ab4ceeef8d981c8956a681565b611b8682610ca3565b611b8f81611cca565b611b99838361209a565b50505050565b7f65d7a28e3265b37a6474929f336521b332c1681b933f6cb9f3376673440d862a81565b5f60055f8473ffffffffffffffffffffffffffffffffffffffff1673ffffffffffffffffffffffffffffffffffffffff1681526020019081526020015f205f8373ffffffffffffffffffffffffffffffffffffffff1673ffffffffffffffffffffffffffffffffffffffff1681526020019081526020015f205f9054906101000a900460ff16905092915050565b5f7f7965db0b000000000000000000000000000000000000000000000000000000007bffffffffffffffffffffffffffffffffffffffffffffffffffffffff1916827bffffffffffffffffffffffffffffffffffffffffffffffffffffffff19161480611cc35750611cc28261276f565b5b9050919050565b611cdb81611cd6611f38565b6127e8565b50565b5f611ce7611fa7565b6bffffffffffffffffffffffff16905080826bffffffffffffffffffffffff161115611d4c5781816040517f6f483d09000000000000000000000000000000000000000000000000000000008152600401611d43929190614bad565b60405180910390fd5b5f73ffffffffffffffffffffffffffffffffffffffff168373ffffffffffffffffffffffffffffffffffffffff1603611dbc575f6040517fb6d9900a000000000000000000000000000000000000000000000000000000008152600401611db39190613a56565b60405180910390fd5b60405180604001604052808473ffffffffffffffffffffffffffffffffffffffff168152602001836bffffffffffffffffffffffff16815250600b5f820151815f015f6101000a81548173ffffffffffffffffffffffffffffffffffffffff021916908373ffffffffffffffffffffffffffffffffffffffff1602179055506020820151815f0160146101000a8154816bffffffffffffffffffffffff02191690836bffffffffffffffffffffffff160217905550905050505050565b5f5f611e8483611f51565b90505f73ffffffffffffffffffffffffffffffffffffffff168173ffffffffffffffffffffffffffffffffffffffff1603611ef657826040517f7e273289000000000000000000000000000000000000000000000000000000008152600401611eed9190613bc7565b60405180910390fd5b80915050919050565b5f60045f8381526020019081526020015f205f9054906101000a900473ffffffffffffffffffffffffffffffffffffffff169050919050565b5f33905090565b611f4c8383836001612839565b505050565b5f60025f8381526020019081526020015f205f9054906101000a900473ffffffffffffffffffffffffffffffffffffffff169050919050565b5f611f936123f6565b611f9e8484846129f8565b90509392505050565b5f612710905090565b5f611fbb8383611558565b612090576001600d5f8581526020019081526020015f205f015f8473ffffffffffffffffffffffffffffffffffffffff1673ffffffffffffffffffffffffffffffffffffffff1681526020019081526020015f205f6101000a81548160ff02191690831515021790555061202d611f38565b73ffffffffffffffffffffffffffffffffffffffff168273ffffffffffffffffffffffffffffffffffffffff16847f2f8788117e7eff1d82e926ec794901d17c78024a50270940304540a733656f0d60405160405180910390a460019050612094565b5f90505b92915050565b5f6120a58383611558565b1561217a575f600d5f8581526020019081526020015f205f015f8473ffffffffffffffffffffffffffffffffffffffff1673ffffffffffffffffffffffffffffffffffffffff1681526020019081526020015f205f6101000a81548160ff021916908315150217905550612117611f38565b73ffffffffffffffffffffffffffffffffffffffff168273ffffffffffffffffffffffffffffffffffffffff16847ff6391f5c32d9c69d2a47ea670b442974b53935d1edc7fd64eb21e047a839171b60405160405180910390a46001905061217e565b5f90505b92915050565b61218c612b12565b5f600e5f6101000a81548160ff0219169083151502179055507f5db9ee0a495bf2e6ff9c91a7834c1ba4fdd244a5e8aa4e537bd38aeae4b073aa6121ce611f38565b6040516121db9190613a56565b60405180910390a1565b6121ed6123f6565b6001600e5f6101000a81548160ff0219169083151502179055507f62e78cea01bee320cd4e420270b5ea74000d11b0c9f74754ebdbfc544b05a258612230611f38565b60405161223d9190613a56565b60405180910390a1565b5f73ffffffffffffffffffffffffffffffffffffffff168273ffffffffffffffffffffffffffffffffffffffff16036122b757816040517f5b08ba180000000000000000000000000000000000000000000000000000000081526004016122ae9190613a56565b60405180910390fd5b8060055f8573ffffffffffffffffffffffffffffffffffffffff1673ffffffffffffffffffffffffffffffffffffffff1681526020019081526020015f205f8473ffffffffffffffffffffffffffffffffffffffff1673ffffffffffffffffffffffffffffffffffffffff1681526020019081526020015f205f6101000a81548160ff0219169083151502179055508173ffffffffffffffffffffffffffffffffffffffff168373ffffffffffffffffffffffffffffffffffffffff167f17307eab39ab6107e8899845ad3d59bd9653f200f220920489ca2b5937696c31836040516123a39190613867565b60405180910390a3505050565b6002600f54036123ec576040517f3ee5aeb500000000000000000000000000000000000000000000000000000000815260040160405180910390fd5b6002600f81905550565b6123fe611213565b15612435576040517fd93c066500000000000000000000000000000000000000000000000000000000815260040160405180910390fd5b565b612450828260405180602001604052805f815250612b52565b5050565b80600a5f8481526020019081526020015f2090816124729190614766565b507ff8e1a15aba9398e019f0b49df1a4fde98ee17ae345cb5f6b5e2c27f5033e8ce7826040516124a29190613bc7565b60405180910390a15050565b6001600f81905550565b5f8373ffffffffffffffffffffffffffffffffffffffff163b111561265d578273ffffffffffffffffffffffffffffffffffffffff1663150b7a02868685856040518563ffffffff1660e01b81526004016125169493929190614c26565b6020604051808303815f875af192505050801561255157506040513d601f19601f8201168201806040525081019061254e9190614c84565b60015b6125d2573d805f811461257f576040519150601f19603f3d011682016040523d82523d5f602084013e612584565b606091505b505f8151036125ca57836040517f64a0ae920000000000000000000000000000000000000000000000000000000081526004016125c19190613a56565b60405180910390fd5b805160208201fd5b63150b7a0260e01b7bffffffffffffffffffffffffffffffffffffffffffffffffffffffff1916817bffffffffffffffffffffffffffffffffffffffffffffffffffffffff19161461265b57836040517f64a0ae920000000000000000000000000000000000000000000000000000000081526004016126529190613a56565b60405180910390fd5b505b5050505050565b606061266f82611e79565b505f600a5f8481526020019081526020015f20805461268d90614401565b80601f01602080910402602001604051908101604052809291908181526020018280546126b990614401565b80156127045780601f106126db57610100808354040283529160200191612704565b820191905f5260205f20905b8154815290600101906020018083116126e757829003601f168201915b505050505090505f612714612b75565b90505f81510361272857819250505061276a565b5f8251111561275c578082604051602001612744929190614ce9565b6040516020818303038152906040529250505061276a565b61276584612c05565b925050505b919050565b5f7f2a55205a000000000000000000000000000000000000000000000000000000007bffffffffffffffffffffffffffffffffffffffffffffffffffffffff1916827bffffffffffffffffffffffffffffffffffffffffffffffffffffffff191614806127e157506127e082612c6b565b5b9050919050565b6127f28282611558565b6128355780826040517fe2517d3f00000000000000000000000000000000000000000000000000000000815260040161282c929190614d0c565b60405180910390fd5b5050565b808061287157505f73ffffffffffffffffffffffffffffffffffffffff168273ffffffffffffffffffffffffffffffffffffffff1614155b156129a3575f61288084611e79565b90505f73ffffffffffffffffffffffffffffffffffffffff168373ffffffffffffffffffffffffffffffffffffffff16141580156128ea57508273ffffffffffffffffffffffffffffffffffffffff168173ffffffffffffffffffffffffffffffffffffffff1614155b80156128fd57506128fb8184611bc3565b155b1561293f57826040517fa9fbf51f0000000000000000000000000000000000000000000000000000000081526004016129369190613a56565b60405180910390fd5b81156129a157838573ffffffffffffffffffffffffffffffffffffffff168273ffffffffffffffffffffffffffffffffffffffff167f8c5be1e5ebec7d5bd14f71427d1e84f3dd0314c0f7b2291e5b200ac8c7c3b92560405160405180910390a45b505b8360045f8581526020019081526020015f205f6101000a81548173ffffffffffffffffffffffffffffffffffffffff021916908373ffffffffffffffffffffffffffffffffffffffff16021790555050505050565b5f5f612a05858585612ccb565b90505f73ffffffffffffffffffffffffffffffffffffffff168173ffffffffffffffffffffffffffffffffffffffff1603612a4857612a4384612ed6565b612a87565b8473ffffffffffffffffffffffffffffffffffffffff168173ffffffffffffffffffffffffffffffffffffffff1614612a8657612a858185612f1a565b5b5b5f73ffffffffffffffffffffffffffffffffffffffff168573ffffffffffffffffffffffffffffffffffffffff1603612ac857612ac384612ff1565b612b07565b8473ffffffffffffffffffffffffffffffffffffffff168173ffffffffffffffffffffffffffffffffffffffff1614612b0657612b0585856130b1565b5b5b809150509392505050565b612b1a611213565b612b50576040517f8dfc202b00000000000000000000000000000000000000000000000000000000815260040160405180910390fd5b565b612b5c8383613135565b612b70612b67611f38565b5f8585856124b8565b505050565b606060148054612b8490614401565b80601f0160208091040260200160405190810160405280929190818152602001828054612bb090614401565b8015612bfb5780601f10612bd257610100808354040283529160200191612bfb565b820191905f5260205f20905b815481529060010190602001808311612bde57829003601f168201915b5050505050905090565b6060612c1082611e79565b505f612c1a612b75565b90505f815111612c385760405180602001604052805f815250612c63565b80612c4284613228565b604051602001612c53929190614ce9565b6040516020818303038152906040525b915050919050565b5f634906490660e01b7bffffffffffffffffffffffffffffffffffffffffffffffffffffffff1916827bffffffffffffffffffffffffffffffffffffffffffffffffffffffff19161480612cc45750612cc3826132f2565b5b9050919050565b5f5f612cd684611f51565b90505f73ffffffffffffffffffffffffffffffffffffffff168373ffffffffffffffffffffffffffffffffffffffff1614612d1757612d1681848661336b565b5b5f73ffffffffffffffffffffffffffffffffffffffff168173ffffffffffffffffffffffffffffffffffffffff1614612da257612d565f855f5f612839565b600160035f8373ffffffffffffffffffffffffffffffffffffffff1673ffffffffffffffffffffffffffffffffffffffff1681526020019081526020015f205f82825403925050819055505b5f73ffffffffffffffffffffffffffffffffffffffff168573ffffffffffffffffffffffffffffffffffffffff1614612e2157600160035f8773ffffffffffffffffffffffffffffffffffffffff1673ffffffffffffffffffffffffffffffffffffffff1681526020019081526020015f205f82825401925050819055505b8460025f8681526020019081526020015f205f6101000a81548173ffffffffffffffffffffffffffffffffffffffff021916908373ffffffffffffffffffffffffffffffffffffffff160217905550838573ffffffffffffffffffffffffffffffffffffffff168273ffffffffffffffffffffffffffffffffffffffff167fddf252ad1be2c89b69c2b068fc378daa952ba7f163c4a11628f55a4df523b3ef60405160405180910390a4809150509392505050565b60088054905060095f8381526020019081526020015f2081905550600881908060018154018082558091505060019003905f5260205f20015f909190919091505550565b5f612f24836112c0565b90505f60075f8481526020019081526020015f205490505f60065f8673ffffffffffffffffffffffffffffffffffffffff1673ffffffffffffffffffffffffffffffffffffffff1681526020019081526020015f209050828214612fc3575f815f8581526020019081526020015f2054905080825f8581526020019081526020015f20819055508260075f8381526020019081526020015f2081905550505b60075f8581526020019081526020015f205f9055805f8481526020019081526020015f205f90555050505050565b5f60016008805490506130049190614d33565b90505f60095f8481526020019081526020015f205490505f600883815481106130305761302f614599565b5b905f5260205f200154905080600883815481106130505761304f614599565b5b905f5260205f2001819055508160095f8381526020019081526020015f208190555060095f8581526020019081526020015f205f9055600880548061309857613097614d66565b5b600190038181905f5260205f20015f9055905550505050565b5f60016130bd846112c0565b6130c79190614d33565b90508160065f8573ffffffffffffffffffffffffffffffffffffffff1673ffffffffffffffffffffffffffffffffffffffff1681526020019081526020015f205f8381526020019081526020015f20819055508060075f8481526020019081526020015f2081905550505050565b5f73ffffffffffffffffffffffffffffffffffffffff168273ffffffffffffffffffffffffffffffffffffffff16036131a5575f6040517f64a0ae9200000000000000000000000000000000000000000000000000000000815260040161319c9190613a56565b60405180910390fd5b5f6131b183835f611f8a565b90505f73ffffffffffffffffffffffffffffffffffffffff168173ffffffffffffffffffffffffffffffffffffffff1614613223575f6040517f73c6ac6e00000000000000000000000000000000000000000000000000000000815260040161321a9190613a56565b60405180910390fd5b505050565b60605f60016132368461342e565b0190505f8167ffffffffffffffff81111561325457613253613e00565b5b6040519080825280601f01601f1916602001820160405280156132865781602001600182028036833780820191505090505b5090505f82602083010190505b6001156132e7578080600190039150507f3031323334353637383961626364656600000000000000000000000000000000600a86061a8153600a85816132dc576132db61453c565b5b0494505f8503613293575b819350505050919050565b5f7f780e9d63000000000000000000000000000000000000000000000000000000007bffffffffffffffffffffffffffffffffffffffffffffffffffffffff1916827bffffffffffffffffffffffffffffffffffffffffffffffffffffffff1916148061336457506133638261357f565b5b9050919050565b613376838383613660565b613429575f73ffffffffffffffffffffffffffffffffffffffff168373ffffffffffffffffffffffffffffffffffffffff16036133ea57806040517f7e2732890000000000000000000000000000000000000000000000000000000081526004016133e19190613bc7565b60405180910390fd5b81816040517f177e802f000000000000000000000000000000000000000000000000000000008152600401613420929190613d1f565b60405180910390fd5b505050565b5f5f5f90507a184f03e93ff9f4daa797ed6e38ed64bf6a1f010000000000000000831061348a577a184f03e93ff9f4daa797ed6e38ed64bf6a1f01000000000000000083816134805761347f61453c565b5b0492506040810190505b6d04ee2d6d415b85acef810000000083106134c7576d04ee2d6d415b85acef810000000083816134bd576134bc61453c565b5b0492506020810190505b662386f26fc1000083106134f657662386f26fc1000083816134ec576134eb61453c565b5b0492506010810190505b6305f5e100831061351f576305f5e10083816135155761351461453c565b5b0492506008810190505b612710831061354457612710838161353a5761353961453c565b5b0492506004810190505b60648310613567576064838161355d5761355c61453c565b5b0492506002810190505b600a8310613576576001810190505b80915050919050565b5f7f80ac58cd000000000000000000000000000000000000000000000000000000007bffffffffffffffffffffffffffffffffffffffffffffffffffffffff1916827bffffffffffffffffffffffffffffffffffffffffffffffffffffffff1916148061364957507f5b5e139f000000000000000000000000000000000000000000000000000000007bffffffffffffffffffffffffffffffffffffffffffffffffffffffff1916827bffffffffffffffffffffffffffffffffffffffffffffffffffffffff1916145b80613659575061365882613720565b5b9050919050565b5f5f73ffffffffffffffffffffffffffffffffffffffff168373ffffffffffffffffffffffffffffffffffffffff161415801561371757508273ffffffffffffffffffffffffffffffffffffffff168473ffffffffffffffffffffffffffffffffffffffff1614806136d857506136d78484611bc3565b5b8061371657508273ffffffffffffffffffffffffffffffffffffffff166136fe83611eff565b73ffffffffffffffffffffffffffffffffffffffff16145b5b90509392505050565b5f7f01ffc9a7000000000000000000000000000000000000000000000000000000007bffffffffffffffffffffffffffffffffffffffffffffffffffffffff1916827bffffffffffffffffffffffffffffffffffffffffffffffffffffffff1916149050919050565b6040518060c001604052805f81526020016060815260200160608152602001606081526020015f81526020015f81525090565b5f604051905090565b5f5ffd5b5f5ffd5b5f7fffffffff0000000000000000000000000000000000000000000000000000000082169050919050565b613801816137cd565b811461380b575f5ffd5b50565b5f8135905061381c816137f8565b92915050565b5f60208284031215613837576138366137c5565b5b5f6138448482850161380e565b91505092915050565b5f8115159050919050565b6138618161384d565b82525050565b5f60208201905061387a5f830184613858565b92915050565b5f73ffffffffffffffffffffffffffffffffffffffff82169050919050565b5f6138a982613880565b9050919050565b6138b98161389f565b81146138c3575f5ffd5b50565b5f813590506138d4816138b0565b92915050565b5f6bffffffffffffffffffffffff82169050919050565b6138fa816138da565b8114613904575f5ffd5b50565b5f81359050613915816138f1565b92915050565b5f5f60408385031215613931576139306137c5565b5b5f61393e858286016138c6565b925050602061394f85828601613907565b9150509250929050565b5f81519050919050565b5f82825260208201905092915050565b8281835e5f83830152505050565b5f601f19601f8301169050919050565b5f61399b82613959565b6139a58185613963565b93506139b5818560208601613973565b6139be81613981565b840191505092915050565b5f6020820190508181035f8301526139e18184613991565b905092915050565b5f819050919050565b6139fb816139e9565b8114613a05575f5ffd5b50565b5f81359050613a16816139f2565b92915050565b5f60208284031215613a3157613a306137c5565b5b5f613a3e84828501613a08565b91505092915050565b613a508161389f565b82525050565b5f602082019050613a695f830184613a47565b92915050565b5f5f60408385031215613a8557613a846137c5565b5b5f613a92858286016138c6565b9250506020613aa385828601613a08565b9150509250929050565b613ab6816139e9565b82525050565b5f82825260208201905092915050565b5f613ad682613959565b613ae08185613abc565b9350613af0818560208601613973565b613af981613981565b840191505092915050565b5f60c083015f830151613b195f860182613aad565b5060208301518482036020860152613b318282613acc565b91505060408301518482036040860152613b4b8282613acc565b91505060608301518482036060860152613b658282613acc565b9150506080830151613b7a6080860182613aad565b5060a0830151613b8d60a0860182613aad565b508091505092915050565b5f6020820190508181035f830152613bb08184613b04565b905092915050565b613bc1816139e9565b82525050565b5f602082019050613bda5f830184613bb8565b92915050565b5f60208284031215613bf557613bf46137c5565b5b5f613c02848285016138c6565b91505092915050565b5f5f5f60608486031215613c2257613c216137c5565b5b5f613c2f868287016138c6565b9350506020613c40868287016138c6565b9250506040613c5186828701613a08565b9150509250925092565b5f819050919050565b613c6d81613c5b565b8114613c77575f5ffd5b50565b5f81359050613c8881613c64565b92915050565b5f60208284031215613ca357613ca26137c5565b5b5f613cb084828501613c7a565b91505092915050565b613cc281613c5b565b82525050565b5f602082019050613cdb5f830184613cb9565b92915050565b5f5f60408385031215613cf757613cf66137c5565b5b5f613d0485828601613a08565b9250506020613d1585828601613a08565b9150509250929050565b5f604082019050613d325f830185613a47565b613d3f6020830184613bb8565b9392505050565b5f5f60408385031215613d5c57613d5b6137c5565b5b5f613d6985828601613c7a565b9250506020613d7a858286016138c6565b9150509250929050565b5f60c082019050613d975f830189613bb8565b8181036020830152613da98188613991565b90508181036040830152613dbd8187613991565b90508181036060830152613dd18186613991565b9050613de06080830185613bb8565b613ded60a0830184613bb8565b979650505050505050565b5f5ffd5b5f5ffd5b7f4e487b71000000000000000000000000000000000000000000000000000000005f52604160045260245ffd5b613e3682613981565b810181811067ffffffffffffffff82111715613e5557613e54613e00565b5b80604052505050565b5f613e676137bc565b9050613e738282613e2d565b919050565b5f67ffffffffffffffff821115613e9257613e91613e00565b5b613e9b82613981565b9050602081019050919050565b828183375f83830152505050565b5f613ec8613ec384613e78565b613e5e565b905082815260208101848484011115613ee457613ee3613dfc565b5b613eef848285613ea8565b509392505050565b5f82601f830112613f0b57613f0a613df8565b5b8135613f1b848260208601613eb6565b91505092915050565b5f60208284031215613f3957613f386137c5565b5b5f82013567ffffffffffffffff811115613f5657613f556137c9565b5b613f6284828501613ef7565b91505092915050565b5f5ffd5b5f5ffd5b5f5f83601f840112613f8857613f87613df8565b5b8235905067ffffffffffffffff811115613fa557613fa4613f6b565b5b602083019150836001820283011115613fc157613fc0613f6f565b5b9250929050565b5f5f60208385031215613fde57613fdd6137c5565b5b5f83013567ffffffffffffffff811115613ffb57613ffa6137c9565b5b61400785828601613f73565b92509250509250929050565b5f81519050919050565b5f82825260208201905092915050565b5f819050602082019050919050565b5f6140478383613aad565b60208301905092915050565b5f602082019050919050565b5f61406982614013565b614073818561401d565b935061407e8361402d565b805f5b838110156140ae578151614095888261403c565b97506140a083614053565b925050600181019050614081565b5085935050505092915050565b5f6020820190508181035f8301526140d3818461405f565b905092915050565b6140e48161384d565b81146140ee575f5ffd5b50565b5f813590506140ff816140db565b92915050565b5f5f6040838503121561411b5761411a6137c5565b5b5f614128858286016138c6565b9250506020614139858286016140f1565b9150509250929050565b5f5f5f5f5f5f5f60e0888a03121561415e5761415d6137c5565b5b5f61416b8a828b016138c6565b975050602061417c8a828b01613a08565b965050604088013567ffffffffffffffff81111561419d5761419c6137c9565b5b6141a98a828b01613ef7565b955050606088013567ffffffffffffffff8111156141ca576141c96137c9565b5b6141d68a828b01613ef7565b945050608088013567ffffffffffffffff8111156141f7576141f66137c9565b5b6142038a828b01613ef7565b93505060a06142148a828b01613a08565b92505060c088013567ffffffffffffffff811115614235576142346137c9565b5b6142418a828b01613ef7565b91505092959891949750929550565b5f67ffffffffffffffff82111561426a57614269613e00565b5b61427382613981565b9050602081019050919050565b5f61429261428d84614250565b613e5e565b9050828152602081018484840111156142ae576142ad613dfc565b5b6142b9848285613ea8565b509392505050565b5f82601f8301126142d5576142d4613df8565b5b81356142e5848260208601614280565b91505092915050565b5f5f5f5f60808587031215614306576143056137c5565b5b5f614313878288016138c6565b9450506020614324878288016138c6565b935050604061433587828801613a08565b925050606085013567ffffffffffffffff811115614356576143556137c9565b5b614362878288016142c1565b91505092959194509250565b5f5f60408385031215614384576143836137c5565b5b5f614391858286016138c6565b92505060206143a2858286016138c6565b9150509250929050565b6143b5816138da565b82525050565b5f6020820190506143ce5f8301846143ac565b92915050565b7f4e487b71000000000000000000000000000000000000000000000000000000005f52602260045260245ffd5b5f600282049050600182168061441857607f821691505b60208210810361442b5761442a6143d4565b5b50919050565b7f546f6b656e20646f65736e2774206578697374000000000000000000000000005f82015250565b5f614465601383613963565b915061447082614431565b602082019050919050565b5f6020820190508181035f83015261449281614459565b9050919050565b5f6060820190506144ac5f830186613a47565b6144b96020830185613bb8565b6144c66040830184613a47565b949350505050565b7f4e487b71000000000000000000000000000000000000000000000000000000005f52601160045260245ffd5b5f614505826139e9565b9150614510836139e9565b925082820261451e816139e9565b91508282048414831517614535576145346144ce565b5b5092915050565b7f4e487b71000000000000000000000000000000000000000000000000000000005f52601260045260245ffd5b5f614573826139e9565b915061457e836139e9565b92508261458e5761458d61453c565b5b828204905092915050565b7f4e487b71000000000000000000000000000000000000000000000000000000005f52603260045260245ffd5b5f819050815f5260205f209050919050565b5f6020601f8301049050919050565b5f82821b905092915050565b5f600883026146227fffffffffffffffffffffffffffffffffffffffffffffffffffffffffffffffff826145e7565b61462c86836145e7565b95508019841693508086168417925050509392505050565b5f819050919050565b5f61466761466261465d846139e9565b614644565b6139e9565b9050919050565b5f819050919050565b6146808361464d565b61469461468c8261466e565b8484546145f3565b825550505050565b5f5f905090565b6146ab61469c565b6146b6818484614677565b505050565b5b818110156146d9576146ce5f826146a3565b6001810190506146bc565b5050565b601f82111561471e576146ef816145c6565b6146f8846145d8565b81016020851015614707578190505b61471b614713856145d8565b8301826146bb565b50505b505050565b5f82821c905092915050565b5f61473e5f1984600802614723565b1980831691505092915050565b5f614756838361472f565b9150826002028217905092915050565b61476f82613959565b67ffffffffffffffff81111561478857614787613e00565b5b6147928254614401565b61479d8282856146dd565b5f60209050601f8311600181146147ce575f84156147bc578287015190505b6147c6858261474b565b86555061482d565b601f1984166147dc866145c6565b5f5b82811015614803578489015182556001820191506020850194506020810190506147de565b86831015614820578489015161481c601f89168261472f565b8355505b6001600288020188555050505b505050505050565b5f6148408385613963565b935061484d838584613ea8565b61485683613981565b840190509392505050565b5f6020820190508181035f83015261487a818486614835565b90509392505050565b7f496e76616c6964206d696e7465720000000000000000000000000000000000005f82015250565b5f6148b7600e83613963565b91506148c282614883565b602082019050919050565b5f6020820190508181035f8301526148e4816148ab565b9050919050565b7f496e76616c6964206164647265737300000000000000000000000000000000005f82015250565b5f61491f600f83613963565b915061492a826148eb565b602082019050919050565b5f6020820190508181035f83015261494c81614913565b9050919050565b7f4d617820737570706c79207265616368656400000000000000000000000000005f82015250565b5f614987601283613963565b915061499282614953565b602082019050919050565b5f6020820190508181035f8301526149b48161497b565b9050919050565b7f496e76616c6964206368617261637465722074797065000000000000000000005f82015250565b5f6149ef601683613963565b91506149fa826149bb565b602082019050919050565b5f6020820190508181035f830152614a1c816149e3565b9050919050565b7f496e76616c6964207261726974790000000000000000000000000000000000005f82015250565b5f614a57600e83613963565b9150614a6282614a23565b602082019050919050565b5f6020820190508181035f830152614a8481614a4b565b9050919050565b7f4d696e746572206461696c79206c696d697420657863656564656400000000005f82015250565b5f614abf601b83613963565b9150614aca82614a8b565b602082019050919050565b5f6020820190508181035f830152614aec81614ab3565b9050919050565b5f614afd826139e9565b91507fffffffffffffffffffffffffffffffffffffffffffffffffffffffffffffffff8203614b2f57614b2e6144ce565b5b600182019050919050565b5f606082019050614b4d5f830186613bb8565b8181036020830152614b5f8185613991565b90508181036040830152614b738184613991565b9050949350505050565b5f614b97614b92614b8d846138da565b614644565b6139e9565b9050919050565b614ba781614b7d565b82525050565b5f604082019050614bc05f830185614b9e565b614bcd6020830184613bb8565b9392505050565b5f81519050919050565b5f82825260208201905092915050565b5f614bf882614bd4565b614c028185614bde565b9350614c12818560208601613973565b614c1b81613981565b840191505092915050565b5f608082019050614c395f830187613a47565b614c466020830186613a47565b614c536040830185613bb8565b8181036060830152614c658184614bee565b905095945050505050565b5f81519050614c7e816137f8565b92915050565b5f60208284031215614c9957614c986137c5565b5b5f614ca684828501614c70565b91505092915050565b5f81905092915050565b5f614cc382613959565b614ccd8185614caf565b9350614cdd818560208601613973565b80840191505092915050565b5f614cf48285614cb9565b9150614d008284614cb9565b91508190509392505050565b5f604082019050614d1f5f830185613a47565b614d2c6020830184613cb9565b9392505050565b5f614d3d826139e9565b9150614d48836139e9565b9250828203905081811115614d6057614d5f6144ce565b5b92915050565b7f4e487b71000000000000000000000000000000000000000000000000000000005f52603160045260245ffdfea2646970667358221220066a0608d28286e2a153ae2c0c1d50422242567828e6062ca5bf4ec6e65dbd4064736f6c634300081c0033","linkReferences":{}},"methodIdentifiers":{"DEFAULT_ADMIN_ROLE()":"a217fddf","MAX_SUPPLY()":"32cb6b0c","MINTER_ROLE()":"d5391393","PAUSER_ROLE()":"e63ab1e9","approve(address,uint256)":"095ea7b3","authorizeMinter(address,uint256)":"72e47557","balanceOf(address)":"70a08231","characters(uint256)":"4810bc59","getApproved(uint256)":"081812fc","getCharacterData(uint256)":"14dede35","getRoleAdmin(bytes32)":"248a9ca3","grantRole(bytes32,address)":"2f2ff15d","hasRole(bytes32,address)":"91d14854","isApprovedForAll(address,address)":"e985e9c5","mintCharacter(address,uint256,string,string,string,uint256,string)":"af58cf99","minterDailyLimit(address)":"18b67498","minterDailyMinted(address,uint256)":"27e5c54b","name()":"06fdde03","ownerOf(uint256)":"6352211e","pause(string)":"6da66355","paused()":"5c975abb","renounceRole(bytes32,address)":"36568abe","revokeMinter(address)":"cfbd4885","revokeRole(bytes32,address)":"d547741f","royaltyInfo(uint256,uint256)":"2a55205a","safeTransferFrom(address,address,uint256)":"42842e0e","safeTransferFrom(address,address,uint256,bytes)":"b88d4fde","setApprovalForAll(address,bool)":"a22cb465","setBaseURI(string)":"55f804b3","setDefaultRoyalty(address,uint96)":"04634d8d","supportsInterface(bytes4)":"01ffc9a7","symbol()":"95d89b41","tokenByIndex(uint256)":"4f6ccce7","tokenOfOwnerByIndex(address,uint256)":"2f745c59","tokenURI(uint256)":"c87b56dd","tokensOfOwner(address)":"8462151c","totalSupply()":"18160ddd","transferFrom(address,address,uint256)":"23b872dd","unpause()":"3f4ba83a"},"id":57}