{"abi":[{"type":"constructor","inputs":[{"name":"_towerToken","type":"address","internalType":"address"},{"name":"_gtkToken","type":"address","internalType":"address"}],"stateMutability":"nonpayable"},{"type":"function","name":"MIN_SWAP_INTERVAL","inputs":[],"outputs":[{"name":"","type":"uint256","internalType":"uint256"}],"stateMutability":"view"},{"type":"function","name":"RATIO","inputs":[],"outputs":[{"name":"","type":"uint256","internalType":"uint256"}],"stateMutability":"view"},{"type":"function","name":"addLiquidity","inputs":[{"name":"towerAmount","type":"uint256","internalType":"uint256"},{"name":"gtkAmount","type":"uint256","internalType":"uint256"}],"outputs":[],"stateMutability":"nonpayable"},{"type":"function","name":"getReserves","inputs":[],"outputs":[{"name":"towerReserve","type":"uint256","internalType":"uint256"},{"name":"gtkReserve","type":"uint256","internalType":"uint256"}],"stateMutability":"view"},{"type":"function","name":"gtkToken","inputs":[],"outputs":[{"name":"","type":"address","internalType":"contract IERC20"}],"stateMutability":"view"},{"type":"function","name":"lastSwapTime","inputs":[{"name":"","type":"address","internalType":"address"}],"outputs":[{"name":"","type":"uint256","internalType":"uint256"}],"stateMutability":"view"},{"type":"function","name":"maxGTKPerSwap","inputs":[],"outputs":[{"name":"","type":"uint256","internalType":"uint256"}],"stateMutability":"view"},{"type":"function","name":"maxTowerPerSwap","inputs":[],"outputs":[{"name":"","type":"uint256","internalType":"uint256"}],"stateMutability":"view"},{"type":"function","name":"owner","inputs":[],"outputs":[{"name":"","type":"address","internalType":"address"}],"stateMutability":"view"},{"type":"function","name":"swapGTKForTower","inputs":[{"name":"gtkAmount","type":"uint256","internalType":"uint256"}],"outputs":[],"stateMutability":"nonpayable"},{"type":"function","name":"swapTowerForGTK","inputs":[{"name":"towerAmount","type":"uint256","internalType":"uint256"}],"outputs":[],"stateMutability":"nonpayable"},{"type":"function","name":"towerToken","inputs":[],"outputs":[{"name":"","type":"address","internalType":"contract IERC20"}],"stateMutability":"view"},{"type":"event","name":"LiquidityAdded","inputs":[{"name":"towerAmount","type":"uint256","indexed":false,"internalType":"uint256"},{"name":"gtkAmount","type":"uint256","indexed":false,"internalType":"uint256"}],"anonymous":false},{"type":"event","name":"SwapGTKForTower","inputs":[{"name":"user","type":"address","indexed":true,"internalType":"address"},{"name":"gtkAmount","type":"uint256","indexed":false,"internalType":"uint256"},{"name":"towerAmount","type":"uint256","indexed":false,"internalType":"uint256"}],"anonymous":false},{"type":"event","name":"SwapTowerForGTK","inputs":[{"name":"user","type":"address","indexed":true,"internalType":"address"},{"name":"towerAmount","type":"uint256","indexed":false,"internalType":"uint256"},{"name":"gtkAmount","type":"uint256","indexed":false,"internalType":"uint256"}],"anonymous":false}],"bytecode":{"object":"0x60c0604052683635c9adc5dea0000060025569152d02c7e14af680000060035534801561002a575f5ffd5b506040516119de3803806119de833981810160405281019061004c91906101ff565b5f73ffffffffffffffffffffffffffffffffffffffff168273ffffffffffffffffffffffffffffffffffffffff16141580156100b457505f73ffffffffffffffffffffffffffffffffffffffff168173ffffffffffffffffffffffffffffffffffffffff1614155b6100f3576040517f08c379a00000000000000000000000000000000000000000000000000000000081526004016100ea90610297565b60405180910390fd5b8173ffffffffffffffffffffffffffffffffffffffff1660808173ffffffffffffffffffffffffffffffffffffffff16815250508073ffffffffffffffffffffffffffffffffffffffff1660a08173ffffffffffffffffffffffffffffffffffffffff1681525050335f5f6101000a81548173ffffffffffffffffffffffffffffffffffffffff021916908373ffffffffffffffffffffffffffffffffffffffff16021790555050506102b5565b5f5ffd5b5f73ffffffffffffffffffffffffffffffffffffffff82169050919050565b5f6101ce826101a5565b9050919050565b6101de816101c4565b81146101e8575f5ffd5b50565b5f815190506101f9816101d5565b92915050565b5f5f60408385031215610215576102146101a1565b5b5f610222858286016101eb565b9250506020610233858286016101eb565b9150509250929050565b5f82825260208201905092915050565b7f496e76616c6964206164647265737365730000000000000000000000000000005f82015250565b5f61028160118361023d565b915061028c8261024d565b602082019050919050565b5f6020820190508181035f8301526102ae81610275565b9050919050565b60805160a0516116c261031c5f395f81816102c9015281816104540152818161060901528181610798015281816109610152610c9501525f818161022f0152818161052d0152818161087c01528181610bbc01528181610d710152610ee101526116c25ff3fe608060405234801561000f575f5ffd5b50600436106100b2575f3560e01c806385d64d321161006f57806385d64d321461017b5780638da5cb5b146101995780639cd441da146101b7578063a904fc58146101d3578063bd5dbdb9146101f1578063c38c2df71461020d576100b2565b80630902f1ac146100b6578063184fb759146100d55780634ece7c06146100f157806359e741d2146101215780636f4959d41461013f5780637ec459b81461015d575b5f5ffd5b6100be61022b565b6040516100cc929190610f1b565b60405180910390f35b6100ef60048036038101906100ea9190610f70565b610365565b005b61010b60048036038101906101069190610ff5565b610777565b6040516101189190611020565b60405180910390f35b61012961078c565b6040516101369190611020565b60405180910390f35b610147610791565b6040516101549190611020565b60405180910390f35b610165610796565b6040516101729190611094565b60405180910390f35b6101836107ba565b6040516101909190611020565b60405180910390f35b6101a16107c0565b6040516101ae91906110bc565b60405180910390f35b6101d160048036038101906101cc91906110d5565b6107e4565b005b6101db610a79565b6040516101e89190611020565b60405180910390f35b61020b60048036038101906102069190610f70565b610a7f565b005b610215610edf565b6040516102229190611094565b60405180910390f35b5f5f7f000000000000000000000000000000000000000000000000000000000000000073ffffffffffffffffffffffffffffffffffffffff166370a08231306040518263ffffffff1660e01b815260040161028691906110bc565b602060405180830381865afa1580156102a1573d5f5f3e3d5ffd5b505050506040513d601f19601f820116820180604052508101906102c59190611127565b91507f000000000000000000000000000000000000000000000000000000000000000073ffffffffffffffffffffffffffffffffffffffff166370a08231306040518263ffffffff1660e01b815260040161032091906110bc565b602060405180830381865afa15801561033b573d5f5f3e3d5ffd5b505050506040513d601f19601f8201168201806040525081019061035f9190611127565b90509091565b5f8111801561037657506002548111155b6103b5576040517f08c379a00000000000000000000000000000000000000000000000000000000081526004016103ac906111ac565b60405180910390fd5b603c60015f3373ffffffffffffffffffffffffffffffffffffffff1673ffffffffffffffffffffffffffffffffffffffff1681526020019081526020015f20546103ff91906111f7565b421015610441576040517f08c379a000000000000000000000000000000000000000000000000000000000815260040161043890611274565b60405180910390fd5b5f60648261044f9190611292565b9050807f000000000000000000000000000000000000000000000000000000000000000073ffffffffffffffffffffffffffffffffffffffff166370a08231306040518263ffffffff1660e01b81526004016104ab91906110bc565b602060405180830381865afa1580156104c6573d5f5f3e3d5ffd5b505050506040513d601f19601f820116820180604052508101906104ea9190611127565b101561052b576040517f08c379a00000000000000000000000000000000000000000000000000000000081526004016105229061131d565b60405180910390fd5b7f000000000000000000000000000000000000000000000000000000000000000073ffffffffffffffffffffffffffffffffffffffff166323b872dd3330856040518463ffffffff1660e01b81526004016105889392919061133b565b6020604051808303815f875af11580156105a4573d5f5f3e3d5ffd5b505050506040513d601f19601f820116820180604052508101906105c891906113a5565b610607576040517f08c379a00000000000000000000000000000000000000000000000000000000081526004016105fe9061141a565b60405180910390fd5b7f000000000000000000000000000000000000000000000000000000000000000073ffffffffffffffffffffffffffffffffffffffff1663a9059cbb33836040518363ffffffff1660e01b8152600401610662929190611438565b6020604051808303815f875af115801561067e573d5f5f3e3d5ffd5b505050506040513d601f19601f820116820180604052508101906106a291906113a5565b6106e1576040517f08c379a00000000000000000000000000000000000000000000000000000000081526004016106d8906114a9565b60405180910390fd5b4260015f3373ffffffffffffffffffffffffffffffffffffffff1673ffffffffffffffffffffffffffffffffffffffff1681526020019081526020015f20819055503373ffffffffffffffffffffffffffffffffffffffff167fee99854729e9fe77a771c60269f0af07c808a4a6ac928452a0b36bba1b7ebe98838360405161076b929190610f1b565b60405180910390a25050565b6001602052805f5260405f205f915090505481565b606481565b603c81565b7f000000000000000000000000000000000000000000000000000000000000000081565b60035481565b5f5f9054906101000a900473ffffffffffffffffffffffffffffffffffffffff1681565b5f5f9054906101000a900473ffffffffffffffffffffffffffffffffffffffff1673ffffffffffffffffffffffffffffffffffffffff163373ffffffffffffffffffffffffffffffffffffffff1614610872576040517f08c379a000000000000000000000000000000000000000000000000000000000815260040161086990611511565b60405180910390fd5b5f821115610957577f000000000000000000000000000000000000000000000000000000000000000073ffffffffffffffffffffffffffffffffffffffff166323b872dd3330856040518463ffffffff1660e01b81526004016108d79392919061133b565b6020604051808303815f875af11580156108f3573d5f5f3e3d5ffd5b505050506040513d601f19601f8201168201806040525081019061091791906113a5565b610956576040517f08c379a000000000000000000000000000000000000000000000000000000000815260040161094d9061141a565b60405180910390fd5b5b5f811115610a3c577f000000000000000000000000000000000000000000000000000000000000000073ffffffffffffffffffffffffffffffffffffffff166323b872dd3330846040518463ffffffff1660e01b81526004016109bc9392919061133b565b6020604051808303815f875af11580156109d8573d5f5f3e3d5ffd5b505050506040513d601f19601f820116820180604052508101906109fc91906113a5565b610a3b576040517f08c379a0000000000000000000000000000000000000000000000000000000008152600401610a32906114a9565b60405180910390fd5b5b7f38f8a0c92f4c5b0b6877f878cb4c0c8d348a47b76d716c8e78f425043df9515b8282604051610a6d929190610f1b565b60405180910390a15050565b60025481565b5f81118015610a9057506003548111155b610acf576040517f08c379a0000000000000000000000000000000000000000000000000000000008152600401610ac6906111ac565b60405180910390fd5b5f606482610add919061155c565b14610b1d576040517f08c379a0000000000000000000000000000000000000000000000000000000008152600401610b14906115d6565b60405180910390fd5b603c60015f3373ffffffffffffffffffffffffffffffffffffffff1673ffffffffffffffffffffffffffffffffffffffff1681526020019081526020015f2054610b6791906111f7565b421015610ba9576040517f08c379a0000000000000000000000000000000000000000000000000000000008152600401610ba090611274565b60405180910390fd5b5f606482610bb791906115f4565b9050807f000000000000000000000000000000000000000000000000000000000000000073ffffffffffffffffffffffffffffffffffffffff166370a08231306040518263ffffffff1660e01b8152600401610c1391906110bc565b602060405180830381865afa158015610c2e573d5f5f3e3d5ffd5b505050506040513d601f19601f82011682018060405250810190610c529190611127565b1015610c93576040517f08c379a0000000000000000000000000000000000000000000000000000000008152600401610c8a9061166e565b60405180910390fd5b7f000000000000000000000000000000000000000000000000000000000000000073ffffffffffffffffffffffffffffffffffffffff166323b872dd3330856040518463ffffffff1660e01b8152600401610cf09392919061133b565b6020604051808303815f875af1158015610d0c573d5f5f3e3d5ffd5b505050506040513d601f19601f82011682018060405250810190610d3091906113a5565b610d6f576040517f08c379a0000000000000000000000000000000000000000000000000000000008152600401610d66906114a9565b60405180910390fd5b7f000000000000000000000000000000000000000000000000000000000000000073ffffffffffffffffffffffffffffffffffffffff1663a9059cbb33836040518363ffffffff1660e01b8152600401610dca929190611438565b6020604051808303815f875af1158015610de6573d5f5f3e3d5ffd5b505050506040513d601f19601f82011682018060405250810190610e0a91906113a5565b610e49576040517f08c379a0000000000000000000000000000000000000000000000000000000008152600401610e409061141a565b60405180910390fd5b4260015f3373ffffffffffffffffffffffffffffffffffffffff1673ffffffffffffffffffffffffffffffffffffffff1681526020019081526020015f20819055503373ffffffffffffffffffffffffffffffffffffffff167f54085c0a07205a377cf782ba9bb7ef66cf0fce452a53c9dc61ccc25f080f02968383604051610ed3929190610f1b565b60405180910390a25050565b7f000000000000000000000000000000000000000000000000000000000000000081565b5f819050919050565b610f1581610f03565b82525050565b5f604082019050610f2e5f830185610f0c565b610f3b6020830184610f0c565b9392505050565b5f5ffd5b610f4f81610f03565b8114610f59575f5ffd5b50565b5f81359050610f6a81610f46565b92915050565b5f60208284031215610f8557610f84610f42565b5b5f610f9284828501610f5c565b91505092915050565b5f73ffffffffffffffffffffffffffffffffffffffff82169050919050565b5f610fc482610f9b565b9050919050565b610fd481610fba565b8114610fde575f5ffd5b50565b5f81359050610fef81610fcb565b92915050565b5f6020828403121561100a57611009610f42565b5b5f61101784828501610fe1565b91505092915050565b5f6020820190506110335f830184610f0c565b92915050565b5f819050919050565b5f61105c61105761105284610f9b565b611039565b610f9b565b9050919050565b5f61106d82611042565b9050919050565b5f61107e82611063565b9050919050565b61108e81611074565b82525050565b5f6020820190506110a75f830184611085565b92915050565b6110b681610fba565b82525050565b5f6020820190506110cf5f8301846110ad565b92915050565b5f5f604083850312156110eb576110ea610f42565b5b5f6110f885828601610f5c565b925050602061110985828601610f5c565b9150509250929050565b5f8151905061112181610f46565b92915050565b5f6020828403121561113c5761113b610f42565b5b5f61114984828501611113565b91505092915050565b5f82825260208201905092915050565b7f496e76616c696420616d6f756e740000000000000000000000000000000000005f82015250565b5f611196600e83611152565b91506111a182611162565b602082019050919050565b5f6020820190508181035f8301526111c38161118a565b9050919050565b7f4e487b71000000000000000000000000000000000000000000000000000000005f52601160045260245ffd5b5f61120182610f03565b915061120c83610f03565b9250828201905080821115611224576112236111ca565b5b92915050565b7f546f6f206672657175656e7400000000000000000000000000000000000000005f82015250565b5f61125e600c83611152565b91506112698261122a565b602082019050919050565b5f6020820190508181035f83015261128b81611252565b9050919050565b5f61129c82610f03565b91506112a783610f03565b92508282026112b581610f03565b915082820484148315176112cc576112cb6111ca565b5b5092915050565b7f496e73756666696369656e742047544b206c69717569646974790000000000005f82015250565b5f611307601a83611152565b9150611312826112d3565b602082019050919050565b5f6020820190508181035f830152611334816112fb565b9050919050565b5f60608201905061134e5f8301866110ad565b61135b60208301856110ad565b6113686040830184610f0c565b949350505050565b5f8115159050919050565b61138481611370565b811461138e575f5ffd5b50565b5f8151905061139f8161137b565b92915050565b5f602082840312156113ba576113b9610f42565b5b5f6113c784828501611391565b91505092915050565b7f544f574552207472616e73666572206661696c656400000000000000000000005f82015250565b5f611404601583611152565b915061140f826113d0565b602082019050919050565b5f6020820190508181035f830152611431816113f8565b9050919050565b5f60408201905061144b5f8301856110ad565b6114586020830184610f0c565b9392505050565b7f47544b207472616e73666572206661696c6564000000000000000000000000005f82015250565b5f611493601383611152565b915061149e8261145f565b602082019050919050565b5f6020820190508181035f8301526114c081611487565b9050919050565b7f4e6f74206f776e657200000000000000000000000000000000000000000000005f82015250565b5f6114fb600983611152565b9150611506826114c7565b602082019050919050565b5f6020820190508181035f830152611528816114ef565b9050919050565b7f4e487b71000000000000000000000000000000000000000000000000000000005f52601260045260245ffd5b5f61156682610f03565b915061157183610f03565b9250826115815761158061152f565b5b828206905092915050565b7f47544b206d75737420626520646976697369626c6520627920313030000000005f82015250565b5f6115c0601c83611152565b91506115cb8261158c565b602082019050919050565b5f6020820190508181035f8301526115ed816115b4565b9050919050565b5f6115fe82610f03565b915061160983610f03565b9250826116195761161861152f565b5b828204905092915050565b7f496e73756666696369656e7420544f574552206c6971756964697479000000005f82015250565b5f611658601c83611152565b915061166382611624565b602082019050919050565b5f6020820190508181035f8301526116858161164c565b905091905056fea2646970667358221220677d68c28a4cee41735c19d9d88510ec5ac872b0ae11f07c32e919801bca87c664736f6c634300081c0033","linkReferences":{}},"methodIdentifiers":{"MIN_SWAP_INTERVAL()":"6f4959d4","RATIO()":"59e741d2","addLiquidity(uint256,uint256)":"9cd441da","getReserves()":"0902f1ac","gtkToken()":"7ec459b8","lastSwapTime(address)":"4ece7c06","maxGTKPerSwap()":"85d64d32","maxTowerPerSwap()":"a904fc58","owner()":"8da5cb5b","swapGTKForTower(uint256)":"bd5dbdb9","swapTowerForGTK(uint256)":"184fb759","towerToken()":"c38c2df7"},"id":60}