{"abi":[{"type":"constructor","inputs":[{"name":"uri","type":"string","internalType":"string"}],"stateMutability":"nonpayable"},{"type":"function","name":"authorizeMinter","inputs":[{"name":"minter","type":"address","internalType":"address"}],"outputs":[],"stateMutability":"nonpayable"},{"type":"function","name":"authorizedMinters","inputs":[{"name":"","type":"address","internalType":"address"}],"outputs":[{"name":"","type":"bool","internalType":"bool"}],"stateMutability":"view"},{"type":"function","name":"balanceOf","inputs":[{"name":"account","type":"address","internalType":"address"},{"name":"id","type":"uint256","internalType":"uint256"}],"outputs":[{"name":"","type":"uint256","internalType":"uint256"}],"stateMutability":"view"},{"type":"function","name":"balanceOfBatch","inputs":[{"name":"accounts","type":"address[]","internalType":"address[]"},{"name":"ids","type":"uint256[]","internalType":"uint256[]"}],"outputs":[{"name":"","type":"uint256[]","internalType":"uint256[]"}],"stateMutability":"view"},{"type":"function","name":"burn","inputs":[{"name":"from","type":"address","internalType":"address"},{"name":"id","type":"uint256","internalType":"uint256"},{"name":"amount","type":"uint256","internalType":"uint256"}],"outputs":[],"stateMutability":"nonpayable"},{"type":"function","name":"createItem","inputs":[{"name":"itemType","type":"string","internalType":"string"},{"name":"name","type":"string","internalType":"string"},{"name":"rarity","type":"string","internalType":"string"},{"name":"isConsumable","type":"bool","internalType":"bool"},{"name":"maxSupply","type":"uint256","internalType":"uint256"},{"name":"tokenURI","type":"string","internalType":"string"}],"outputs":[{"name":"","type":"uint256","internalType":"uint256"}],"stateMutability":"nonpayable"},{"type":"function","name":"exists","inputs":[{"name":"id","type":"uint256","internalType":"uint256"}],"outputs":[{"name":"","type":"bool","internalType":"bool"}],"stateMutability":"view"},{"type":"function","name":"getItemData","inputs":[{"name":"id","type":"uint256","internalType":"uint256"}],"outputs":[{"name":"","type":"tuple","internalType":"struct ItemNFT.ItemData","components":[{"name":"itemType","type":"string","internalType":"string"},{"name":"name","type":"string","internalType":"string"},{"name":"rarity","type":"string","internalType":"string"},{"name":"isConsumable","type":"bool","internalType":"bool"},{"name":"maxSupply","type":"uint256","internalType":"uint256"},{"name":"createdAt","type":"uint256","internalType":"uint256"}]}],"stateMutability":"view"},{"type":"function","name":"isApprovedForAll","inputs":[{"name":"account","type":"address","internalType":"address"},{"name":"operator","type":"address","internalType":"address"}],"outputs":[{"name":"","type":"bool","internalType":"bool"}],"stateMutability":"view"},{"type":"function","name":"items","inputs":[{"name":"","type":"uint256","internalType":"uint256"}],"outputs":[{"name":"itemType","type":"string","internalType":"string"},{"name":"name","type":"string","internalType":"string"},{"name":"rarity","type":"string","internalType":"string"},{"name":"isConsumable","type":"bool","internalType":"bool"},{"name":"maxSupply","type":"uint256","internalType":"uint256"},{"name":"createdAt","type":"uint256","internalType":"uint256"}],"stateMutability":"view"},{"type":"function","name":"mint","inputs":[{"name":"to","type":"address","internalType":"address"},{"name":"id","type":"uint256","internalType":"uint256"},{"name":"amount","type":"uint256","internalType":"uint256"}],"outputs":[],"stateMutability":"nonpayable"},{"type":"function","name":"mintBatch","inputs":[{"name":"to","type":"address","internalType":"address"},{"name":"ids","type":"uint256[]","internalType":"uint256[]"},{"name":"amounts","type":"uint256[]","internalType":"uint256[]"}],"outputs":[],"stateMutability":"nonpayable"},{"type":"function","name":"owner","inputs":[],"outputs":[{"name":"","type":"address","internalType":"address"}],"stateMutability":"view"},{"type":"function","name":"renounceOwnership","inputs":[],"outputs":[],"stateMutability":"nonpayable"},{"type":"function","name":"revokeMinter","inputs":[{"name":"minter","type":"address","internalType":"address"}],"outputs":[],"stateMutability":"nonpayable"},{"type":"function","name":"safeBatchTransferFrom","inputs":[{"name":"from","type":"address","internalType":"address"},{"name":"to","type":"address","internalType":"address"},{"name":"ids","type":"uint256[]","internalType":"uint256[]"},{"name":"values","type":"uint256[]","internalType":"uint256[]"},{"name":"data","type":"bytes","internalType":"bytes"}],"outputs":[],"stateMutability":"nonpayable"},{"type":"function","name":"safeTransferFrom","inputs":[{"name":"from","type":"address","internalType":"address"},{"name":"to","type":"address","internalType":"address"},{"name":"id","type":"uint256","internalType":"uint256"},{"name":"value","type":"uint256","internalType":"uint256"},{"name":"data","type":"bytes","internalType":"bytes"}],"outputs":[],"stateMutability":"nonpayable"},{"type":"function","name":"setApprovalForAll","inputs":[{"name":"operator","type":"address","internalType":"address"},{"name":"approved","type":"bool","internalType":"bool"}],"outputs":[],"stateMutability":"nonpayable"},{"type":"function","name":"setURI","inputs":[{"name":"tokenId","type":"uint256","internalType":"uint256"},{"name":"tokenURI","type":"string","internalType":"string"}],"outputs":[],"stateMutability":"nonpayable"},{"type":"function","name":"supportsInterface","inputs":[{"name":"interfaceId","type":"bytes4","internalType":"bytes4"}],"outputs":[{"name":"","type":"bool","internalType":"bool"}],"stateMutability":"view"},{"type":"function","name":"totalSupply","inputs":[],"outputs":[{"name":"","type":"uint256","internalType":"uint256"}],"stateMutability":"view"},{"type":"function","name":"totalSupply","inputs":[{"name":"id","type":"uint256","internalType":"uint256"}],"outputs":[{"name":"","type":"uint256","internalType":"uint256"}],"stateMutability":"view"},{"type":"function","name":"transferOwnership","inputs":[{"name":"newOwner","type":"address","internalType":"address"}],"outputs":[],"stateMutability":"nonpayable"},{"type":"function","name":"uri","inputs":[{"name":"tokenId","type":"uint256","internalType":"uint256"}],"outputs":[{"name":"","type":"string","internalType":"string"}],"stateMutability":"view"},{"type":"event","name":"ApprovalForAll","inputs":[{"name":"account","type":"address","indexed":true,"internalType":"address"},{"name":"operator","type":"address","indexed":true,"internalType":"address"},{"name":"approved","type":"bool","indexed":false,"internalType":"bool"}],"anonymous":false},{"type":"event","name":"ItemCreated","inputs":[{"name":"itemId","type":"uint256","indexed":true,"internalType":"uint256"},{"name":"itemType","type":"string","indexed":false,"internalType":"string"},{"name":"name","type":"string","indexed":false,"internalType":"string"},{"name":"rarity","type":"string","indexed":false,"internalType":"string"}],"anonymous":false},{"type":"event","name":"MinterAuthorized","inputs":[{"name":"minter","type":"address","indexed":true,"internalType":"address"}],"anonymous":false},{"type":"event","name":"MinterRevoked","inputs":[{"name":"minter","type":"address","indexed":true,"internalType":"address"}],"anonymous":false},{"type":"event","name":"OwnershipTransferred","inputs":[{"name":"previousOwner","type":"address","indexed":true,"internalType":"address"},{"name":"newOwner","type":"address","indexed":true,"internalType":"address"}],"anonymous":false},{"type":"event","name":"TransferBatch","inputs":[{"name":"operator","type":"address","indexed":true,"internalType":"address"},{"name":"from","type":"address","indexed":true,"internalType":"address"},{"name":"to","type":"address","indexed":true,"internalType":"address"},{"name":"ids","type":"uint256[]","indexed":false,"internalType":"uint256[]"},{"name":"values","type":"uint256[]","indexed":false,"internalType":"uint256[]"}],"anonymous":false},{"type":"event","name":"TransferSingle","inputs":[{"name":"operator","type":"address","indexed":true,"internalType":"address"},{"name":"from","type":"address","indexed":true,"internalType":"address"},{"name":"to","type":"address","indexed":true,"internalType":"address"},{"name":"id","type":"uint256","indexed":false,"internalType":"uint256"},{"name":"value","type":"uint256","indexed":false,"internalType":"uint256"}],"anonymous":false},{"type":"event","name":"URI","inputs":[{"name":"value","type":"string","indexed":false,"internalType":"string"},{"name":"id","type":"uint256","indexed":true,"internalType":"uint256"}],"anonymous":false},{"type":"error","name":"ERC1155InsufficientBalance","inputs":[{"name":"sender","type":"address","internalType":"address"},{"name":"balance","type":"uint256","internalType":"uint256"},{"name":"needed","type":"uint256","internalType":"uint256"},{"name":"tokenId","type":"uint256","internalType":"uint256"}]},{"type":"error","name":"ERC1155InvalidApprover","inputs":[{"name":"approver","type":"address","internalType":"address"}]},{"type":"error","name":"ERC1155InvalidArrayLength","inputs":[{"name":"idsLength","type":"uint256","internalType":"uint256"},{"name":"valuesLength","type":"uint256","internalType":"uint256"}]},{"type":"error","name":"ERC1155InvalidOperator","inputs":[{"name":"operator","type":"address","internalType":"address"}]},{"type":"error","name":"ERC1155InvalidReceiver","inputs":[{"name":"receiver","type":"address","internalType":"address"}]},{"type":"error","name":"ERC1155InvalidSender","inputs":[{"name":"sender","type":"address","internalType":"address"}]},{"type":"error","name":"ERC1155MissingApprovalForAll","inputs":[{"name":"operator","type":"address","internalType":"address"},{"name":"owner","type":"address","internalType":"address"}]},{"type":"error","name":"OwnableInvalidOwner","inputs":[{"name":"owner","type":"address","internalType":"address"}]},{"type":"error","name":"OwnableUnauthorizedAccount","inputs":[{"name":"account","type":"address","internalType":"address"}]}],"bytecode":{"object":"0x608060405234801561000f575f5ffd5b50604051614159380380614159833981810160405281019061003191906102ec565b3381610042816100c960201b60201c565b505f73ffffffffffffffffffffffffffffffffffffffff168173ffffffffffffffffffffffffffffffffffffffff16036100b3575f6040517f1e4fbdf70000000000000000000000000000000000000000000000000000000081526004016100aa9190610372565b60405180910390fd5b6100c2816100dc60201b60201c565b505061066a565b80600290816100d8919061059b565b5050565b5f60055f9054906101000a900473ffffffffffffffffffffffffffffffffffffffff1690508160055f6101000a81548173ffffffffffffffffffffffffffffffffffffffff021916908373ffffffffffffffffffffffffffffffffffffffff1602179055508173ffffffffffffffffffffffffffffffffffffffff168173ffffffffffffffffffffffffffffffffffffffff167f8be0079c531659141344cd1fd0a4f28419497f9722a3daafe3b4186f6b6457e060405160405180910390a35050565b5f604051905090565b5f5ffd5b5f5ffd5b5f5ffd5b5f5ffd5b5f601f19601f8301169050919050565b7f4e487b71000000000000000000000000000000000000000000000000000000005f52604160045260245ffd5b6101fe826101b8565b810181811067ffffffffffffffff8211171561021d5761021c6101c8565b5b80604052505050565b5f61022f61019f565b905061023b82826101f5565b919050565b5f67ffffffffffffffff82111561025a576102596101c8565b5b610263826101b8565b9050602081019050919050565b8281835e5f83830152505050565b5f61029061028b84610240565b610226565b9050828152602081018484840111156102ac576102ab6101b4565b5b6102b7848285610270565b509392505050565b5f82601f8301126102d3576102d26101b0565b5b81516102e384826020860161027e565b91505092915050565b5f60208284031215610301576103006101a8565b5b5f82015167ffffffffffffffff81111561031e5761031d6101ac565b5b61032a848285016102bf565b91505092915050565b5f73ffffffffffffffffffffffffffffffffffffffff82169050919050565b5f61035c82610333565b9050919050565b61036c81610352565b82525050565b5f6020820190506103855f830184610363565b92915050565b5f81519050919050565b7f4e487b71000000000000000000000000000000000000000000000000000000005f52602260045260245ffd5b5f60028204905060018216806103d957607f821691505b6020821081036103ec576103eb610395565b5b50919050565b5f819050815f5260205f209050919050565b5f6020601f8301049050919050565b5f82821b905092915050565b5f6008830261044e7fffffffffffffffffffffffffffffffffffffffffffffffffffffffffffffffff82610413565b6104588683610413565b95508019841693508086168417925050509392505050565b5f819050919050565b5f819050919050565b5f61049c61049761049284610470565b610479565b610470565b9050919050565b5f819050919050565b6104b583610482565b6104c96104c1826104a3565b84845461041f565b825550505050565b5f5f905090565b6104e06104d1565b6104eb8184846104ac565b505050565b5b8181101561050e576105035f826104d8565b6001810190506104f1565b5050565b601f82111561055357610524816103f2565b61052d84610404565b8101602085101561053c578190505b61055061054885610404565b8301826104f0565b50505b505050565b5f82821c905092915050565b5f6105735f1984600802610558565b1980831691505092915050565b5f61058b8383610564565b9150826002028217905092915050565b6105a48261038b565b67ffffffffffffffff8111156105bd576105bc6101c8565b5b6105c782546103c2565b6105d2828285610512565b5f60209050601f831160018114610603575f84156105f1578287015190505b6105fb8582610580565b865550610662565b601f198416610611866103f2565b5f5b8281101561063857848901518255600182019150602085019450602081019050610613565b868310156106555784890151610651601f891682610564565b8355505b6001600288020188555050505b505050505050565b613ae2806106775f395ff3fe608060405234801561000f575f5ffd5b5060043610610155575f3560e01c80638bc6976e116100c1578063cfbd48851161007a578063cfbd488514610410578063d81d0a151461042c578063e985e9c514610448578063f242432a14610478578063f2fde38b14610494578063f5298aca146104b057610155565b80638bc6976e146103115780638da5cb5b14610341578063a22cb4651461035f578063aa2fe91b1461037b578063bd85b039146103ab578063bfb231d2146103db57610155565b80632eb2c2d6116101135780632eb2c2d61461023f5780634e1273f41461025b5780634f558e791461028b57806362f41b3c146102bb578063715018a6146102eb578063862440e2146102f557610155565b8062fdd58e1461015957806301ffc9a7146101895780630c984832146101b95780630e89341c146101d5578063156e29f61461020557806318160ddd14610221575b5f5ffd5b610173600480360381019061016e9190612705565b6104cc565b6040516101809190612752565b60405180910390f35b6101a3600480360381019061019e91906127c0565b610521565b6040516101b09190612805565b60405180910390f35b6101d360048036038101906101ce919061281e565b610602565b005b6101ef60048036038101906101ea9190612849565b6106a5565b6040516101fc91906128e4565b60405180910390f35b61021f600480360381019061021a9190612904565b610746565b005b6102296108cb565b6040516102369190612752565b60405180910390f35b61025960048036038101906102549190612b44565b6108d4565b005b61027560048036038101906102709190612ccf565b61097b565b6040516102829190612dfc565b60405180910390f35b6102a560048036038101906102a09190612849565b610a85565b6040516102b29190612805565b60405180910390f35b6102d560048036038101906102d09190612ee4565b610a98565b6040516102e29190612752565b60405180910390f35b6102f3610bd9565b005b61030f600480360381019061030a9190612fdd565b610bec565b005b61032b60048036038101906103269190612849565b610c17565b6040516103389190613122565b60405180910390f35b610349610e75565b6040516103569190613151565b60405180910390f35b6103796004803603810190610374919061316a565b610e9d565b005b6103956004803603810190610390919061281e565b610eb3565b6040516103a29190612805565b60405180910390f35b6103c560048036038101906103c09190612849565b610ed0565b6040516103d29190612752565b60405180910390f35b6103f560048036038101906103f09190612849565b610eea565b604051610407969594939291906131a8565b60405180910390f35b61042a6004803603810190610425919061281e565b6110c0565b005b6104466004803603810190610441919061321c565b611162565b005b610462600480360381019061045d91906132a4565b611385565b60405161046f9190612805565b60405180910390f35b610492600480360381019061048d91906132e2565b611413565b005b6104ae60048036038101906104a9919061281e565b6114ba565b005b6104ca60048036038101906104c59190612904565b61153e565b005b5f5f5f8381526020019081526020015f205f8473ffffffffffffffffffffffffffffffffffffffff1673ffffffffffffffffffffffffffffffffffffffff1681526020019081526020015f2054905092915050565b5f7fd9b67a26000000000000000000000000000000000000000000000000000000007bffffffffffffffffffffffffffffffffffffffffffffffffffffffff1916827bffffffffffffffffffffffffffffffffffffffffffffffffffffffff191614806105eb57507f0e89341c000000000000000000000000000000000000000000000000000000007bffffffffffffffffffffffffffffffffffffffffffffffffffffffff1916827bffffffffffffffffffffffffffffffffffffffffffffffffffffffff1916145b806105fb57506105fa826115cd565b5b9050919050565b61060a611636565b600160085f8373ffffffffffffffffffffffffffffffffffffffff1673ffffffffffffffffffffffffffffffffffffffff1681526020019081526020015f205f6101000a81548160ff0219169083151502179055508073ffffffffffffffffffffffffffffffffffffffff167f83b05b6735acd4b85e3bded8e72c851d1a87718f81e3c8e6f0c9d9a2baa88e4660405160405180910390a250565b606060075f8381526020019081526020015f2080546106c3906133a2565b80601f01602080910402602001604051908101604052809291908181526020018280546106ef906133a2565b801561073a5780601f106107115761010080835404028352916020019161073a565b820191905f5260205f20905b81548152906001019060200180831161071d57829003601f168201915b50505050509050919050565b60085f3373ffffffffffffffffffffffffffffffffffffffff1673ffffffffffffffffffffffffffffffffffffffff1681526020019081526020015f205f9054906101000a900460ff166107cf576040517f08c379a00000000000000000000000000000000000000000000000000000000081526004016107c69061341c565b60405180910390fd5b5f60065f8481526020019081526020015f206005015411610825576040517f08c379a000000000000000000000000000000000000000000000000000000000815260040161081c90613484565b60405180910390fd5b5f60065f8481526020019081526020015f206004015411156108ac5760065f8381526020019081526020015f20600401548161086084610ed0565b61086a91906134cf565b11156108ab576040517f08c379a00000000000000000000000000000000000000000000000000000000081526004016108a29061354c565b60405180910390fd5b5b6108c683838360405180602001604052805f8152506116bd565b505050565b5f600454905090565b5f6108dd611752565b90508073ffffffffffffffffffffffffffffffffffffffff168673ffffffffffffffffffffffffffffffffffffffff161415801561092257506109208682611385565b155b156109665780866040517fe237d92200000000000000000000000000000000000000000000000000000000815260040161095d92919061356a565b60405180910390fd5b6109738686868686611759565b505050505050565b606081518351146109c757815183516040517f5b0599910000000000000000000000000000000000000000000000000000000081526004016109be929190613591565b60405180910390fd5b5f835167ffffffffffffffff8111156109e3576109e2612958565b5b604051908082528060200260200182016040528015610a115781602001602082028036833780820191505090505b5090505f5f90505b8451811015610a7a57610a50610a38828761184d90919063ffffffff16565b610a4b838761186090919063ffffffff16565b6104cc565b828281518110610a6357610a626135b8565b5b602002602001018181525050806001019050610a19565b508091505092915050565b5f5f610a9083610ed0565b119050919050565b5f610aa1611636565b5f60095f815480929190610ab4906135e5565b9190505590506040518060c0016040528089815260200188815260200187815260200186151581526020018581526020014281525060065f8381526020019081526020015f205f820151815f019081610b0d91906137cc565b506020820151816001019081610b2391906137cc565b506040820151816002019081610b3991906137cc565b506060820151816003015f6101000a81548160ff0219169083151502179055506080820151816004015560a082015181600501559050508260075f8381526020019081526020015f209081610b8e91906137cc565b50807f95e04d1a7ad6b08119551a486a6e61d5be7969c038b84999326cffe707c717cd898989604051610bc39392919061389b565b60405180910390a2809150509695505050505050565b610be1611636565b610bea5f611873565b565b610bf4611636565b8060075f8481526020019081526020015f209081610c1291906137cc565b505050565b610c1f612632565b5f60065f8481526020019081526020015f206005015411610c75576040517f08c379a0000000000000000000000000000000000000000000000000000000008152600401610c6c90613484565b60405180910390fd5b60065f8381526020019081526020015f206040518060c00160405290815f82018054610ca0906133a2565b80601f0160208091040260200160405190810160405280929190818152602001828054610ccc906133a2565b8015610d175780601f10610cee57610100808354040283529160200191610d17565b820191905f5260205f20905b815481529060010190602001808311610cfa57829003601f168201915b50505050508152602001600182018054610d30906133a2565b80601f0160208091040260200160405190810160405280929190818152602001828054610d5c906133a2565b8015610da75780601f10610d7e57610100808354040283529160200191610da7565b820191905f5260205f20905b815481529060010190602001808311610d8a57829003601f168201915b50505050508152602001600282018054610dc0906133a2565b80601f0160208091040260200160405190810160405280929190818152602001828054610dec906133a2565b8015610e375780601f10610e0e57610100808354040283529160200191610e37565b820191905f5260205f20905b815481529060010190602001808311610e1a57829003601f168201915b50505050508152602001600382015f9054906101000a900460ff16151515158152602001600482015481526020016005820154815250509050919050565b5f60055f9054906101000a900473ffffffffffffffffffffffffffffffffffffffff16905090565b610eaf610ea8611752565b8383611936565b5050565b6008602052805f5260405f205f915054906101000a900460ff1681565b5f60035f8381526020019081526020015f20549050919050565b6006602052805f5260405f205f91509050805f018054610f09906133a2565b80601f0160208091040260200160405190810160405280929190818152602001828054610f35906133a2565b8015610f805780601f10610f5757610100808354040283529160200191610f80565b820191905f5260205f20905b815481529060010190602001808311610f6357829003601f168201915b505050505090806001018054610f95906133a2565b80601f0160208091040260200160405190810160405280929190818152602001828054610fc1906133a2565b801561100c5780601f10610fe35761010080835404028352916020019161100c565b820191905f5260205f20905b815481529060010190602001808311610fef57829003601f168201915b505050505090806002018054611021906133a2565b80601f016020809104026020016040519081016040528092919081815260200182805461104d906133a2565b80156110985780601f1061106f57610100808354040283529160200191611098565b820191905f5260205f20905b81548152906001019060200180831161107b57829003601f168201915b505050505090806003015f9054906101000a900460ff16908060040154908060050154905086565b6110c8611636565b5f60085f8373ffffffffffffffffffffffffffffffffffffffff1673ffffffffffffffffffffffffffffffffffffffff1681526020019081526020015f205f6101000a81548160ff0219169083151502179055508073ffffffffffffffffffffffffffffffffffffffff167f44f4322f8daa225d5f4877ad0f7d3dfba248a774396f3ca99405ed40a044fe8160405160405180910390a250565b60085f3373ffffffffffffffffffffffffffffffffffffffff1673ffffffffffffffffffffffffffffffffffffffff1681526020019081526020015f205f9054906101000a900460ff166111eb576040517f08c379a00000000000000000000000000000000000000000000000000000000081526004016111e29061341c565b60405180910390fd5b5f5f90505b8251811015611365575f60065f8584815181106112105761120f6135b8565b5b602002602001015181526020019081526020015f206005015411611269576040517f08c379a000000000000000000000000000000000000000000000000000000000815260040161126090613484565b60405180910390fd5b5f60065f8584815181106112805761127f6135b8565b5b602002602001015181526020019081526020015f206004015411156113585760065f8483815181106112b5576112b46135b8565b5b602002602001015181526020019081526020015f20600401548282815181106112e1576112e06135b8565b5b602002602001015161130c8584815181106112ff576112fe6135b8565b5b6020026020010151610ed0565b61131691906134cf565b1115611357576040517f08c379a000000000000000000000000000000000000000000000000000000000815260040161134e9061354c565b60405180910390fd5b5b80806001019150506111f0565b5061138083838360405180602001604052805f815250611a9f565b505050565b5f60015f8473ffffffffffffffffffffffffffffffffffffffff1673ffffffffffffffffffffffffffffffffffffffff1681526020019081526020015f205f8373ffffffffffffffffffffffffffffffffffffffff1673ffffffffffffffffffffffffffffffffffffffff1681526020019081526020015f205f9054906101000a900460ff16905092915050565b5f61141c611752565b90508073ffffffffffffffffffffffffffffffffffffffff168673ffffffffffffffffffffffffffffffffffffffff1614158015611461575061145f8682611385565b155b156114a55780866040517fe237d92200000000000000000000000000000000000000000000000000000000815260040161149c92919061356a565b60405180910390fd5b6114b28686868686611b22565b505050505050565b6114c2611636565b5f73ffffffffffffffffffffffffffffffffffffffff168173ffffffffffffffffffffffffffffffffffffffff1603611532575f6040517f1e4fbdf70000000000000000000000000000000000000000000000000000000081526004016115299190613151565b60405180910390fd5b61153b81611873565b50565b3373ffffffffffffffffffffffffffffffffffffffff168373ffffffffffffffffffffffffffffffffffffffff16148061157e575061157d8333611385565b5b6115bd576040517f08c379a00000000000000000000000000000000000000000000000000000000081526004016115b49061341c565b60405180910390fd5b6115c8838383611c28565b505050565b5f7f01ffc9a7000000000000000000000000000000000000000000000000000000007bffffffffffffffffffffffffffffffffffffffffffffffffffffffff1916827bffffffffffffffffffffffffffffffffffffffffffffffffffffffff1916149050919050565b61163e611752565b73ffffffffffffffffffffffffffffffffffffffff1661165c610e75565b73ffffffffffffffffffffffffffffffffffffffff16146116bb5761167f611752565b6040517f118cdaa70000000000000000000000000000000000000000000000000000000081526004016116b29190613151565b60405180910390fd5b565b5f73ffffffffffffffffffffffffffffffffffffffff168473ffffffffffffffffffffffffffffffffffffffff160361172d575f6040517f57f447ce0000000000000000000000000000000000000000000000000000000081526004016117249190613151565b60405180910390fd5b5f5f6117398585611cca565b9150915061174a5f87848487611cfa565b505050505050565b5f33905090565b5f73ffffffffffffffffffffffffffffffffffffffff168473ffffffffffffffffffffffffffffffffffffffff16036117c9575f6040517f57f447ce0000000000000000000000000000000000000000000000000000000081526004016117c09190613151565b60405180910390fd5b5f73ffffffffffffffffffffffffffffffffffffffff168573ffffffffffffffffffffffffffffffffffffffff1603611839575f6040517f01a835140000000000000000000000000000000000000000000000000000000081526004016118309190613151565b60405180910390fd5b6118468585858585611cfa565b5050505050565b5f60208202602084010151905092915050565b5f60208202602084010151905092915050565b5f60055f9054906101000a900473ffffffffffffffffffffffffffffffffffffffff1690508160055f6101000a81548173ffffffffffffffffffffffffffffffffffffffff021916908373ffffffffffffffffffffffffffffffffffffffff1602179055508173ffffffffffffffffffffffffffffffffffffffff168173ffffffffffffffffffffffffffffffffffffffff167f8be0079c531659141344cd1fd0a4f28419497f9722a3daafe3b4186f6b6457e060405160405180910390a35050565b5f73ffffffffffffffffffffffffffffffffffffffff168273ffffffffffffffffffffffffffffffffffffffff16036119a6575f6040517fced3e10000000000000000000000000000000000000000000000000000000000815260040161199d9190613151565b60405180910390fd5b8060015f8573ffffffffffffffffffffffffffffffffffffffff1673ffffffffffffffffffffffffffffffffffffffff1681526020019081526020015f205f8473ffffffffffffffffffffffffffffffffffffffff1673ffffffffffffffffffffffffffffffffffffffff1681526020019081526020015f205f6101000a81548160ff0219169083151502179055508173ffffffffffffffffffffffffffffffffffffffff168373ffffffffffffffffffffffffffffffffffffffff167f17307eab39ab6107e8899845ad3d59bd9653f200f220920489ca2b5937696c3183604051611a929190612805565b60405180910390a3505050565b5f73ffffffffffffffffffffffffffffffffffffffff168473ffffffffffffffffffffffffffffffffffffffff1603611b0f575f6040517f57f447ce000000000000000000000000000000000000000000000000000000008152600401611b069190613151565b60405180910390fd5b611b1c5f85858585611cfa565b50505050565b5f73ffffffffffffffffffffffffffffffffffffffff168473ffffffffffffffffffffffffffffffffffffffff1603611b92575f6040517f57f447ce000000000000000000000000000000000000000000000000000000008152600401611b899190613151565b60405180910390fd5b5f73ffffffffffffffffffffffffffffffffffffffff168573ffffffffffffffffffffffffffffffffffffffff1603611c02575f6040517f01a83514000000000000000000000000000000000000000000000000000000008152600401611bf99190613151565b60405180910390fd5b5f5f611c0e8585611cca565b91509150611c1f8787848487611cfa565b50505050505050565b5f73ffffffffffffffffffffffffffffffffffffffff168373ffffffffffffffffffffffffffffffffffffffff1603611c98575f6040517f01a83514000000000000000000000000000000000000000000000000000000008152600401611c8f9190613151565b60405180910390fd5b5f5f611ca48484611cca565b91509150611cc3855f848460405180602001604052805f815250611cfa565b5050505050565b60608060405191506001825283602083015260408201905060018152826020820152604081016040529250929050565b611d0685858585611da6565b5f73ffffffffffffffffffffffffffffffffffffffff168473ffffffffffffffffffffffffffffffffffffffff1614611d9f575f611d42611752565b90506001845103611d8e575f611d615f8661186090919063ffffffff16565b90505f611d775f8661186090919063ffffffff16565b9050611d87838989858589611db8565b5050611d9d565b611d9c818787878787611f67565b5b505b5050505050565b611db284848484612116565b50505050565b5f8473ffffffffffffffffffffffffffffffffffffffff163b1115611f5f578373ffffffffffffffffffffffffffffffffffffffff1663f23a6e6187878686866040518663ffffffff1660e01b8152600401611e18959493929190613937565b6020604051808303815f875af1925050508015611e5357506040513d601f19601f82011682018060405250810190611e5091906139a3565b60015b611ed4573d805f8114611e81576040519150601f19603f3d011682016040523d82523d5f602084013e611e86565b606091505b505f815103611ecc57846040517f57f447ce000000000000000000000000000000000000000000000000000000008152600401611ec39190613151565b60405180910390fd5b805160208201fd5b63f23a6e6160e01b7bffffffffffffffffffffffffffffffffffffffffffffffffffffffff1916817bffffffffffffffffffffffffffffffffffffffffffffffffffffffff191614611f5d57846040517f57f447ce000000000000000000000000000000000000000000000000000000008152600401611f549190613151565b60405180910390fd5b505b505050505050565b5f8473ffffffffffffffffffffffffffffffffffffffff163b111561210e578373ffffffffffffffffffffffffffffffffffffffff1663bc197c8187878686866040518663ffffffff1660e01b8152600401611fc79594939291906139ce565b6020604051808303815f875af192505050801561200257506040513d601f19601f82011682018060405250810190611fff91906139a3565b60015b612083573d805f8114612030576040519150601f19603f3d011682016040523d82523d5f602084013e612035565b606091505b505f81510361207b57846040517f57f447ce0000000000000000000000000000000000000000000000000000000081526004016120729190613151565b60405180910390fd5b805160208201fd5b63bc197c8160e01b7bffffffffffffffffffffffffffffffffffffffffffffffffffffffff1916817bffffffffffffffffffffffffffffffffffffffffffffffffffffffff19161461210c57846040517f57f447ce0000000000000000000000000000000000000000000000000000000081526004016121039190613151565b60405180910390fd5b505b505050505050565b6121228484848461229f565b5f73ffffffffffffffffffffffffffffffffffffffff168473ffffffffffffffffffffffffffffffffffffffff16036121eb575f5f90505f5f90505b83518110156121d0575f61217b828561186090919063ffffffff16565b90508060035f612194858961186090919063ffffffff16565b81526020019081526020015f205f8282546121af91906134cf565b9250508190555080836121c291906134cf565b92505080600101905061215e565b508060045f8282546121e291906134cf565b92505081905550505b5f73ffffffffffffffffffffffffffffffffffffffff168373ffffffffffffffffffffffffffffffffffffffff1603612299575f5f90505f5f90505b8351811015612287575f612244828561186090919063ffffffff16565b90508060035f61225d858961186090919063ffffffff16565b81526020019081526020015f205f8282540392505081905550808301925050806001019050612227565b508060045f8282540392505081905550505b50505050565b80518251146122e957815181516040517f5b0599910000000000000000000000000000000000000000000000000000000081526004016122e0929190613591565b60405180910390fd5b5f6122f2611752565b90505f5f90505b83518110156124f1575f612316828661186090919063ffffffff16565b90505f61232c838661186090919063ffffffff16565b90505f73ffffffffffffffffffffffffffffffffffffffff168873ffffffffffffffffffffffffffffffffffffffff161461244f575f5f5f8481526020019081526020015f205f8a73ffffffffffffffffffffffffffffffffffffffff1673ffffffffffffffffffffffffffffffffffffffff1681526020019081526020015f20549050818110156123fb57888183856040517f03dee4c50000000000000000000000000000000000000000000000000000000081526004016123f29493929190613a34565b60405180910390fd5b8181035f5f8581526020019081526020015f205f8b73ffffffffffffffffffffffffffffffffffffffff1673ffffffffffffffffffffffffffffffffffffffff1681526020019081526020015f2081905550505b5f73ffffffffffffffffffffffffffffffffffffffff168773ffffffffffffffffffffffffffffffffffffffff16146124e457805f5f8481526020019081526020015f205f8973ffffffffffffffffffffffffffffffffffffffff1673ffffffffffffffffffffffffffffffffffffffff1681526020019081526020015f205f8282546124dc91906134cf565b925050819055505b50508060010190506122f9565b5060018351036125ac575f61250f5f8561186090919063ffffffff16565b90505f6125255f8561186090919063ffffffff16565b90508573ffffffffffffffffffffffffffffffffffffffff168773ffffffffffffffffffffffffffffffffffffffff168473ffffffffffffffffffffffffffffffffffffffff167fc3d58168c5ae7397731d063d5bbf3d657854427343f4c083240f7aacaa2d0f62858560405161259d929190613591565b60405180910390a4505061262b565b8373ffffffffffffffffffffffffffffffffffffffff168573ffffffffffffffffffffffffffffffffffffffff168273ffffffffffffffffffffffffffffffffffffffff167f4a39dc06d4c0dbc64b70af90fd698a233a518aa5d07e595d983b8c0526c8f7fb8686604051612622929190613a77565b60405180910390a45b5050505050565b6040518060c001604052806060815260200160608152602001606081526020015f151581526020015f81526020015f81525090565b5f604051905090565b5f5ffd5b5f5ffd5b5f73ffffffffffffffffffffffffffffffffffffffff82169050919050565b5f6126a182612678565b9050919050565b6126b181612697565b81146126bb575f5ffd5b50565b5f813590506126cc816126a8565b92915050565b5f819050919050565b6126e4816126d2565b81146126ee575f5ffd5b50565b5f813590506126ff816126db565b92915050565b5f5f6040838503121561271b5761271a612670565b5b5f612728858286016126be565b9250506020612739858286016126f1565b9150509250929050565b61274c816126d2565b82525050565b5f6020820190506127655f830184612743565b92915050565b5f7fffffffff0000000000000000000000000000000000000000000000000000000082169050919050565b61279f8161276b565b81146127a9575f5ffd5b50565b5f813590506127ba81612796565b92915050565b5f602082840312156127d5576127d4612670565b5b5f6127e2848285016127ac565b91505092915050565b5f8115159050919050565b6127ff816127eb565b82525050565b5f6020820190506128185f8301846127f6565b92915050565b5f6020828403121561283357612832612670565b5b5f612840848285016126be565b91505092915050565b5f6020828403121561285e5761285d612670565b5b5f61286b848285016126f1565b91505092915050565b5f81519050919050565b5f82825260208201905092915050565b8281835e5f83830152505050565b5f601f19601f8301169050919050565b5f6128b682612874565b6128c0818561287e565b93506128d081856020860161288e565b6128d98161289c565b840191505092915050565b5f6020820190508181035f8301526128fc81846128ac565b905092915050565b5f5f5f6060848603121561291b5761291a612670565b5b5f612928868287016126be565b9350506020612939868287016126f1565b925050604061294a868287016126f1565b9150509250925092565b5f5ffd5b7f4e487b71000000000000000000000000000000000000000000000000000000005f52604160045260245ffd5b61298e8261289c565b810181811067ffffffffffffffff821117156129ad576129ac612958565b5b80604052505050565b5f6129bf612667565b90506129cb8282612985565b919050565b5f67ffffffffffffffff8211156129ea576129e9612958565b5b602082029050602081019050919050565b5f5ffd5b5f612a11612a0c846129d0565b6129b6565b90508083825260208201905060208402830185811115612a3457612a336129fb565b5b835b81811015612a5d5780612a4988826126f1565b845260208401935050602081019050612a36565b5050509392505050565b5f82601f830112612a7b57612a7a612954565b5b8135612a8b8482602086016129ff565b91505092915050565b5f5ffd5b5f67ffffffffffffffff821115612ab257612ab1612958565b5b612abb8261289c565b9050602081019050919050565b828183375f83830152505050565b5f612ae8612ae384612a98565b6129b6565b905082815260208101848484011115612b0457612b03612a94565b5b612b0f848285612ac8565b509392505050565b5f82601f830112612b2b57612b2a612954565b5b8135612b3b848260208601612ad6565b91505092915050565b5f5f5f5f5f60a08688031215612b5d57612b5c612670565b5b5f612b6a888289016126be565b9550506020612b7b888289016126be565b945050604086013567ffffffffffffffff811115612b9c57612b9b612674565b5b612ba888828901612a67565b935050606086013567ffffffffffffffff811115612bc957612bc8612674565b5b612bd588828901612a67565b925050608086013567ffffffffffffffff811115612bf657612bf5612674565b5b612c0288828901612b17565b9150509295509295909350565b5f67ffffffffffffffff821115612c2957612c28612958565b5b602082029050602081019050919050565b5f612c4c612c4784612c0f565b6129b6565b90508083825260208201905060208402830185811115612c6f57612c6e6129fb565b5b835b81811015612c985780612c8488826126be565b845260208401935050602081019050612c71565b5050509392505050565b5f82601f830112612cb657612cb5612954565b5b8135612cc6848260208601612c3a565b91505092915050565b5f5f60408385031215612ce557612ce4612670565b5b5f83013567ffffffffffffffff811115612d0257612d01612674565b5b612d0e85828601612ca2565b925050602083013567ffffffffffffffff811115612d2f57612d2e612674565b5b612d3b85828601612a67565b9150509250929050565b5f81519050919050565b5f82825260208201905092915050565b5f819050602082019050919050565b612d77816126d2565b82525050565b5f612d888383612d6e565b60208301905092915050565b5f602082019050919050565b5f612daa82612d45565b612db48185612d4f565b9350612dbf83612d5f565b805f5b83811015612def578151612dd68882612d7d565b9750612de183612d94565b925050600181019050612dc2565b5085935050505092915050565b5f6020820190508181035f830152612e148184612da0565b905092915050565b5f67ffffffffffffffff821115612e3657612e35612958565b5b612e3f8261289c565b9050602081019050919050565b5f612e5e612e5984612e1c565b6129b6565b905082815260208101848484011115612e7a57612e79612a94565b5b612e85848285612ac8565b509392505050565b5f82601f830112612ea157612ea0612954565b5b8135612eb1848260208601612e4c565b91505092915050565b612ec3816127eb565b8114612ecd575f5ffd5b50565b5f81359050612ede81612eba565b92915050565b5f5f5f5f5f5f60c08789031215612efe57612efd612670565b5b5f87013567ffffffffffffffff811115612f1b57612f1a612674565b5b612f2789828a01612e8d565b965050602087013567ffffffffffffffff811115612f4857612f47612674565b5b612f5489828a01612e8d565b955050604087013567ffffffffffffffff811115612f7557612f74612674565b5b612f8189828a01612e8d565b9450506060612f9289828a01612ed0565b9350506080612fa389828a016126f1565b92505060a087013567ffffffffffffffff811115612fc457612fc3612674565b5b612fd089828a01612e8d565b9150509295509295509295565b5f5f60408385031215612ff357612ff2612670565b5b5f613000858286016126f1565b925050602083013567ffffffffffffffff81111561302157613020612674565b5b61302d85828601612e8d565b9150509250929050565b5f82825260208201905092915050565b5f61305182612874565b61305b8185613037565b935061306b81856020860161288e565b6130748161289c565b840191505092915050565b613088816127eb565b82525050565b5f60c083015f8301518482035f8601526130a88282613047565b915050602083015184820360208601526130c28282613047565b915050604083015184820360408601526130dc8282613047565b91505060608301516130f1606086018261307f565b5060808301516131046080860182612d6e565b5060a083015161311760a0860182612d6e565b508091505092915050565b5f6020820190508181035f83015261313a818461308e565b905092915050565b61314b81612697565b82525050565b5f6020820190506131645f830184613142565b92915050565b5f5f604083850312156131805761317f612670565b5b5f61318d858286016126be565b925050602061319e85828601612ed0565b9150509250929050565b5f60c0820190508181035f8301526131c081896128ac565b905081810360208301526131d481886128ac565b905081810360408301526131e881876128ac565b90506131f760608301866127f6565b6132046080830185612743565b61321160a0830184612743565b979650505050505050565b5f5f5f6060848603121561323357613232612670565b5b5f613240868287016126be565b935050602084013567ffffffffffffffff81111561326157613260612674565b5b61326d86828701612a67565b925050604084013567ffffffffffffffff81111561328e5761328d612674565b5b61329a86828701612a67565b9150509250925092565b5f5f604083850312156132ba576132b9612670565b5b5f6132c7858286016126be565b92505060206132d8858286016126be565b9150509250929050565b5f5f5f5f5f60a086880312156132fb576132fa612670565b5b5f613308888289016126be565b9550506020613319888289016126be565b945050604061332a888289016126f1565b935050606061333b888289016126f1565b925050608086013567ffffffffffffffff81111561335c5761335b612674565b5b61336888828901612b17565b9150509295509295909350565b7f4e487b71000000000000000000000000000000000000000000000000000000005f52602260045260245ffd5b5f60028204905060018216806133b957607f821691505b6020821081036133cc576133cb613375565b5b50919050565b7f4e6f7420617574686f72697a65640000000000000000000000000000000000005f82015250565b5f613406600e8361287e565b9150613411826133d2565b602082019050919050565b5f6020820190508181035f830152613433816133fa565b9050919050565b7f4974656d20646f65736e277420657869737400000000000000000000000000005f82015250565b5f61346e60128361287e565b91506134798261343a565b602082019050919050565b5f6020820190508181035f83015261349b81613462565b9050919050565b7f4e487b71000000000000000000000000000000000000000000000000000000005f52601160045260245ffd5b5f6134d9826126d2565b91506134e4836126d2565b92508282019050808211156134fc576134fb6134a2565b5b92915050565b7f45786365656473206d617820737570706c7900000000000000000000000000005f82015250565b5f61353660128361287e565b915061354182613502565b602082019050919050565b5f6020820190508181035f8301526135638161352a565b9050919050565b5f60408201905061357d5f830185613142565b61358a6020830184613142565b9392505050565b5f6040820190506135a45f830185612743565b6135b16020830184612743565b9392505050565b7f4e487b71000000000000000000000000000000000000000000000000000000005f52603260045260245ffd5b5f6135ef826126d2565b91507fffffffffffffffffffffffffffffffffffffffffffffffffffffffffffffffff8203613621576136206134a2565b5b600182019050919050565b5f819050815f5260205f209050919050565b5f6020601f8301049050919050565b5f82821b905092915050565b5f600883026136887fffffffffffffffffffffffffffffffffffffffffffffffffffffffffffffffff8261364d565b613692868361364d565b95508019841693508086168417925050509392505050565b5f819050919050565b5f6136cd6136c86136c3846126d2565b6136aa565b6126d2565b9050919050565b5f819050919050565b6136e6836136b3565b6136fa6136f2826136d4565b848454613659565b825550505050565b5f5f905090565b613711613702565b61371c8184846136dd565b505050565b5b8181101561373f576137345f82613709565b600181019050613722565b5050565b601f821115613784576137558161362c565b61375e8461363e565b8101602085101561376d578190505b6137816137798561363e565b830182613721565b50505b505050565b5f82821c905092915050565b5f6137a45f1984600802613789565b1980831691505092915050565b5f6137bc8383613795565b9150826002028217905092915050565b6137d582612874565b67ffffffffffffffff8111156137ee576137ed612958565b5b6137f882546133a2565b613803828285613743565b5f60209050601f831160018114613834575f8415613822578287015190505b61382c85826137b1565b865550613893565b601f1984166138428661362c565b5f5b8281101561386957848901518255600182019150602085019450602081019050613844565b868310156138865784890151613882601f891682613795565b8355505b6001600288020188555050505b505050505050565b5f6060820190508181035f8301526138b381866128ac565b905081810360208301526138c781856128ac565b905081810360408301526138db81846128ac565b9050949350505050565b5f81519050919050565b5f82825260208201905092915050565b5f613909826138e5565b61391381856138ef565b935061392381856020860161288e565b61392c8161289c565b840191505092915050565b5f60a08201905061394a5f830188613142565b6139576020830187613142565b6139646040830186612743565b6139716060830185612743565b818103608083015261398381846138ff565b90509695505050505050565b5f8151905061399d81612796565b92915050565b5f602082840312156139b8576139b7612670565b5b5f6139c58482850161398f565b91505092915050565b5f60a0820190506139e15f830188613142565b6139ee6020830187613142565b8181036040830152613a008186612da0565b90508181036060830152613a148185612da0565b90508181036080830152613a2881846138ff565b90509695505050505050565b5f608082019050613a475f830187613142565b613a546020830186612743565b613a616040830185612743565b613a6e6060830184612743565b95945050505050565b5f6040820190508181035f830152613a8f8185612da0565b90508181036020830152613aa38184612da0565b9050939250505056fea2646970667358221220ec08411217aa1ebc9790081f8c8e31ba55cbaa42aae9e2db87af36f54fda445a64736f6c634300081c0033","linkReferences":{}},"methodIdentifiers":{"authorizeMinter(address)":"0c984832","authorizedMinters(address)":"aa2fe91b","balanceOf(address,uint256)":"00fdd58e","balanceOfBatch(address[],uint256[])":"4e1273f4","burn(address,uint256,uint256)":"f5298aca","createItem(string,string,string,bool,uint256,string)":"62f41b3c","exists(uint256)":"4f558e79","getItemData(uint256)":"8bc6976e","isApprovedForAll(address,address)":"e985e9c5","items(uint256)":"bfb231d2","mint(address,uint256,uint256)":"156e29f6","mintBatch(address,uint256[],uint256[])":"d81d0a15","owner()":"8da5cb5b","renounceOwnership()":"715018a6","revokeMinter(address)":"cfbd4885","safeBatchTransferFrom(address,address,uint256[],uint256[],bytes)":"2eb2c2d6","safeTransferFrom(address,address,uint256,uint256,bytes)":"f242432a","setApprovalForAll(address,bool)":"a22cb465","setURI(uint256,string)":"862440e2","supportsInterface(bytes4)":"01ffc9a7","totalSupply()":"18160ddd","totalSupply(uint256)":"bd85b039","transferOwnership(address)":"f2fde38b","uri(uint256)":"0e89341c"},"id":59}