{"abi":[{"type":"constructor","inputs":[{"name":"_treasury","type":"address","internalType":"address"},{"name":"_buybackWallet","type":"address","internalType":"address"},{"name":"_icoWallet","type":"address","internalType":"address"},{"name":"_devWallet","type":"address","internalType":"address"},{"name":"_marketingWallet","type":"address","internalType":"address"},{"name":"_liquidityWallet","type":"address","internalType":"address"}],"stateMutability":"nonpayable"},{"type":"function","name":"BLACKLISTER_ROLE","inputs":[],"outputs":[{"name":"","type":"bytes32","internalType":"bytes32"}],"stateMutability":"view"},{"type":"function","name":"DEFAULT_ADMIN_ROLE","inputs":[],"outputs":[{"name":"","type":"bytes32","internalType":"bytes32"}],"stateMutability":"view"},{"type":"function","name":"FEE_DENOMINATOR","inputs":[],"outputs":[{"name":"","type":"uint256","internalType":"uint256"}],"stateMutability":"view"},{"type":"function","name":"FEE_RECIPIENT","inputs":[],"outputs":[{"name":"","type":"address","internalType":"address"}],"stateMutability":"view"},{"type":"function","name":"MAX_SUPPLY","inputs":[],"outputs":[{"name":"","type":"uint256","internalType":"uint256"}],"stateMutability":"view"},{"type":"function","name":"MINTER_ROLE","inputs":[],"outputs":[{"name":"","type":"bytes32","internalType":"bytes32"}],"stateMutability":"view"},{"type":"function","name":"PAUSER_ROLE","inputs":[],"outputs":[{"name":"","type":"bytes32","internalType":"bytes32"}],"stateMutability":"view"},{"type":"function","name":"TRANSFER_FEE_PERCENT","inputs":[],"outputs":[{"name":"","type":"uint256","internalType":"uint256"}],"stateMutability":"view"},{"type":"function","name":"addToBlacklist","inputs":[{"name":"account","type":"address","internalType":"address"},{"name":"reason","type":"string","internalType":"string"}],"outputs":[],"stateMutability":"nonpayable"},{"type":"function","name":"allowance","inputs":[{"name":"owner","type":"address","internalType":"address"},{"name":"spender","type":"address","internalType":"address"}],"outputs":[{"name":"","type":"uint256","internalType":"uint256"}],"stateMutability":"view"},{"type":"function","name":"approve","inputs":[{"name":"spender","type":"address","internalType":"address"},{"name":"value","type":"uint256","internalType":"uint256"}],"outputs":[{"name":"","type":"bool","internalType":"bool"}],"stateMutability":"nonpayable"},{"type":"function","name":"authorizeMinter","inputs":[{"name":"minter","type":"address","internalType":"address"},{"name":"dailyLimit","type":"uint256","internalType":"uint256"}],"outputs":[],"stateMutability":"nonpayable"},{"type":"function","name":"balanceOf","inputs":[{"name":"account","type":"address","internalType":"address"}],"outputs":[{"name":"","type":"uint256","internalType":"uint256"}],"stateMutability":"view"},{"type":"function","name":"blacklisted","inputs":[{"name":"","type":"address","internalType":"address"}],"outputs":[{"name":"","type":"bool","internalType":"bool"}],"stateMutability":"view"},{"type":"function","name":"burn","inputs":[{"name":"value","type":"uint256","internalType":"uint256"}],"outputs":[],"stateMutability":"nonpayable"},{"type":"function","name":"burnFrom","inputs":[{"name":"account","type":"address","internalType":"address"},{"name":"value","type":"uint256","internalType":"uint256"}],"outputs":[],"stateMutability":"nonpayable"},{"type":"function","name":"buybackWallet","inputs":[],"outputs":[{"name":"","type":"address","internalType":"address"}],"stateMutability":"view"},{"type":"function","name":"dailyVolume","inputs":[{"name":"","type":"uint256","internalType":"uint256"}],"outputs":[{"name":"","type":"uint256","internalType":"uint256"}],"stateMutability":"view"},{"type":"function","name":"dailyVolumeLimit","inputs":[],"outputs":[{"name":"","type":"uint256","internalType":"uint256"}],"stateMutability":"view"},{"type":"function","name":"decimals","inputs":[],"outputs":[{"name":"","type":"uint8","internalType":"uint8"}],"stateMutability":"view"},{"type":"function","name":"getRoleAdmin","inputs":[{"name":"role","type":"bytes32","internalType":"bytes32"}],"outputs":[{"name":"","type":"bytes32","internalType":"bytes32"}],"stateMutability":"view"},{"type":"function","name":"grantRole","inputs":[{"name":"role","type":"bytes32","internalType":"bytes32"},{"name":"account","type":"address","internalType":"address"}],"outputs":[],"stateMutability":"nonpayable"},{"type":"function","name":"hasRole","inputs":[{"name":"role","type":"bytes32","internalType":"bytes32"},{"name":"account","type":"address","internalType":"address"}],"outputs":[{"name":"","type":"bool","internalType":"bool"}],"stateMutability":"view"},{"type":"function","name":"mint","inputs":[{"name":"to","type":"address","internalType":"address"},{"name":"amount","type":"uint256","internalType":"uint256"}],"outputs":[],"stateMutability":"nonpayable"},{"type":"function","name":"minterDailyLimit","inputs":[{"name":"","type":"address","internalType":"address"}],"outputs":[{"name":"","type":"uint256","internalType":"uint256"}],"stateMutability":"view"},{"type":"function","name":"minterDailyMinted","inputs":[{"name":"","type":"address","internalType":"address"},{"name":"","type":"uint256","internalType":"uint256"}],"outputs":[{"name":"","type":"uint256","internalType":"uint256"}],"stateMutability":"view"},{"type":"function","name":"name","inputs":[],"outputs":[{"name":"","type":"string","internalType":"string"}],"stateMutability":"view"},{"type":"function","name":"pause","inputs":[{"name":"reason","type":"string","internalType":"string"}],"outputs":[],"stateMutability":"nonpayable"},{"type":"function","name":"paused","inputs":[],"outputs":[{"name":"","type":"bool","internalType":"bool"}],"stateMutability":"view"},{"type":"function","name":"platformTreasury","inputs":[],"outputs":[{"name":"","type":"address","internalType":"address"}],"stateMutability":"view"},{"type":"function","name":"recoverTokens","inputs":[{"name":"tokenAddress","type":"address","internalType":"address"},{"name":"amount","type":"uint256","internalType":"uint256"}],"outputs":[],"stateMutability":"nonpayable"},{"type":"function","name":"removeFromBlacklist","inputs":[{"name":"account","type":"address","internalType":"address"}],"outputs":[],"stateMutability":"nonpayable"},{"type":"function","name":"renounceRole","inputs":[{"name":"role","type":"bytes32","internalType":"bytes32"},{"name":"callerConfirmation","type":"address","internalType":"address"}],"outputs":[],"stateMutability":"nonpayable"},{"type":"function","name":"revokeMinter","inputs":[{"name":"minter","type":"address","internalType":"address"}],"outputs":[],"stateMutability":"nonpayable"},{"type":"function","name":"revokeRole","inputs":[{"name":"role","type":"bytes32","internalType":"bytes32"},{"name":"account","type":"address","internalType":"address"}],"outputs":[],"stateMutability":"nonpayable"},{"type":"function","name":"supportsInterface","inputs":[{"name":"interfaceId","type":"bytes4","internalType":"bytes4"}],"outputs":[{"name":"","type":"bool","internalType":"bool"}],"stateMutability":"view"},{"type":"function","name":"symbol","inputs":[],"outputs":[{"name":"","type":"string","internalType":"string"}],"stateMutability":"view"},{"type":"function","name":"totalSupply","inputs":[],"outputs":[{"name":"","type":"uint256","internalType":"uint256"}],"stateMutability":"view"},{"type":"function","name":"transfer","inputs":[{"name":"to","type":"address","internalType":"address"},{"name":"value","type":"uint256","internalType":"uint256"}],"outputs":[{"name":"","type":"bool","internalType":"bool"}],"stateMutability":"nonpayable"},{"type":"function","name":"transferFrom","inputs":[{"name":"from","type":"address","internalType":"address"},{"name":"to","type":"address","internalType":"address"},{"name":"value","type":"uint256","internalType":"uint256"}],"outputs":[{"name":"","type":"bool","internalType":"bool"}],"stateMutability":"nonpayable"},{"type":"function","name":"unpause","inputs":[],"outputs":[],"stateMutability":"nonpayable"},{"type":"function","name":"updateBuybackWallet","inputs":[{"name":"newWallet","type":"address","internalType":"address"}],"outputs":[],"stateMutability":"nonpayable"},{"type":"function","name":"updateTreasury","inputs":[{"name":"newTreasury","type":"address","internalType":"address"}],"outputs":[],"stateMutability":"nonpayable"},{"type":"event","name":"Approval","inputs":[{"name":"owner","type":"address","indexed":true,"internalType":"address"},{"name":"spender","type":"address","indexed":true,"internalType":"address"},{"name":"value","type":"uint256","indexed":false,"internalType":"uint256"}],"anonymous":false},{"type":"event","name":"Blacklisted","inputs":[{"name":"account","type":"address","indexed":true,"internalType":"address"},{"name":"reason","type":"string","indexed":false,"internalType":"string"}],"anonymous":false},{"type":"event","name":"BuybackWalletUpdated","inputs":[{"name":"oldWallet","type":"address","indexed":true,"internalType":"address"},{"name":"newWallet","type":"address","indexed":true,"internalType":"address"}],"anonymous":false},{"type":"event","name":"CircuitBreakerTriggered","inputs":[{"name":"volume","type":"uint256","indexed":false,"internalType":"uint256"},{"name":"limit","type":"uint256","indexed":false,"internalType":"uint256"}],"anonymous":false},{"type":"event","name":"EmergencyPause","inputs":[{"name":"by","type":"address","indexed":true,"internalType":"address"},{"name":"reason","type":"string","indexed":false,"internalType":"string"}],"anonymous":false},{"type":"event","name":"MinterAuthorized","inputs":[{"name":"minter","type":"address","indexed":true,"internalType":"address"},{"name":"dailyLimit","type":"uint256","indexed":false,"internalType":"uint256"}],"anonymous":false},{"type":"event","name":"MinterRevoked","inputs":[{"name":"minter","type":"address","indexed":true,"internalType":"address"}],"anonymous":false},{"type":"event","name":"Paused","inputs":[{"name":"account","type":"address","indexed":false,"internalType":"address"}],"anonymous":false},{"type":"event","name":"RoleAdminChanged","inputs":[{"name":"role","type":"bytes32","indexed":true,"internalType":"bytes32"},{"name":"previousAdminRole","type":"bytes32","indexed":true,"internalType":"bytes32"},{"name":"newAdminRole","type":"bytes32","indexed":true,"internalType":"bytes32"}],"anonymous":false},{"type":"event","name":"RoleGranted","inputs":[{"name":"role","type":"bytes32","indexed":true,"internalType":"bytes32"},{"name":"account","type":"address","indexed":true,"internalType":"address"},{"name":"sender","type":"address","indexed":true,"internalType":"address"}],"anonymous":false},{"type":"event","name":"RoleRevoked","inputs":[{"name":"role","type":"bytes32","indexed":true,"internalType":"bytes32"},{"name":"account","type":"address","indexed":true,"internalType":"address"},{"name":"sender","type":"address","indexed":true,"internalType":"address"}],"anonymous":false},{"type":"event","name":"Transfer","inputs":[{"name":"from","type":"address","indexed":true,"internalType":"address"},{"name":"to","type":"address","indexed":true,"internalType":"address"},{"name":"value","type":"uint256","indexed":false,"internalType":"uint256"}],"anonymous":false},{"type":"event","name":"TransferWithFee","inputs":[{"name":"from","type":"address","indexed":true,"internalType":"address"},{"name":"to","type":"address","indexed":true,"internalType":"address"},{"name":"amount","type":"uint256","indexed":false,"internalType":"uint256"},{"name":"fee","type":"uint256","indexed":false,"internalType":"uint256"}],"anonymous":false},{"type":"event","name":"TreasuryUpdated","inputs":[{"name":"oldTreasury","type":"address","indexed":true,"internalType":"address"},{"name":"newTreasury","type":"address","indexed":true,"internalType":"address"}],"anonymous":false},{"type":"event","name":"Unblacklisted","inputs":[{"name":"account","type":"address","indexed":true,"internalType":"address"}],"anonymous":false},{"type":"event","name":"Unpaused","inputs":[{"name":"account","type":"address","indexed":false,"internalType":"address"}],"anonymous":false},{"type":"error","name":"AccessControlBadConfirmation","inputs":[]},{"type":"error","name":"AccessControlUnauthorizedAccount","inputs":[{"name":"account","type":"address","internalType":"address"},{"name":"neededRole","type":"bytes32","internalType":"bytes32"}]},{"type":"error","name":"ERC20InsufficientAllowance","inputs":[{"name":"spender","type":"address","internalType":"address"},{"name":"allowance","type":"uint256","internalType":"uint256"},{"name":"needed","type":"uint256","internalType":"uint256"}]},{"type":"error","name":"ERC20InsufficientBalance","inputs":[{"name":"sender","type":"address","internalType":"address"},{"name":"balance","type":"uint256","internalType":"uint256"},{"name":"needed","type":"uint256","internalType":"uint256"}]},{"type":"error","name":"ERC20InvalidApprover","inputs":[{"name":"approver","type":"address","internalType":"address"}]},{"type":"error","name":"ERC20InvalidReceiver","inputs":[{"name":"receiver","type":"address","internalType":"address"}]},{"type":"error","name":"ERC20InvalidSender","inputs":[{"name":"sender","type":"address","internalType":"address"}]},{"type":"error","name":"ERC20InvalidSpender","inputs":[{"name":"spender","type":"address","internalType":"address"}]},{"type":"error","name":"EnforcedPause","inputs":[]},{"type":"error","name":"ExpectedPause","inputs":[]},{"type":"error","name":"ReentrancyGuardReentrantCall","inputs":[]}],"bytecode":{"object":"0x60806040526a084595161401484a000000600d5534801561001e575f5ffd5b5060405161461a38038061461a83398181016040528101906100409190610afb565b6040518060400160405280600b81526020017f546f77657220546f6b656e0000000000000000000000000000000000000000008152506040518060400160405280600581526020017f544f57455200000000000000000000000000000000000000000000000000000081525081600390816100bb9190610dc1565b5080600490816100cb9190610dc1565b50505060016007819055505f73ffffffffffffffffffffffffffffffffffffffff168673ffffffffffffffffffffffffffffffffffffffff1603610144576040517f08c379a000000000000000000000000000000000000000000000000000000000815260040161013b90610eea565b60405180910390fd5b5f73ffffffffffffffffffffffffffffffffffffffff168573ffffffffffffffffffffffffffffffffffffffff16036101b2576040517f08c379a00000000000000000000000000000000000000000000000000000000081526004016101a990610f52565b60405180910390fd5b8560085f6101000a81548173ffffffffffffffffffffffffffffffffffffffff021916908373ffffffffffffffffffffffffffffffffffffffff1602179055508460095f6101000a81548173ffffffffffffffffffffffffffffffffffffffff021916908373ffffffffffffffffffffffffffffffffffffffff1602179055506102445f5f1b3361031a60201b60201c565b506102757f65d7a28e3265b37a6474929f336521b332c1681b933f6cb9f3376673440d862a3361031a60201b60201c565b506102a67f98db8a220cd0f09badce9f22d0ba7e93edb3d404448cc3560d391ab096ad16e93361031a60201b60201c565b506102c184692a5a058fc295ed00000061041060201b60201c565b6102db8369152d02c7e14af680000061041060201b60201c565b6102f582690a968163f0a57b40000061041060201b60201c565b61030f816989a4921338674240000061041060201b60201c565b5050505050506111b5565b5f61032b838361049560201b60201c565b61040657600160055f8581526020019081526020015f205f015f8473ffffffffffffffffffffffffffffffffffffffff1673ffffffffffffffffffffffffffffffffffffffff1681526020019081526020015f205f6101000a81548160ff0219169083151502179055506103a36104f960201b60201c565b73ffffffffffffffffffffffffffffffffffffffff168273ffffffffffffffffffffffffffffffffffffffff16847f2f8788117e7eff1d82e926ec794901d17c78024a50270940304540a733656f0d60405160405180910390a46001905061040a565b5f90505b92915050565b5f73ffffffffffffffffffffffffffffffffffffffff168273ffffffffffffffffffffffffffffffffffffffff1603610480575f6040517fec442f050000000000000000000000000000000000000000000000000000000081526004016104779190610f7f565b60405180910390fd5b6104915f838361050060201b60201c565b5050565b5f60055f8481526020019081526020015f205f015f8373ffffffffffffffffffffffffffffffffffffffff1673ffffffffffffffffffffffffffffffffffffffff1681526020019081526020015f205f9054906101000a900460ff16905092915050565b5f33905090565b61050e61082860201b60201c565b82600c5f8273ffffffffffffffffffffffffffffffffffffffff1673ffffffffffffffffffffffffffffffffffffffff1681526020019081526020015f205f9054906101000a900460ff1615610599576040517f08c379a000000000000000000000000000000000000000000000000000000000815260040161059090610fe2565b60405180910390fd5b82600c5f8273ffffffffffffffffffffffffffffffffffffffff1673ffffffffffffffffffffffffffffffffffffffff1681526020019081526020015f205f9054906101000a900460ff1615610624576040517f08c379a000000000000000000000000000000000000000000000000000000000815260040161061b90610fe2565b60405180910390fd5b5f73ffffffffffffffffffffffffffffffffffffffff168573ffffffffffffffffffffffffffffffffffffffff16148061068957505f73ffffffffffffffffffffffffffffffffffffffff168473ffffffffffffffffffffffffffffffffffffffff16145b156106a45761069f85858561086f60201b60201c565b610821565b73d210925940d236951f0bfa632a89d76fa1c8883d73ffffffffffffffffffffffffffffffffffffffff168573ffffffffffffffffffffffffffffffffffffffff161480610731575073d210925940d236951f0bfa632a89d76fa1c8883d73ffffffffffffffffffffffffffffffffffffffff168473ffffffffffffffffffffffffffffffffffffffff16145b1561074c5761074785858561086f60201b60201c565b610821565b5f61271060328561075d919061102d565b610767919061109b565b90505f818561077691906110cb565b90505f8211156107a6576107a58773d210925940d236951f0bfa632a89d76fa1c8883d8461086f60201b60201c565b5b6107b787878361086f60201b60201c565b8573ffffffffffffffffffffffffffffffffffffffff168773ffffffffffffffffffffffffffffffffffffffff167f98bc3fe7d138931a49691b623c256b8812f2a3d7f9b25ba7098c82538977a5d0878560405161081692919061110d565b60405180910390a350505b5050505050565b610836610a8860201b60201c565b1561086d576040517fd93c066500000000000000000000000000000000000000000000000000000000815260040160405180910390fd5b565b5f73ffffffffffffffffffffffffffffffffffffffff168373ffffffffffffffffffffffffffffffffffffffff16036108bf578060025f8282546108b39190611134565b9250508190555061098d565b5f5f5f8573ffffffffffffffffffffffffffffffffffffffff1673ffffffffffffffffffffffffffffffffffffffff1681526020019081526020015f2054905081811015610948578381836040517fe450d38c00000000000000000000000000000000000000000000000000000000815260040161093f93929190611167565b60405180910390fd5b8181035f5f8673ffffffffffffffffffffffffffffffffffffffff1673ffffffffffffffffffffffffffffffffffffffff1681526020019081526020015f2081905550505b5f73ffffffffffffffffffffffffffffffffffffffff168273ffffffffffffffffffffffffffffffffffffffff16036109d4578060025f8282540392505081905550610a1e565b805f5f8473ffffffffffffffffffffffffffffffffffffffff1673ffffffffffffffffffffffffffffffffffffffff1681526020019081526020015f205f82825401925050819055505b8173ffffffffffffffffffffffffffffffffffffffff168373ffffffffffffffffffffffffffffffffffffffff167fddf252ad1be2c89b69c2b068fc378daa952ba7f163c4a11628f55a4df523b3ef83604051610a7b919061119c565b60405180910390a3505050565b5f60065f9054906101000a900460ff16905090565b5f5ffd5b5f73ffffffffffffffffffffffffffffffffffffffff82169050919050565b5f610aca82610aa1565b9050919050565b610ada81610ac0565b8114610ae4575f5ffd5b50565b5f81519050610af581610ad1565b92915050565b5f5f5f5f5f5f60c08789031215610b1557610b14610a9d565b5b5f610b2289828a01610ae7565b9650506020610b3389828a01610ae7565b9550506040610b4489828a01610ae7565b9450506060610b5589828a01610ae7565b9350506080610b6689828a01610ae7565b92505060a0610b7789828a01610ae7565b9150509295509295509295565b5f81519050919050565b7f4e487b71000000000000000000000000000000000000000000000000000000005f52604160045260245ffd5b7f4e487b71000000000000000000000000000000000000000000000000000000005f52602260045260245ffd5b5f6002820490506001821680610bff57607f821691505b602082108103610c1257610c11610bbb565b5b50919050565b5f819050815f5260205f209050919050565b5f6020601f8301049050919050565b5f82821b905092915050565b5f60088302610c747fffffffffffffffffffffffffffffffffffffffffffffffffffffffffffffffff82610c39565b610c7e8683610c39565b95508019841693508086168417925050509392505050565b5f819050919050565b5f819050919050565b5f610cc2610cbd610cb884610c96565b610c9f565b610c96565b9050919050565b5f819050919050565b610cdb83610ca8565b610cef610ce782610cc9565b848454610c45565b825550505050565b5f5f905090565b610d06610cf7565b610d11818484610cd2565b505050565b5b81811015610d3457610d295f82610cfe565b600181019050610d17565b5050565b601f821115610d7957610d4a81610c18565b610d5384610c2a565b81016020851015610d62578190505b610d76610d6e85610c2a565b830182610d16565b50505b505050565b5f82821c905092915050565b5f610d995f1984600802610d7e565b1980831691505092915050565b5f610db18383610d8a565b9150826002028217905092915050565b610dca82610b84565b67ffffffffffffffff811115610de357610de2610b8e565b5b610ded8254610be8565b610df8828285610d38565b5f60209050601f831160018114610e29575f8415610e17578287015190505b610e218582610da6565b865550610e88565b601f198416610e3786610c18565b5f5b82811015610e5e57848901518255600182019150602085019450602081019050610e39565b86831015610e7b5784890151610e77601f891682610d8a565b8355505b6001600288020188555050505b505050505050565b5f82825260208201905092915050565b7f496e76616c6964207472656173757279000000000000000000000000000000005f82015250565b5f610ed4601083610e90565b9150610edf82610ea0565b602082019050919050565b5f6020820190508181035f830152610f0181610ec8565b9050919050565b7f496e76616c6964206275796261636b2077616c6c6574000000000000000000005f82015250565b5f610f3c601683610e90565b9150610f4782610f08565b602082019050919050565b5f6020820190508181035f830152610f6981610f30565b9050919050565b610f7981610ac0565b82525050565b5f602082019050610f925f830184610f70565b92915050565b7f4164647265737320697320626c61636b6c6973746564000000000000000000005f82015250565b5f610fcc601683610e90565b9150610fd782610f98565b602082019050919050565b5f6020820190508181035f830152610ff981610fc0565b9050919050565b7f4e487b71000000000000000000000000000000000000000000000000000000005f52601160045260245ffd5b5f61103782610c96565b915061104283610c96565b925082820261105081610c96565b9150828204841483151761106757611066611000565b5b5092915050565b7f4e487b71000000000000000000000000000000000000000000000000000000005f52601260045260245ffd5b5f6110a582610c96565b91506110b083610c96565b9250826110c0576110bf61106e565b5b828204905092915050565b5f6110d582610c96565b91506110e083610c96565b92508282039050818111156110f8576110f7611000565b5b92915050565b61110781610c96565b82525050565b5f6040820190506111205f8301856110fe565b61112d60208301846110fe565b9392505050565b5f61113e82610c96565b915061114983610c96565b925082820190508082111561116157611160611000565b5b92915050565b5f60608201905061117a5f830186610f70565b61118760208301856110fe565b61119460408301846110fe565b949350505050565b5f6020820190506111af5f8301846110fe565b92915050565b613458806111c25f395ff3fe608060405234801561000f575f5ffd5b5060043610610267575f3560e01c80635c975abb1161014f578063cfbd4885116100c1578063dd62ed3e11610085578063dd62ed3e14610757578063deab8aea14610787578063e138818c146107a5578063e63ab1e9146107c3578063ebd09054146107e1578063f515e6f2146107ff57610267565b8063cfbd4885146106b3578063d5391393146106cf578063d547741f146106ed578063d73792a914610709578063dbac26e91461072757610267565b80637f51bb1f116101135780637f51bb1f146105cb57806391d14854146105e7578063943ca3b91461061757806395d89b4114610647578063a217fddf14610665578063a9059cbb1461068357610267565b80635c975abb146105295780636da663551461054757806370a082311461056357806372e475571461059357806379cc6790146105af57610267565b806327e5c54b116101e85780633691920e116101ac5780633691920e146104915780633db26126146104ad5780633f4ba83a146104cb57806340c10f19146104d557806342966c68146104f1578063537df3b61461050d57610267565b806327e5c54b146103ed5780632f2ff15d1461041d578063313ce5671461043957806332cb6b0c1461045757806336568abe1461047557610267565b8063095ea7b31161022f578063095ea7b31461030f57806318160ddd1461033f57806318b674981461035d57806323b872dd1461038d578063248a9ca3146103bd57610267565b806301ffc9a71461026b5780630217626c1461029b57806304dacd50146102b9578063069c9fae146102d557806306fdde03146102f1575b5f5ffd5b61028560048036038101906102809190612815565b61081d565b604051610292919061285a565b60405180910390f35b6102a3610896565b6040516102b0919061288b565b60405180910390f35b6102d360048036038101906102ce91906128fe565b61089c565b005b6102ef60048036038101906102ea9190612953565b6109da565b005b6102f9610ad5565b6040516103069190612a01565b60405180910390f35b61032960048036038101906103249190612953565b610b65565b604051610336919061285a565b60405180910390f35b610347610b87565b604051610354919061288b565b60405180910390f35b610377600480360381019061037291906128fe565b610b90565b604051610384919061288b565b60405180910390f35b6103a760048036038101906103a29190612a21565b610ba5565b6040516103b4919061285a565b60405180910390f35b6103d760048036038101906103d29190612aa4565b610bd3565b6040516103e49190612ade565b60405180910390f35b61040760048036038101906104029190612953565b610bf0565b604051610414919061288b565b60405180910390f35b61043760048036038101906104329190612af7565b610c10565b005b610441610c32565b60405161044e9190612b50565b60405180910390f35b61045f610c3a565b60405161046c919061288b565b60405180910390f35b61048f600480360381019061048a9190612af7565b610c48565b005b6104ab60048036038101906104a69190612bca565b610cc3565b005b6104b5610e52565b6040516104c2919061288b565b60405180910390f35b6104d3610e57565b005b6104ef60048036038101906104ea9190612953565b610e6e565b005b61050b60048036038101906105069190612c27565b61123c565b005b610527600480360381019061052291906128fe565b611250565b005b6105316112f7565b60405161053e919061285a565b60405180910390f35b610561600480360381019061055c9190612c52565b61130c565b005b61057d600480360381019061057891906128fe565b611393565b60405161058a919061288b565b60405180910390f35b6105ad60048036038101906105a89190612953565b6113d8565b005b6105c960048036038101906105c49190612953565b611512565b005b6105e560048036038101906105e091906128fe565b611532565b005b61060160048036038101906105fc9190612af7565b611670565b60405161060e919061285a565b60405180910390f35b610631600480360381019061062c9190612c27565b6116d4565b60405161063e919061288b565b60405180910390f35b61064f6116e9565b60405161065c9190612a01565b60405180910390f35b61066d611779565b60405161067a9190612ade565b60405180910390f35b61069d60048036038101906106989190612953565b61177f565b6040516106aa919061285a565b60405180910390f35b6106cd60048036038101906106c891906128fe565b6117a1565b005b6106d7611861565b6040516106e49190612ade565b60405180910390f35b61070760048036038101906107029190612af7565b611885565b005b6107116118a7565b60405161071e919061288b565b60405180910390f35b610741600480360381019061073c91906128fe565b6118ad565b60405161074e919061285a565b60405180910390f35b610771600480360381019061076c9190612c9d565b6118ca565b60405161077e919061288b565b60405180910390f35b61078f61194c565b60405161079c9190612cea565b60405180910390f35b6107ad611971565b6040516107ba9190612cea565b60405180910390f35b6107cb611996565b6040516107d89190612ade565b60405180910390f35b6107e96119ba565b6040516107f69190612cea565b60405180910390f35b6108076119d2565b6040516108149190612ade565b60405180910390f35b5f7f7965db0b000000000000000000000000000000000000000000000000000000007bffffffffffffffffffffffffffffffffffffffffffffffffffffffff1916827bffffffffffffffffffffffffffffffffffffffffffffffffffffffff1916148061088f575061088e826119f6565b5b9050919050565b600d5481565b5f5f1b6108a881611a5f565b5f73ffffffffffffffffffffffffffffffffffffffff168273ffffffffffffffffffffffffffffffffffffffff1603610916576040517f08c379a000000000000000000000000000000000000000000000000000000000815260040161090d90612d4d565b60405180910390fd5b5f60095f9054906101000a900473ffffffffffffffffffffffffffffffffffffffff1690508260095f6101000a81548173ffffffffffffffffffffffffffffffffffffffff021916908373ffffffffffffffffffffffffffffffffffffffff1602179055508273ffffffffffffffffffffffffffffffffffffffff168173ffffffffffffffffffffffffffffffffffffffff167f36da8748d344842083f47c18719136f60f0bcd2b5e969f56da5fca1b8667201760405160405180910390a3505050565b5f5f1b6109e681611a5f565b3073ffffffffffffffffffffffffffffffffffffffff168373ffffffffffffffffffffffffffffffffffffffff1603610a54576040517f08c379a0000000000000000000000000000000000000000000000000000000008152600401610a4b90612db5565b60405180910390fd5b8273ffffffffffffffffffffffffffffffffffffffff1663a9059cbb33846040518363ffffffff1660e01b8152600401610a8f929190612dd3565b6020604051808303815f875af1158015610aab573d5f5f3e3d5ffd5b505050506040513d601f19601f82011682018060405250810190610acf9190612e24565b50505050565b606060038054610ae490612e7c565b80601f0160208091040260200160405190810160405280929190818152602001828054610b1090612e7c565b8015610b5b5780601f10610b3257610100808354040283529160200191610b5b565b820191905f5260205f20905b815481529060010190602001808311610b3e57829003601f168201915b5050505050905090565b5f5f610b6f611a73565b9050610b7c818585611a7a565b600191505092915050565b5f600254905090565b600a602052805f5260405f205f915090505481565b5f5f610baf611a73565b9050610bbc858285611a8c565b610bc7858585611b1f565b60019150509392505050565b5f60055f8381526020019081526020015f20600101549050919050565b600b602052815f5260405f20602052805f5260405f205f91509150505481565b610c1982610bd3565b610c2281611a5f565b610c2c8383611c0f565b50505050565b5f6012905090565b69d3c21bcecceda100000081565b610c50611a73565b73ffffffffffffffffffffffffffffffffffffffff168173ffffffffffffffffffffffffffffffffffffffff1614610cb4576040517f6697b23200000000000000000000000000000000000000000000000000000000815260040160405180910390fd5b610cbe8282611cf9565b505050565b7f98db8a220cd0f09badce9f22d0ba7e93edb3d404448cc3560d391ab096ad16e9610ced81611a5f565b5f73ffffffffffffffffffffffffffffffffffffffff168473ffffffffffffffffffffffffffffffffffffffff1603610d5b576040517f08c379a0000000000000000000000000000000000000000000000000000000008152600401610d5290612d4d565b60405180910390fd5b610d675f5f1b85611670565b15610da7576040517f08c379a0000000000000000000000000000000000000000000000000000000008152600401610d9e90612ef6565b60405180910390fd5b6001600c5f8673ffffffffffffffffffffffffffffffffffffffff1673ffffffffffffffffffffffffffffffffffffffff1681526020019081526020015f205f6101000a81548160ff0219169083151502179055508373ffffffffffffffffffffffffffffffffffffffff167f71ffd5b2f7b305f2f756c161455e2951077ed1951f9ecbee6252949bc1e13c5a8484604051610e44929190612f4e565b60405180910390a250505050565b603281565b5f5f1b610e6381611a5f565b610e6b611de3565b50565b7f9f2df0fed2c77648de5860a4cc508cd0818c85b8b8a1ab4ceeef8d981c8956a6610e9881611a5f565b610ea0611e44565b610ea8611e8a565b82600c5f8273ffffffffffffffffffffffffffffffffffffffff1673ffffffffffffffffffffffffffffffffffffffff1681526020019081526020015f205f9054906101000a900460ff1615610f33576040517f08c379a0000000000000000000000000000000000000000000000000000000008152600401610f2a90612fba565b60405180910390fd5b5f73ffffffffffffffffffffffffffffffffffffffff168473ffffffffffffffffffffffffffffffffffffffff1603610fa1576040517f08c379a0000000000000000000000000000000000000000000000000000000008152600401610f9890613022565b60405180910390fd5b5f8311610fe3576040517f08c379a0000000000000000000000000000000000000000000000000000000008152600401610fda9061308a565b60405180910390fd5b69d3c21bcecceda100000083610ff7610b87565b61100191906130d5565b1115611042576040517f08c379a000000000000000000000000000000000000000000000000000000000815260040161103990613152565b60405180910390fd5b5f6201518042611052919061319d565b90505f600a5f3373ffffffffffffffffffffffffffffffffffffffff1673ffffffffffffffffffffffffffffffffffffffff1681526020019081526020015f205490505f81111561119a578085600b5f3373ffffffffffffffffffffffffffffffffffffffff1673ffffffffffffffffffffffffffffffffffffffff1681526020019081526020015f205f8581526020019081526020015f20546110f691906130d5565b1115611137576040517f08c379a000000000000000000000000000000000000000000000000000000000815260040161112e90613217565b60405180910390fd5b84600b5f3373ffffffffffffffffffffffffffffffffffffffff1673ffffffffffffffffffffffffffffffffffffffff1681526020019081526020015f205f8481526020019081526020015f205f82825461119291906130d5565b925050819055505b600d5485600e5f8581526020019081526020015f20546111ba91906130d5565b11156111fb576040517f08c379a00000000000000000000000000000000000000000000000000000000081526004016111f2906132a5565b60405180910390fd5b84600e5f8481526020019081526020015f205f82825461121b91906130d5565b9250508190555061122c8686611ecb565b505050611237611f4a565b505050565b61124d611247611a73565b82611f54565b50565b5f5f1b61125c81611a5f565b5f600c5f8473ffffffffffffffffffffffffffffffffffffffff1673ffffffffffffffffffffffffffffffffffffffff1681526020019081526020015f205f6101000a81548160ff0219169083151502179055508173ffffffffffffffffffffffffffffffffffffffff167f7534c63860313c46c473e4e98328f37017e9674e2162faf1a3ad7a96236c3b7b60405160405180910390a25050565b5f60065f9054906101000a900460ff16905090565b7f65d7a28e3265b37a6474929f336521b332c1681b933f6cb9f3376673440d862a61133681611a5f565b61133e611fd3565b3373ffffffffffffffffffffffffffffffffffffffff167fc50068396f19981cb0435611d2c97dde7b6882fdc3185a9fb8080fa756b3974d8484604051611386929190612f4e565b60405180910390a2505050565b5f5f5f8373ffffffffffffffffffffffffffffffffffffffff1673ffffffffffffffffffffffffffffffffffffffff1681526020019081526020015f20549050919050565b5f5f1b6113e481611a5f565b5f73ffffffffffffffffffffffffffffffffffffffff168373ffffffffffffffffffffffffffffffffffffffff1603611452576040517f08c379a00000000000000000000000000000000000000000000000000000000081526004016114499061330d565b60405180910390fd5b61147c7f9f2df0fed2c77648de5860a4cc508cd0818c85b8b8a1ab4ceeef8d981c8956a684611c0f565b5081600a5f8573ffffffffffffffffffffffffffffffffffffffff1673ffffffffffffffffffffffffffffffffffffffff1681526020019081526020015f20819055508273ffffffffffffffffffffffffffffffffffffffff167fdf4c1b61e182ddb110028dd73c55a897f76aebf25c86eb252f960f1ce67ce83983604051611505919061288b565b60405180910390a2505050565b6115248261151e611a73565b83611a8c565b61152e8282611f54565b5050565b5f5f1b61153e81611a5f565b5f73ffffffffffffffffffffffffffffffffffffffff168273ffffffffffffffffffffffffffffffffffffffff16036115ac576040517f08c379a00000000000000000000000000000000000000000000000000000000081526004016115a390612d4d565b60405180910390fd5b5f60085f9054906101000a900473ffffffffffffffffffffffffffffffffffffffff1690508260085f6101000a81548173ffffffffffffffffffffffffffffffffffffffff021916908373ffffffffffffffffffffffffffffffffffffffff1602179055508273ffffffffffffffffffffffffffffffffffffffff168173ffffffffffffffffffffffffffffffffffffffff167f4ab5be82436d353e61ca18726e984e561f5c1cc7c6d38b29d2553c790434705a60405160405180910390a3505050565b5f60055f8481526020019081526020015f205f015f8373ffffffffffffffffffffffffffffffffffffffff1673ffffffffffffffffffffffffffffffffffffffff1681526020019081526020015f205f9054906101000a900460ff16905092915050565b600e602052805f5260405f205f915090505481565b6060600480546116f890612e7c565b80601f016020809104026020016040519081016040528092919081815260200182805461172490612e7c565b801561176f5780601f106117465761010080835404028352916020019161176f565b820191905f5260205f20905b81548152906001019060200180831161175257829003601f168201915b5050505050905090565b5f5f1b81565b5f5f611789611a73565b9050611796818585611b1f565b600191505092915050565b5f5f1b6117ad81611a5f565b6117d77f9f2df0fed2c77648de5860a4cc508cd0818c85b8b8a1ab4ceeef8d981c8956a683611cf9565b505f600a5f8473ffffffffffffffffffffffffffffffffffffffff1673ffffffffffffffffffffffffffffffffffffffff1681526020019081526020015f20819055508173ffffffffffffffffffffffffffffffffffffffff167f44f4322f8daa225d5f4877ad0f7d3dfba248a774396f3ca99405ed40a044fe8160405160405180910390a25050565b7f9f2df0fed2c77648de5860a4cc508cd0818c85b8b8a1ab4ceeef8d981c8956a681565b61188e82610bd3565b61189781611a5f565b6118a18383611cf9565b50505050565b61271081565b600c602052805f5260405f205f915054906101000a900460ff1681565b5f60015f8473ffffffffffffffffffffffffffffffffffffffff1673ffffffffffffffffffffffffffffffffffffffff1681526020019081526020015f205f8373ffffffffffffffffffffffffffffffffffffffff1673ffffffffffffffffffffffffffffffffffffffff1681526020019081526020015f2054905092915050565b60095f9054906101000a900473ffffffffffffffffffffffffffffffffffffffff1681565b60085f9054906101000a900473ffffffffffffffffffffffffffffffffffffffff1681565b7f65d7a28e3265b37a6474929f336521b332c1681b933f6cb9f3376673440d862a81565b73d210925940d236951f0bfa632a89d76fa1c8883d81565b7f98db8a220cd0f09badce9f22d0ba7e93edb3d404448cc3560d391ab096ad16e981565b5f7f01ffc9a7000000000000000000000000000000000000000000000000000000007bffffffffffffffffffffffffffffffffffffffffffffffffffffffff1916827bffffffffffffffffffffffffffffffffffffffffffffffffffffffff1916149050919050565b611a7081611a6b611a73565b612035565b50565b5f33905090565b611a878383836001612086565b505050565b5f611a9784846118ca565b90507fffffffffffffffffffffffffffffffffffffffffffffffffffffffffffffffff811015611b195781811015611b0a578281836040517ffb8f41b2000000000000000000000000000000000000000000000000000000008152600401611b019392919061332b565b60405180910390fd5b611b1884848484035f612086565b5b50505050565b5f73ffffffffffffffffffffffffffffffffffffffff168373ffffffffffffffffffffffffffffffffffffffff1603611b8f575f6040517f96c6fd1e000000000000000000000000000000000000000000000000000000008152600401611b869190612cea565b60405180910390fd5b5f73ffffffffffffffffffffffffffffffffffffffff168273ffffffffffffffffffffffffffffffffffffffff1603611bff575f6040517fec442f05000000000000000000000000000000000000000000000000000000008152600401611bf69190612cea565b60405180910390fd5b611c0a838383612255565b505050565b5f611c1a8383611670565b611cef57600160055f8581526020019081526020015f205f015f8473ffffffffffffffffffffffffffffffffffffffff1673ffffffffffffffffffffffffffffffffffffffff1681526020019081526020015f205f6101000a81548160ff021916908315150217905550611c8c611a73565b73ffffffffffffffffffffffffffffffffffffffff168273ffffffffffffffffffffffffffffffffffffffff16847f2f8788117e7eff1d82e926ec794901d17c78024a50270940304540a733656f0d60405160405180910390a460019050611cf3565b5f90505b92915050565b5f611d048383611670565b15611dd9575f60055f8581526020019081526020015f205f015f8473ffffffffffffffffffffffffffffffffffffffff1673ffffffffffffffffffffffffffffffffffffffff1681526020019081526020015f205f6101000a81548160ff021916908315150217905550611d76611a73565b73ffffffffffffffffffffffffffffffffffffffff168273ffffffffffffffffffffffffffffffffffffffff16847ff6391f5c32d9c69d2a47ea670b442974b53935d1edc7fd64eb21e047a839171b60405160405180910390a460019050611ddd565b5f90505b92915050565b611deb61255f565b5f60065f6101000a81548160ff0219169083151502179055507f5db9ee0a495bf2e6ff9c91a7834c1ba4fdd244a5e8aa4e537bd38aeae4b073aa611e2d611a73565b604051611e3a9190612cea565b60405180910390a1565b600260075403611e80576040517f3ee5aeb500000000000000000000000000000000000000000000000000000000815260040160405180910390fd5b6002600781905550565b611e926112f7565b15611ec9576040517fd93c066500000000000000000000000000000000000000000000000000000000815260040160405180910390fd5b565b5f73ffffffffffffffffffffffffffffffffffffffff168273ffffffffffffffffffffffffffffffffffffffff1603611f3b575f6040517fec442f05000000000000000000000000000000000000000000000000000000008152600401611f329190612cea565b60405180910390fd5b611f465f8383612255565b5050565b6001600781905550565b5f73ffffffffffffffffffffffffffffffffffffffff168273ffffffffffffffffffffffffffffffffffffffff1603611fc4575f6040517f96c6fd1e000000000000000000000000000000000000000000000000000000008152600401611fbb9190612cea565b60405180910390fd5b611fcf825f83612255565b5050565b611fdb611e8a565b600160065f6101000a81548160ff0219169083151502179055507f62e78cea01bee320cd4e420270b5ea74000d11b0c9f74754ebdbfc544b05a25861201e611a73565b60405161202b9190612cea565b60405180910390a1565b61203f8282611670565b6120825780826040517fe2517d3f000000000000000000000000000000000000000000000000000000008152600401612079929190613360565b60405180910390fd5b5050565b5f73ffffffffffffffffffffffffffffffffffffffff168473ffffffffffffffffffffffffffffffffffffffff16036120f6575f6040517fe602df050000000000000000000000000000000000000000000000000000000081526004016120ed9190612cea565b60405180910390fd5b5f73ffffffffffffffffffffffffffffffffffffffff168373ffffffffffffffffffffffffffffffffffffffff1603612166575f6040517f94280d6200000000000000000000000000000000000000000000000000000000815260040161215d9190612cea565b60405180910390fd5b8160015f8673ffffffffffffffffffffffffffffffffffffffff1673ffffffffffffffffffffffffffffffffffffffff1681526020019081526020015f205f8573ffffffffffffffffffffffffffffffffffffffff1673ffffffffffffffffffffffffffffffffffffffff1681526020019081526020015f2081905550801561224f578273ffffffffffffffffffffffffffffffffffffffff168473ffffffffffffffffffffffffffffffffffffffff167f8c5be1e5ebec7d5bd14f71427d1e84f3dd0314c0f7b2291e5b200ac8c7c3b92584604051612246919061288b565b60405180910390a35b50505050565b61225d611e8a565b82600c5f8273ffffffffffffffffffffffffffffffffffffffff1673ffffffffffffffffffffffffffffffffffffffff1681526020019081526020015f205f9054906101000a900460ff16156122e8576040517f08c379a00000000000000000000000000000000000000000000000000000000081526004016122df90612fba565b60405180910390fd5b82600c5f8273ffffffffffffffffffffffffffffffffffffffff1673ffffffffffffffffffffffffffffffffffffffff1681526020019081526020015f205f9054906101000a900460ff1615612373576040517f08c379a000000000000000000000000000000000000000000000000000000000815260040161236a90612fba565b60405180910390fd5b5f73ffffffffffffffffffffffffffffffffffffffff168573ffffffffffffffffffffffffffffffffffffffff1614806123d857505f73ffffffffffffffffffffffffffffffffffffffff168473ffffffffffffffffffffffffffffffffffffffff16145b156123ed576123e885858561259f565b612558565b73d210925940d236951f0bfa632a89d76fa1c8883d73ffffffffffffffffffffffffffffffffffffffff168573ffffffffffffffffffffffffffffffffffffffff16148061247a575073d210925940d236951f0bfa632a89d76fa1c8883d73ffffffffffffffffffffffffffffffffffffffff168473ffffffffffffffffffffffffffffffffffffffff16145b1561248f5761248a85858561259f565b612558565b5f6127106032856124a09190613387565b6124aa919061319d565b90505f81856124b991906133c8565b90505f8211156124e3576124e28773d210925940d236951f0bfa632a89d76fa1c8883d8461259f565b5b6124ee87878361259f565b8573ffffffffffffffffffffffffffffffffffffffff168773ffffffffffffffffffffffffffffffffffffffff167f98bc3fe7d138931a49691b623c256b8812f2a3d7f9b25ba7098c82538977a5d0878560405161254d9291906133fb565b60405180910390a350505b5050505050565b6125676112f7565b61259d576040517f8dfc202b00000000000000000000000000000000000000000000000000000000815260040160405180910390fd5b565b5f73ffffffffffffffffffffffffffffffffffffffff168373ffffffffffffffffffffffffffffffffffffffff16036125ef578060025f8282546125e391906130d5565b925050819055506126bd565b5f5f5f8573ffffffffffffffffffffffffffffffffffffffff1673ffffffffffffffffffffffffffffffffffffffff1681526020019081526020015f2054905081811015612678578381836040517fe450d38c00000000000000000000000000000000000000000000000000000000815260040161266f9392919061332b565b60405180910390fd5b8181035f5f8673ffffffffffffffffffffffffffffffffffffffff1673ffffffffffffffffffffffffffffffffffffffff1681526020019081526020015f2081905550505b5f73ffffffffffffffffffffffffffffffffffffffff168273ffffffffffffffffffffffffffffffffffffffff1603612704578060025f828254039250508190555061274e565b805f5f8473ffffffffffffffffffffffffffffffffffffffff1673ffffffffffffffffffffffffffffffffffffffff1681526020019081526020015f205f82825401925050819055505b8173ffffffffffffffffffffffffffffffffffffffff168373ffffffffffffffffffffffffffffffffffffffff167fddf252ad1be2c89b69c2b068fc378daa952ba7f163c4a11628f55a4df523b3ef836040516127ab919061288b565b60405180910390a3505050565b5f5ffd5b5f5ffd5b5f7fffffffff0000000000000000000000000000000000000000000000000000000082169050919050565b6127f4816127c0565b81146127fe575f5ffd5b50565b5f8135905061280f816127eb565b92915050565b5f6020828403121561282a576128296127b8565b5b5f61283784828501612801565b91505092915050565b5f8115159050919050565b61285481612840565b82525050565b5f60208201905061286d5f83018461284b565b92915050565b5f819050919050565b61288581612873565b82525050565b5f60208201905061289e5f83018461287c565b92915050565b5f73ffffffffffffffffffffffffffffffffffffffff82169050919050565b5f6128cd826128a4565b9050919050565b6128dd816128c3565b81146128e7575f5ffd5b50565b5f813590506128f8816128d4565b92915050565b5f60208284031215612913576129126127b8565b5b5f612920848285016128ea565b91505092915050565b61293281612873565b811461293c575f5ffd5b50565b5f8135905061294d81612929565b92915050565b5f5f60408385031215612969576129686127b8565b5b5f612976858286016128ea565b92505060206129878582860161293f565b9150509250929050565b5f81519050919050565b5f82825260208201905092915050565b8281835e5f83830152505050565b5f601f19601f8301169050919050565b5f6129d382612991565b6129dd818561299b565b93506129ed8185602086016129ab565b6129f6816129b9565b840191505092915050565b5f6020820190508181035f830152612a1981846129c9565b905092915050565b5f5f5f60608486031215612a3857612a376127b8565b5b5f612a45868287016128ea565b9350506020612a56868287016128ea565b9250506040612a678682870161293f565b9150509250925092565b5f819050919050565b612a8381612a71565b8114612a8d575f5ffd5b50565b5f81359050612a9e81612a7a565b92915050565b5f60208284031215612ab957612ab86127b8565b5b5f612ac684828501612a90565b91505092915050565b612ad881612a71565b82525050565b5f602082019050612af15f830184612acf565b92915050565b5f5f60408385031215612b0d57612b0c6127b8565b5b5f612b1a85828601612a90565b9250506020612b2b858286016128ea565b9150509250929050565b5f60ff82169050919050565b612b4a81612b35565b82525050565b5f602082019050612b635f830184612b41565b92915050565b5f5ffd5b5f5ffd5b5f5ffd5b5f5f83601f840112612b8a57612b89612b69565b5b8235905067ffffffffffffffff811115612ba757612ba6612b6d565b5b602083019150836001820283011115612bc357612bc2612b71565b5b9250929050565b5f5f5f60408486031215612be157612be06127b8565b5b5f612bee868287016128ea565b935050602084013567ffffffffffffffff811115612c0f57612c0e6127bc565b5b612c1b86828701612b75565b92509250509250925092565b5f60208284031215612c3c57612c3b6127b8565b5b5f612c498482850161293f565b91505092915050565b5f5f60208385031215612c6857612c676127b8565b5b5f83013567ffffffffffffffff811115612c8557612c846127bc565b5b612c9185828601612b75565b92509250509250929050565b5f5f60408385031215612cb357612cb26127b8565b5b5f612cc0858286016128ea565b9250506020612cd1858286016128ea565b9150509250929050565b612ce4816128c3565b82525050565b5f602082019050612cfd5f830184612cdb565b92915050565b7f496e76616c6964206164647265737300000000000000000000000000000000005f82015250565b5f612d37600f8361299b565b9150612d4282612d03565b602082019050919050565b5f6020820190508181035f830152612d6481612d2b565b9050919050565b7f43616e6e6f74207265636f76657220544f5745520000000000000000000000005f82015250565b5f612d9f60148361299b565b9150612daa82612d6b565b602082019050919050565b5f6020820190508181035f830152612dcc81612d93565b9050919050565b5f604082019050612de65f830185612cdb565b612df3602083018461287c565b9392505050565b612e0381612840565b8114612e0d575f5ffd5b50565b5f81519050612e1e81612dfa565b92915050565b5f60208284031215612e3957612e386127b8565b5b5f612e4684828501612e10565b91505092915050565b7f4e487b71000000000000000000000000000000000000000000000000000000005f52602260045260245ffd5b5f6002820490506001821680612e9357607f821691505b602082108103612ea657612ea5612e4f565b5b50919050565b7f43616e6e6f7420626c61636b6c6973742061646d696e000000000000000000005f82015250565b5f612ee060168361299b565b9150612eeb82612eac565b602082019050919050565b5f6020820190508181035f830152612f0d81612ed4565b9050919050565b828183375f83830152505050565b5f612f2d838561299b565b9350612f3a838584612f14565b612f43836129b9565b840190509392505050565b5f6020820190508181035f830152612f67818486612f22565b90509392505050565b7f4164647265737320697320626c61636b6c6973746564000000000000000000005f82015250565b5f612fa460168361299b565b9150612faf82612f70565b602082019050919050565b5f6020820190508181035f830152612fd181612f98565b9050919050565b7f496e76616c696420726563697069656e740000000000000000000000000000005f82015250565b5f61300c60118361299b565b915061301782612fd8565b602082019050919050565b5f6020820190508181035f83015261303981613000565b9050919050565b7f416d6f756e74206d757374206265203e203000000000000000000000000000005f82015250565b5f61307460128361299b565b915061307f82613040565b602082019050919050565b5f6020820190508181035f8301526130a181613068565b9050919050565b7f4e487b71000000000000000000000000000000000000000000000000000000005f52601160045260245ffd5b5f6130df82612873565b91506130ea83612873565b9250828201905080821115613102576131016130a8565b5b92915050565b7f45786365656473206d617820737570706c7900000000000000000000000000005f82015250565b5f61313c60128361299b565b915061314782613108565b602082019050919050565b5f6020820190508181035f83015261316981613130565b9050919050565b7f4e487b71000000000000000000000000000000000000000000000000000000005f52601260045260245ffd5b5f6131a782612873565b91506131b283612873565b9250826131c2576131c1613170565b5b828204905092915050565b7f4d696e746572206461696c79206c696d697420657863656564656400000000005f82015250565b5f613201601b8361299b565b915061320c826131cd565b602082019050919050565b5f6020820190508181035f83015261322e816131f5565b9050919050565b7f4369726375697420627265616b65723a206461696c7920766f6c756d65206c695f8201527f6d69742065786365656465640000000000000000000000000000000000000000602082015250565b5f61328f602c8361299b565b915061329a82613235565b604082019050919050565b5f6020820190508181035f8301526132bc81613283565b9050919050565b7f496e76616c6964206d696e7465720000000000000000000000000000000000005f82015250565b5f6132f7600e8361299b565b9150613302826132c3565b602082019050919050565b5f6020820190508181035f830152613324816132eb565b9050919050565b5f60608201905061333e5f830186612cdb565b61334b602083018561287c565b613358604083018461287c565b949350505050565b5f6040820190506133735f830185612cdb565b6133806020830184612acf565b9392505050565b5f61339182612873565b915061339c83612873565b92508282026133aa81612873565b915082820484148315176133c1576133c06130a8565b5b5092915050565b5f6133d282612873565b91506133dd83612873565b92508282039050818111156133f5576133f46130a8565b5b92915050565b5f60408201905061340e5f83018561287c565b61341b602083018461287c565b939250505056fea26469706673582212209ed0e197162978184f9440488e4cf320fa566678b066fc4ebb72082ab92eae9464736f6c634300081c0033","linkReferences":{}},"methodIdentifiers":{"BLACKLISTER_ROLE()":"f515e6f2","DEFAULT_ADMIN_ROLE()":"a217fddf","FEE_DENOMINATOR()":"d73792a9","FEE_RECIPIENT()":"ebd09054","MAX_SUPPLY()":"32cb6b0c","MINTER_ROLE()":"d5391393","PAUSER_ROLE()":"e63ab1e9","TRANSFER_FEE_PERCENT()":"3db26126","addToBlacklist(address,string)":"3691920e","allowance(address,address)":"dd62ed3e","approve(address,uint256)":"095ea7b3","authorizeMinter(address,uint256)":"72e47557","balanceOf(address)":"70a08231","blacklisted(address)":"dbac26e9","burn(uint256)":"42966c68","burnFrom(address,uint256)":"79cc6790","buybackWallet()":"deab8aea","dailyVolume(uint256)":"943ca3b9","dailyVolumeLimit()":"0217626c","decimals()":"313ce567","getRoleAdmin(bytes32)":"248a9ca3","grantRole(bytes32,address)":"2f2ff15d","hasRole(bytes32,address)":"91d14854","mint(address,uint256)":"40c10f19","minterDailyLimit(address)":"18b67498","minterDailyMinted(address,uint256)":"27e5c54b","name()":"06fdde03","pause(string)":"6da66355","paused()":"5c975abb","platformTreasury()":"e138818c","recoverTokens(address,uint256)":"069c9fae","removeFromBlacklist(address)":"537df3b6","renounceRole(bytes32,address)":"36568abe","revokeMinter(address)":"cfbd4885","revokeRole(bytes32,address)":"d547741f","supportsInterface(bytes4)":"01ffc9a7","symbol()":"95d89b41","totalSupply()":"18160ddd","transfer(address,uint256)":"a9059cbb","transferFrom(address,address,uint256)":"23b872dd","unpause()":"3f4ba83a","updateBuybackWallet(address)":"04dacd50","updateTreasury(address)":"7f51bb1f"},"id":61}